:020000040000FA
:060000000211E20207AD4F
:03002B00020F6958
:0300330002086A56
:030053000206DCC6
:03006B000207CFBA
:03007B0002081068
:1000830002073E010100F0FF0700080000FFFF0028
:10009300000504000000030001FF0020FD0002062C
:1000A300FFFF1E010100FE110000000200FE11000F
:1000B30000000300FE11000000121A0000000000FF
:1000C3000000000000000000000101040100000026
:1000D30002948104F9800204010000000294810368
:1000E3001E81030401000000029481031E810104A8
:1000F30000005412000000E8030000FFFFA51201F6
:1001030088130000E803000064006400B801A0BB8A
:100113000D00A0BB0D00020202070401051E02052B
:100123001E020A0A010108080103B80B02803E01FE
:1001330002FEFFE8030A050001FFFF020A011401A2
:10014300E005030101FF0F592B000000002D2A00D9
:10015300000000FF000000FF001211F2601D1212E8
:10016300017005191919801A1210CD701F1210E1B0
:10017300C37003E6673319191940071818182208C2
:10018300080874FFF618F618F618F6221210E16044
:100193001712128F702192F01212987019501720B3
:1001A300F014080808090909E7F61819E7F61819F9
:1001B300E7F61819E7F62212129860E6E869701F4D
:1001C3000808E62480F608E436F618547FB47F0C5A
:1001D300E654806007F6E418F618F622181822E9A8
:1001E300C6CC08C6CD08C6CE08C6CFC0E0E8C0E07E
:1001F300EAC0E0EBC0E009E9F809E7FA09E7FBE642
:10020300F918E6F8C3EC98ED99EE9AEBC2E7F5F02E
:10021300EFC2E795F0500E600CEBCFFBEACEFAE9A4
:10022300CDF9E8CCF8EAA2E7D2E7FAEB33FB13F512
:10023300F0EEA2E7D2E7FEEF33FFC5F013A2E730FB
:10024300E601B313C5F0C3C0E0C0F07F00C39BFB5E
:10025300605E9418600F401D14601AD0E023F9D03B
:10026300E0F802033D8AF0E9486003D2F0E4AFF01E
:10027300FAF9F8803BEB30E40D89F0EA6003D2F041
:10028300E4AFF0F9CAF8EB30E30D88F0EF6002D287
:10029300F0AFF0E4CAC9F8EB54076014FBC3EA13E8
:1002A300FAE913F9E813F8EF135002D2E0FFDBED9C
:1002B300D0E0C0E030E739C3E49FFFF5F0EC98FCF1
:1002C30042F0ED99FD42F0EE9AFE42F0D0E0F9D013
:1002D300E0F8E5F0607AE923F9EE20E742D80280FE
:1002E30067C3EF33FFEC33FCED33FDEE33FE80EAFF
:1002F300EC28FCED39FDEE3AFED0E023F9D0E0F82E
:100303004002801BC3EE13FEED13FDEC13FCEF1351
:100313005002D2E0FF08B800067F7F74FF802EEF03
:100323003350178CF020F00260100CBC000C0DBD94
:1003330000080EBE000408E860DFE933E813FFEEAF
:100343002313FE4F4D4C8008E95480FFE4FEFDFC6F
:10035300EE33EF33F47004FCFD7E80D0E0FBD0E09D
:10036300FAD0E0F8D0E0CFC618CEC618CDC618CC68
:10037300C6F9221211F27004181818221212017011
:100383000D74FFF61819F61819F61819F622E75422
:100393008066F6121298700F12128F70F014F6081E
:1003A300F608F608F680D112128F700CF608F608DC
:1003B300768008E6447F80EC1210E4700C1210D0B3
:1003C30060BFE65480F6E480BB1210D070051919A3
:1003D3001980A5E869700C763F18768018F618F630
:1003E300E8F922E6CDC0E018ECC0E0E633CD33CD2A
:1003F300D313F6E719FCE7191933CC33C3947F40C1
:100403000ECD9D502408E65480F6E418F6800FF4D0
:10041300043D14501408E6447FF6187680E418F679
:1004230018F6D0E0FCD0E0FD22CCD313CCFD18E4C9
:10043300C6CBC0E018E4C6CAC0E00808ED08C6335E
:10044300E613F618E433C675F003C3CA97CA09CB9B
:1004530097CB199C40047D08802EBD000302051F25
:1004630016B6FF050606081618C3CA33CACB33CB24
:1004730033CA27CA09CB37CB193CC37D08803E1842
:100483007D0820E75CC633C6CA33CACB33CB33DD22
:10049300F1D5F0EB30E77BCA97CA09CB974ACB1962
:1004A3009C406F4B7025E620E0218066187D08C3D1
:1004B300CA97CA09CB97CB199CD3C633C6CA33CACA
:1004C300CB33CB3350C9DDE7D5F0E1D3E4C636C631
:1004D30008C636C608C636C608C636C618181880F3
:1004E30031C3CA97CA09CB97CB199CB34097C6337C
:1004F300C6CA33CACB33CB33DD34D5F02EC6A2E024
:10050300C640C8CA27CA09CB37194A70BECB3CB408
:1005130080B90808E63308E633601F181818D0E0DE
:10052300FAD0E0FBD0E0FCD0E0FD22187D08CA271A
:10053300CA09CB37CB193CD3808013F618E4B67FB6
:1005430011F618B6FF0EF618C60470D208087680A6
:1005530080CAF618F618F680C5001211F2604F1221
:1005630012016012E7548066F61210CD7011121258
:100573008F703B090909F4F618F618F618F62212DB
:1005830010E1701512129808080860EAE6447FF635
:1005930018768018E4F618F62212129860161212D2
:1005A3008F7012E4F608F608F608E65480F6090997
:1005B3000918181822EAC0E0EBC0E0ECC0E0EDC077
:1005C300E0E687F0A4FBACF008E687F0A42CFCE49B
:1005D30035F0FA1809E687F0A42C4B60027401CABF
:1005E30035F0FCE433FB09E687F0D2F7A42CCB35D6
:1005F300F0FC1908E687F0A42BCC35F0FBE433FDBF
:100603000819E687F0D2E7A42C4ACB35F0CD3400A5
:10061300FC09E687F0D2E7A42DCC35F0FDE433FAEC
:100623000918E687F0D2F7A42CCD35F0CA3400FCC4
:1006330008E687F0D2E7D2F7A42ACC35F07A7E20F9
:10064300E70B0ACB33CBCD33CDCC33CC33CB3350C9
:10065300147004ED30E00ED2F1E4CD3DCDCC3CCCB2
:100663003B5005DA05C2F1EB547FC63308E63392FB
:10067300F0FBE73309E733C39A502D2B70190C0DA8
:100683004C4D70151806E608C333700D20F10AA20D
:10069300F013F6E418800B4024E4F630F002768081
:1006A30018F618F618F68024D33B14501074FFA2E2
:1006B300F013F6187680E418F618F6800FA2F013FC
:1006C300F618E63303F618ECF618EDF6D0E0FDD095
:1006D300E0FCD0E0FBD0E0FA22C0E074F1120B7B27
:1006E300A2AFE433F509D2AF85A708AFA1EF550850
:1006F300FE74105E600612145A75A1EF74085E60F2
:100703000812146075A1F78024EFA2E092F0E508C7
:10071300A2E082F05017906198E0F89004B3E0C330
:1007230098A2D265D0335002E8F075A1FE751A0085
:10073300E509A2E092AF7F02020C37C0E074F21227
:100743000B7BA2AFE433FED2AF9061A4E0F8759BBC
:1007530000E59158540860087591F71214AE802390
:10076300E59158541060087591EF1214B48014E5A4
:1007730091A2E092F0E8A2E082F05007E0C2E0F03C
:1007830012160A9061A3E0F8E5E9585404600E12CA
:1007930015E075E9FB906193E0A2E640F2751A005B
:1007A300EEA2E092AF7F01020C37C0E074F2120BAD
:1007B3007BA2AFE433FED2AF9061A5E0F8E5BF586A
:1007C3005404600675BFFB12162280D1C0E074F298
:1007D300120B7BA2AFE433FED2AFE589A2E1501B3B
:1007E3009004777401F0900474E06006438C01E494
:1007F3008005538CFE7401F0121394758900C2C5F1
:10080300751A00EEA2E092AF7F01020C37C0E074CC
:10081300F2120B7BA2AFE433FED2AFE58AA2E25021
:100823001B9004787401F0900475E06006438C0219
:10083300E48005538CFD7401F0121394E58AA2E75A
:10084300501B9004797401F0900476E06006438CA9
:1008530004E48005538CFB7401F0121394758A0031
:10086300758A00C2EB8099C0E074F2120B7BA2AFD1
:10087300E433FED2AFE58BA2E0500990047A740111
:10088300F0121394758B00C2E8020803C3E498F8CE
:10089300E499F91208D08026C3E49AFAE49BFBE9B1
:1008A30020E7E91208D0E498F8E499F922C3E49820
:1008B300F8E499F91208D0E498F8E499F9C3E49AB2
:1008C300FAE49BFB22EB20E7CFE920E7E0B9001035
:1008D300BB0008E88AF084F8AAF022E4FBC8FA22F5
:1008E300EB70227B10C833C8C933C9335007C39A8E
:1008F300C3DBF280069A50012ADBEAC833F4C8C985
:1009030033F4C9FA2275F008E4C833C8C933C933CC
:10091300C99AC99B5004C92AC93BD5F0ECFBC8331B
:10092300F4C8E4C9FA2212096920F01430E72B74E1
:10093300FFFCFBFA747F8022E4FCFBFA7480801ACC
:10094300B48008BC00F2BB00EF800F50EBF9E4C3A6
:100953009AFAE49BFBE49CFCE499C6CC18C6CB183A
:10096300C6CA18C6F922E4C9C608CAC608CBC6D384
:10097300330308CCC63392F0C3947F402E941840BF
:1009830019C9B90704CACBCC225025C309CA33CA33
:10099300CB33CBCC33CC33D9F422F4600DC9CCC3E5
:1009A30013CB13CBCA13CAD9F6CC22E4FCFBFA222D
:1009B30014FCFBFA22080808EAC0E0EBC0E086F06A
:1009C300E7A4FA180986F0E7A42AFA180986F0E7DB
:1009D300A42AFA180986F0E7A42AFA1986F0E7A4EC
:1009E300FBE5F02AFA190886F0E7A42BFBE5F03AB9
:1009F300FA190886F0E7A42BFBE5F03AFA18180970
:100A030086F0E7A4C5F02BFBE43AFA1908E7C5F032
:100A1300C6A426F6E5F03BFBE43AFA1886F0E7A411
:100A2300F6E5F00826F6E43B08F6E43A08F6D0E0EB
:100A3300FBD0E0FA22E4CFC0E0E4CEC0E0E4CDC0D6
:100A4300E0E4CCC0E075F020E626F608E633F608CD
:100A5300E633F608E633F6181818EC33FCED33FDED
:100A6300EE33FEEF33FFC3EC9709ED9709EE9709D9
:100A7300EF97191919400FFFEC97FC09ED97FD0942
:100A8300EE97FE191906D5F0BFECF709EDF709EE5D
:100A9300F709EFF7191919D0E0FCD0E0FDD0E0FE1B
:100AA300D0E0FF222518C582C0E0E51934FFC583D5
:100AB300C0E0E518C3958224F810AF088583198533
:100AC30082188008858319858218D2AFCEF0A3E5FA
:100AD30020F0A37808E608F0A3DEFAEFF0A3E5819F
:100AE30024FAF8E608F0A3E608F0A3E608F0A30862
:100AF30008E608F0A3E608F0A315811581D0E0FE0F
:100B0300D0E0F8158115811581E8C0E0EEC0E02240
:100B130012127AB90003020B65E490040178447958
:100B2300128002F0A3D8FCD9FA781A9000867A01D1
:100B3300BA00028007E493A3F608DAF97A447B1536
:100B430090008778D679018015E493A3AD82AE83B4
:100B53008A828B83F0A3AA82AB838D828E83D8E9AA
:100B6300D9E77582147583B47404120F4B75822808
:100B73007583287400120F4BC0D02518C582C0E0BE
:100B8300E51934FFC583C0E0E518C3958224F3104B
:100B9300AF08858319858218800885831985821893
:100BA300D2AFC8F0A3E9F0A3EAF0A3EBF0A379086E
:100BB300E709F0A3D8FAECF0A3EDF0A3EEF0A3EF6E
:100BC300F0A3D0E0F0A3D0E0F0A3D0E0F0A3E520C1
:100BD300F0A3E5F0F0A322E9799EC608CAC608CBC4
:100BE300C608CCC6C370207996CACBCC7019798E4F
:100BF300CBCC70137986CC700EF9802ACA33CACB5A
:100C030033CBCC33CC331930E7F2CCCBCA335014CB
:100C13007004EA30E00DE4CA3ACACB3BCBCC3CCCFF
:100C2300500209C3E913C6CC182313C6CB18C6CA8E
:100C330018C6F922851983851882E0C0E0A3E0F97C
:100C4300A3E0FAA3E0FBA37808E0F608A3DFFAE049
:100C5300FCA3E0FDA3E0FEA3E0FFA3E0C0E0A3E06C
:100C6300C0E0A3E0F5D0A3E0F520A3E0A3F5F010E6
:100C7300AF088583198582188008858319858218B2
:100C8300D2AFD082D083D0E0F8D0E032FF75F0103D
:100C93008E218F2285822685832585188285198357
:100CA300E0CEA3E0CF852682852583EBC9EAC8ED94
:100CB300CBECCAC3E833C8E933C9EA33CAEB33CB55
:100CC300C3EA9EF524EB9FF523B35004AB23AA2478
:100CD300EC33CCED33CDD5F0DAAE21AF2222D08385
:100CE300D082ECC0E0EDC0E0E493A3FCE493A3FD69
:100CF300ED4C600D120DB9EC24FFFCED34FFFD80CB
:100D0300EFE493A3FCE493A3FDED4C600D120E56A8
:100D1300EC24FFFCED34FFFD80EFD0E0FDD0E0FCE0
:100D2300E493A3C0E0E493C0E0228519838518828D
:100D3300E0A3FEE0A3F5207808E0A3F608DFFAE0DD
:100D4300A3FFE0A3C0E0E0A3C0E0E0A3C0E0E0A312
:100D5300C0E0E0A3C0E010AF088582188583198046
:100D630008858218858319D2AFD083D082020F51B0
:100D7300D083D082E9C0E0E493A3C386F0C5F095A5
:100D8300F0F908E493A386F0C5F095F0700BE493B3
:100D9300A3C3994005E9048002A3E475F002A425E6
:100DA30082F582E5F03583F583D0E0F9E493A3C0BF
:100DB300E0E493C0E022C0E0C3E493960874019397
:100DC3009618400FE49366700808740193661870D0
:100DD300007019A3A3C3E49396087401939618A310
:100DE300A3400DD0E0D0E0D0E0020D1DA3A3A3A348
:100DF300A3A3D0E0227404800474028000CCC0E07A
:100E0300EDC0E0E518C39CCCAD1950011D10AF0631
:100E13008C188D1980068C188D19D2AF120ECDD077
:100E2300E0FDD0E0FC2274028000CCC0E0EDC0E025
:100E3300E518C39CCCAD1950011D10AF068C188D5D
:100E43001980068C188D19D2AF120EABD0E0FDD0ED
:100E5300E0FC22C0E0C0F088F0E4936670080874F8
:100E6300019366187000A8F0A3A3700BD0F0D0E034
:100E7300D0E0D0E0020D1DA3A3D0F0D0E022D083B8
:100E8300D082CCC0E0E493A36006120EEE1470FA95
:100E9300E493A360061210501470FAD0E0FCE493BC
:100EA300A3C0E0E493C0E022CAC0E0E493A3C582F8
:100EB300CCC582C583CDC583F0A3C582CCC582C50D
:100EC30083CDC583DAE5D0E0CA22CAC0E0E0A3C57A
:100ED30082CCC582C583CDC583F0A3C582CCC58230
:100EE300C583CDC583DAE6D0E0CA22C0E0E493A38C
:100EF300D39C5010E493A3C39C400AD0E0D0E0D02D
:100F0300E0020E9EA3A3A3D0E022C008C3E096F59F
:100F13000808A3E096420808A3E096420808A3E065
:100F23009645087001D3D00822700908080822608A
:100F330016181818C6C333C608C633C608C633C640
:100F430008C633C6D5E0EA22C09FF59FE473D09F5D
:100F530022D083D082C09FE493C0E0740193C0E0A9
:100F6300740293F59F22C0E0C0D0E8C0E0A8A8D2E5
:100F7300AFC2C7751A00E8A2E792AFD0E0F8D0D0AD
:100F8300D0E03200C0D0251810AF08F518500C057A
:100F9300198008F51850020519D2AFD0D022740475
:100FA300800A74038006740280027401C0E0F404B2
:100FB300120FBCD0E012123D222518F58210AF08A3
:100FC300F518400C15198008F51840021519D2AF11
:100FD30085198322BB0102E722C082C08389828AEA
:100FE30083BB0003E08002E493D083D082226016A7
:100FF300080808C6C313C618C613C618C613C618EE
:10100300C613C6D5E0EA222518F8E43519F92225D6
:1010130018FAE43519FB222518FCE43519FD22C31F
:10102300E0C696F608A3E0C696F608A3E0C696F6D1
:1010330008A3E0C696F622251810AF08F518400C51
:1010430015198008F51840021519D2AF22C0E0E443
:1010530093A36C7009D0E0D0E0D0E0020E9EA3A36E
:10106300D0E022E066701008A3E066700A08A3E0EF
:1010730066700408A3E06622E76670100809E76655
:10108300700A0809E76670040809E76622C3E09658
:1010930008A3E09608A3E09608A3E096A2D265D041
:1010A3003322C3E096F008A3E096F008A3E096F09D
:1010B30008A3E096F022C3E697F60809E697F60838
:1010C30009E697F60809E697F622181818E608467F
:1010D300087009E626087005E633F4220822191978
:1010E30019E70947097009E727097005E733F4226F
:1010F3000922C3E4939608740193960874029396A5
:10110300087403939622E627F60809E637F60809DA
:10111300E637F60809E637F622700422600D18C692
:10112300C333C608C633C6D5E0F41822E056F00828
:10113300A3E056F008A3E056F008A3E056F022E639
:1011430057F60809E657F60809E657F60809E65779
:10115300F622E026F608A3E036F608A3E036F60802
:10116300A3E036F622E026F008A3E036F008A3E079
:1011730036F008A3E036F022E056F608A3E056F670
:1011830008A3E056F608A3E056F622E647F6080958
:10119300E647F60809E647F60809E647F622E4C3F8
:1011A30096F608E496F608E496F608E496F622C660
:1011B300F4C608C6F4C608C6F4C608C6F4C622C3F5
:1011C300E09608A3E09608A3E09608A3E09622C35E
:1011D300E7960809E7960809E7960809E79622754E
:1011E300D00075813F75180175190400020B13E6D1
:1011F300084608C3134608336002E633F422E709BE
:101203004709C3134709336002E733F422600C082C
:10121300C6C313C618C613C6D5E0F422E6F008A366
:10122300E6F008A3E6F008A3E6F022E0F608A3E060
:10123300F608A3E0F608A3E0F622CAC0E0E6F0A3AE
:1012430008DAFAD0E0FA22E0FAA3E0FBA3E0FCA379
:10125300E0FD22EAF0A3EBF0A3ECF0A3EDF022E033
:10126300F8A3E0F9A3E0FAA3E0FB22E8F0A3E9F096
:10127300A3EAF0A3EBF022E5C754F84401F5C779DC
:1012830001222518F582E43519F58322E72719474A
:101293001947194722E62618461846184622C2AFB0
:1012A30075D69F02000022120F540AD103120F5465
:1012B3003DD103120F546BD103120F5485D3031284
:1012C3000F54A1D303120F54E6D303120F546BD45C
:1012D30003120F54B7D403120F5447D503120F54FC
:1012E3001FD603120F5470D603120F54D5D6031210
:1012F3000F5452D703120F5488D703120F54D3D766
:1013030003120F54F9D703120F5489D803120F5441
:1013130020D903120F546CD903120F549DD9031211
:101323000F54D4D903120F5465DB03120F542FDC6F
:1013330003120F5409DD03120F5410C404120F5487
:1013430021C404120F5439C404120F54FAFF0112BA
:101353000F54E7FF01120F5408FF01120F5418FF37
:1013630001120F542DFF01120F54E1FF01120F540C
:10137300FBBD04120F547EBE04120F54E4BE0412CC
:101383000F548FBB04120F54BDBB04120F544CBC3B
:1013930004120F54A7BC04120F54C5BC04120F54FB
:1013A300C8BC04120F54BC9904120F54CA990412F6
:1013B3000F54439A04120F54179B04120F54E99CC1
:1013C30004120F544E9D04120F54AB9D04120F547C
:1013D300F87F00120F540AB204120F5442B20412DF
:1013E3000F548DB304120F5411B404120F54F68624
:1013F30004120F54228704120F54938904120F54BA
:10140300D38904120F54138A04120F54278A041227
:101413000F54408A04120F54318B04120F54D68B8D
:1014230004120F54EA8B04120F5491B704120F5491
:10143300B5B704120F54CEB704120F5400B80412F8
:101443000F5430B804120F545DB804120F5467B828
:1014530004120F54C9B804120F54D8B804120F540D
:10146300E2B804120F54EFB804120F5446FD0312EE
:101473000F5466FD03120F54A5FD03120F54C0FD54
:1014830003120F54DFFD03120F5445FE03120F54D2
:101493004EFE03120F54ABFE03120F54BAFE031297
:1014A3000F54DEFE03120F549FFF03120F54ACFFC1
:1014B30003120F54BDFF03120F54C9C304120F5478
:1014C300E1C304120F540DC404120F54408C0412D0
:1014D3000F549A8D04120F54A88D04120F54BB8D10
:1014E30004120F54D08D04120F54E58D04120F54BF
:1014F300F88D04120F546C8E04120F54D18E041203
:101503000F54598F04120F54D58F04120F5499900E
:1015130004120F54A99004120F54B89004120F54DC
:1015230052C204120F5476C204120F549EC2041204
:101533000F54C6C204120F5483AD04120F54AAAD44
:1015430004120F54C8AD04120F543BAE04120F54CF
:10155300BAAA04120F54D3AA04120F54DFAA041216
:101563000F54F3AA04120F5411AB04120F541BAB04
:1015730004120F5425AB04120F5438AB04120F544A
:10158300BEAB04120F5433AC04120F5462AC0412FA
:101593000F54B0AC04120F54FFAC04120F541AAD25
:1015A30004120F5424AD04120F5435AD04120F541A
:1015B30078AD04120F5472C304120F54BDC3041246
:1015C3000F54DBF303120F5405F403120F5422F4E8
:1015D30003120F5435F403120F544BF403120F5438
:1015E300A9F403120F54E1F403120F54D5F80312B4
:1015F3000F541AFA03120F544DFA03120F54B0FA90
:1016030003120F5410FC03120F5438FC03120F542F
:101613004DFC03120F545DFC03120F54A1FC031283
:101623000F54FCFC03120F540CFD03120F54CBBCDC
:1016330004120F54E5BC04120F540DBD04120F54D1
:1016430026BD04120F544ABD04120F5468BD041280
:101653000F547FBD04120F54ADBD04120F54C8BD07
:1016630004120F54F8C004120F543CC104120F5457
:1016730051A104120F5461A104120F5466A2041263
:101683000F5498A204120F54C8A204120F54EBA2D1
:1016930004120F5402A304120F543CA304120F5458
:1016A300A1A304120F54E3A304120F5422A404129F
:1016B3000F5453A404120F547EA404120F54F9B808
:1016C30004120F540BB904120F541FBA04120F540F
:1016D30022BA04120F54FDBF04120F5433C0041274
:1016E3000F5449C004120F548BC004120F549BC0F3
:1016F30004120F54AAC004120F54EEC004120F5464
:10170300008004120F543A8004120F54A380041271
:101713000F54C08004120F54628104120F546B8162
:1017230004120F54B08104120F54D98104120F54C0
:10173300E68104120F54578204120F54E2820412FA
:101743000F54308304120F546E8304120F54D38347
:1017530004120F54F68304120F546D8404120F54B1
:10176300C48404120F54FF8404120F5434850412EA
:101773000F54468504120F54588504120F5477856D
:1017830004120F54808504120F54408604120F5420
:101793008C8604120F54CA8604120F544FBA0412D3
:1017A3000F54A17F00120F54D4AF04120F540AB088
:1017B30004120F5452B004120F54ABB104120F545D
:1017C3007CAC03120F54A0AD03120F54DAAD031215
:1017D3000F5484AF03120F54AEAF03120F5423B24E
:1017E30003120F5463B203120F54F9B303120F54CD
:1017F30096B403120F54E8B403120F548BB50312BB
:101803000F54C3B503120F5405B603120F5474B724
:1018130003120F54C2B803120F54F3BA03120F5436
:1018230021BB03120F5448BB03120F5451BB0312C5
:101833000F54A8BB03120F543ABC03120F5467BFD3
:1018430003120F54EABF03120F54AAC104120F5418
:10185300C2C104120F54CCC104120F5420C204128B
:101863000F54F19004120F54079104120F54A891CE
:1018730004120F54E79104120F54049204120F54EC
:10188300359204120F54829204120F54B59204122B
:101893000F54F09204120F54EB9404120F54539507
:1018A30004120F54FDBE04120F545CBF04120F54F4
:1018B3009ABF04120F54DBBF04120F54EBAC021295
:1018C3000F54F7AC02120F5459AD02120F5463AD0B
:1018D30002120F54F4AD02120F5430AE02120F5421
:1018E300EBAE02120F544CAF02120F54E9AF0212C7
:1018F3000F5469B002120F5400B202120F54D5B341
:1019030002120F5411B502120F5474B602120F547F
:1019130027B702120F54E3BB02120F54D8BC0212B2
:101923000F546DBD02120F5492BD02120F542EBEFE
:1019330002120F5443BE02120F5467BE02120F5419
:10194300D8BE02120F54F5BE02120F541FBF02126B
:101953000F54B5C002120F54D6C002120F547CC1EB
:1019630002120F54C3C102120F5428C202120F54A1
:10197300A9C202120F540DC302120F5469C30212FB
:101983000F54FFC302120F5472C402120F54A6C4A1
:1019930002120F5409C502120F5469C602120F54E2
:1019A30000C802120F54ADC802120F5412CB021218
:1019B3000F547BCB02120F54A5CB02120F54D0CD80
:1019C30002120F545BD002120F5456D102120F545D
:1019D300BF9D04120F54799E04120F54DF9E04120C
:1019E3000F54009F04120F54D39F04120F5433FB60
:1019F30002120F540EFC02120F543EFD02120F543A
:101A030032FF02120F5492FF02120F54BAFF021256
:101A13000F54BDFF02120F54C6FF02120F54F17F81
:101A230000120F54D86A00120F54076B00120F54A0
:101A33007F6B00120F54826C00120F54DE6C001285
:101A43000F545F6E00120F547B6E00120F54CD6E55
:101A530000120F54106F00120F54236F00120F5413
:101A6300756F00120F54307000120F549C700012E7
:101A73000F54C67000120F54FE7000120F547A7286
:101A830000120F54537300120F549C7400120F541E
:101A93006F7500120F54F77500120F543F76001242
:101AA3000F54597600120F54A07600120F54C076CB
:101AB30000120F54567700120F54E57700120F549B
:101AC3003F7800120F54837800120F54FF7A0012EC
:101AD3000F542D7C00120F54697C00120F545B7D50
:101AE30000120F54837D00120F54867D00120F5491
:101AF300907D00120F54A37D00120F542C7E001210
:101B03000F54627E00120F548E7E00120F54B57E66
:101B130000120F54D97E00120F544A7F00120F5443
:101B2300587F00120F548B7F00120F54EBC2041224
:101B33000F54F7C204120F5435C304120F54F47F29
:101B430000120F54449603120F54679603120F5456
:101B5300AD9703120F54F69703120F5450980312C4
:101B63000F54B69803120F54B99803120F540599E2
:101B730003120F547F9903120F54059A03120F5443
:101B8300089A03120F54949A03120F54D79A03120C
:101B93000F54169F03120F54B3A003120F54F5A052
:101BA30003120F546AA403120F5498A503120F547F
:101BB30022A703120F54AFA703120F54A9A80312AD
:101BC3000F5400AB03120F5437C003120F54D7C086
:101BD30003120F5441C103120F545AC103120F547D
:101BE300E4C103120F543AC203120F547EC203120C
:101BF3000F54E5C203120F545BC403120F5489C57B
:101C030003120F5402C603120F5405C803120F54D4
:101C1300ADC803120F543CC903120F540FCA031269
:101C23000F54EACB03120F548BCD03120F5433CE50
:101C330003120F5445CF03120F54C6DA01120F5487
:101C43003ADB01120F5482DB01120F54C0DB011285
:101C53000F5409DC01120F5453DC01120F548BDCB7
:101C630001120F5409DD01120F5463DD01120F54E9
:101C7300BFDE01120F5450DF01120F54AEDF011209
:101C83000F54C8DF01120F54E9DF01120F54AAF5F4
:101C930001120F54B2E201120F54D1E201120F5498
:101CA300B0E301120F54C8E401120F5445E50112C9
:101CB3000F54B2E501120F541BE601120F54D5E67F
:101CC30001120F5493E801120F5494E901120F54B7
:101CD30019EB01120F5404ED01120F5467EF0112B7
:101CE3000F540DF101120F54DBF101120F5441F2A5
:101CF30001120F5458F201120F5448F301120F54FA
:101D030034F401120F548ED003120F54D9A70412C6
:101D13000F5425A904120F54E2A904120F5446AA22
:101D230004120F54D6A404120F54F1A404120F5436
:101D330035A504120F545BA504120F5481A5041298
:101D43000F5499A504120F54FCA504120F5411A6A5
:101D530004120F5433A704120F543CA704120F5458
:101D630045A704120F544EA704120F546095041292
:101D73000F544E9904120F54539904120F5455994A
:101D830004120F5498B404120F54C9FF02120F54D3
:101D93007AD502120F54ADD502120F5419D602127E
:101DA3000F54B4D602120F5451D702120F5496D7C0
:101DB30002120F54B8D702120F54D1D702120F5484
:101DC300F7D702120F5419D802120F5457D8021220
:101DD3000F549BD802120F54BDD802120F541FD9AF
:101DE30002120F54E6D902120F549DDA02120F5455
:101DF3000FDB02120F54DADB02120F542DDC021236
:101E03000F5493DC02120F54CDDC02120F541FDD6A
:101E130002120F548DDD02120F54F8DD02120F541B
:101E2300FBDD02120F547CDE02120F5413DF021289
:101E33000F5493DF02120F54B2DF02120F5416E154
:101E430002120F5423E102120F542FE202120F5415
:101E53003CE202120F5445E202120F541DE4021237
:101E63000F5437E502120F54B0E502120F5422E665
:101E730002120F5444E602120F54D8E602120F5412
:101E8300ACE802120F5483EC02120F5497EC0212C7
:101E93000F54A7EC02120F54B1EC02120F54BAEC18
:101EA30002120F54C3EC02120F54CDEC02120F5462
:101EB300FAEC02120F5423ED02120F542EED02120C
:101EC3000F5452ED02120F5476ED02120F54E0ED4F
:101ED30002120F5426EE02120F5443EE02120F5455
:101EE300C0EE02120F54F7EE02120F5436EF021235
:101EF3000F5483EF02120F5409F002120F54D7F15B
:101F030002120F545AF202120F543EF302120F54EC
:101F1300A5F502120F54FEF502120F5448F60212F1
:101F23000F54A3F702120F54D8F702120F542AF8D2
:101F330002120F54DFF802120F548EF902120F54DB
:101F4300CBF902120F5460FA02120F54CCFA0212A8
:101F53000F54C88101120F54FA8101120F542882C1
:101F630001120F54FE8301120F54DE8401120F5429
:101F7300368501120F54718601120F54BD8601126A
:101F83000F54E68901120F54D98C01120F54298E74
:101F930001120F54BF8E01120F54CB8E01120F5436
:101FA300FD8E01120F54809001120F548E91011275
:101FB3000F54B89101120F541F9201120F547892CB
:101FC30001120F54DE9201120F54F59401120F54B3
:101FD300849601120F544E9701120F5494980112D4
:101FE3000F54E49A01120F54B49D01120F54C19D72
:101FF30001120F54489E01120F54DC9E01120F541C
:102003001F9F01120F54A59F01120F54C29F01126B
:102013000F54F29F01120F5427A001120F54F7A07F
:1020230001120F54A0A101120F5426A401120F5440
:1020330046A501120F5431A601120F54B3A6011283
:102043000F54EAAA01120F5427AB01120F547FABAE
:1020530001120F54B2AB01120F541CAC01120F54F6
:1020630052AC01120F54DDAC01120F5435AD011205
:102073000F540CAE01120F54C5AE01120F5460AFD2
:1020830001120F5468B201120F5484B301120F549A
:1020930027B701120F541BB801120F541EB80112B7
:1020A3000F544DB801120F5453BA01120F542CBBE5
:1020B30001120F546FBB01120F54C5BC01120F5410
:1020C30004BD01120F5496BD01120F54CABD011273
:1020D3000F548FBE01120F54A7C001120F5418C121
:1020E30001120F5458C101120F54E6C101120F54CB
:1020F3000EC301120F54D0C301120F54D7C50112DE
:102103000F54EFC501120F5403C601120F543BC6FF
:1021130001120F5469C601120F54E8C701120F547C
:102123000DC901120F5471C901120F5423CA0112B0
:102133000F5453CA01120F541ACB01120F54B2CBCE
:1021430001120F54D8CD01120F540DCE01120F54AA
:1021530070CE01120F549FCF01120F5447D00112BA
:102163000F5478D001120F5490D001120F541FD185
:1021730001120F54D3D301120F54ABD501120F54D4
:10218300C7D501120F54E3D501120F54B1D6011272
:102193000F54A4DA01120F54E12D00120F54132E21
:1021A30000120F54023200120F544E3200120F5419
:1021B300943200120F54363300120F54923300122C
:1021C3000F54D73300120F541E3500120F543236FA
:1021D30000120F54213A00120F54A53A00120F5463
:1021E300B23B00120F540E3C00120F54FE3D00127E
:1021F3000F54733E00120F547D3E00120F548A3E5B
:1022030000120F54B53E00120F549C3F00120F549E
:10221300464000120F54C44000120F54E440001211
:102223000F540D4100120F542F4100120F548F43CE
:1022330000120F54554400120F549A4400120F54C5
:10224300174500120F54C84500120F54FA450012E7
:102253000F54404600120F547C4600120F54CC46D4
:1022630000120F54204700120F54764700120F54E8
:10227300C24700120F542F4800120F54AA480012ED
:102283000F54754A00120F54754B00120F549A4C99
:1022930000120F54D94F00120F54EC5200120F5476
:1022A300A95300120F54ED5300120F549D55001201
:1022B3000F54B15500120F54BB5500120F54C5559E
:1022C30000120F54D15500120F54ED5500120F5444
:1022D300985600120F54D75600120F54E1560012AD
:1022E3000F54EB5600120F545B5700120F54A657AE
:1022F30000120F54BB5800120F54175900120F54F9
:10230300985900120F54575A00120F54605B001271
:102313000F54945C00120F54825D00120F549A5DA7
:1023230000120F54F55D00120F54135E00120F5488
:102333005B5E00120F54825E00120F541D5F001289
:102343000F54E35F00120F54756000120F54EF60D7
:1023530000120F54096200120F54B66200120F5498
:10236300DE6300120F542E6400120F5492640012A5
:102373000F54F46400120F54226500120F54466583
:1023830000120F547B6500120F54AC6500120F54FA
:10239300DF6500120F54FF6500120F5467660012C9
:1023A3000F545B6700120F54B66700120F54DF67B8
:1023B30000120F54676800120F54EA6800120F549A
:1023C300156900120F54FA6900120F54E2DD03126B
:1023D3000F541ADE03120F543BDE03120F547DDE3B
:1023E30003120F54DFDE03120F54E9DE03120F54FE
:1023F300F9DE03120F5434DF03120F5414E30312F4
:102403000F5401E503120F54E7E603120F547EE75E
:1024130003120F5420E803120F54248102120F54A5
:10242300A28102120F54FE8102120F54498202123A
:102433000F54648202120F548F8202120F54AC8223
:1024430002120F54B88202120F544F8402120F5417
:10245300688402120F54ED8402120F540085021295
:102463000F541F8502120F54C38502120F54448761
:1024730002120F54F78802120F548D8902120F545F
:10248300908902120F54008A02120F541E8A0212FC
:102493000F54B58A02120F54FD8A02120F54008B97
:1024A30002120F54C68B02120F54338C02120F54B4
:1024B300598C02120F54E48C02120F54028D021233
:1024C3000F54488D02120F54FC8D02120F54468E86
:1024D30002120F54758E02120F54D28E02120F5431
:1024E300078F02120F54338F02120F54418F0212BF
:1024F3000F548E8F02120F54FE8F02120F54479007
:1025030002120F54939002120F54BF9002120F54F1
:10251300CA9002120F54E89002120F54D391021280
:102523000F54DD9102120F54189202120F54289285
:1025330002120F54319202120F54859202120F5459
:10254300999202120F54C89302120F54DF9302128E
:102553000F54F49302120F54829402120F54C7942F
:1025630002120F54539502120F545E9502120F5428
:10257300A09602120F54BB9602120F540797021231
:102583000F54769702120F54AF9702120F54C99744
:1025930002120F540B9802120F54DB9A02120F54BB
:1025A300889B02120F54F59B02120F54359E0212A0
:1025B3000F544D9E02120F54509E02120F545C9EF4
:1025C30002120F54709E02120F54789E02120F547F
:1025D300AB9E02120F54AD9F02120F5434A002128D
:1025E3000F54A4A002120F5426A102120F54E7A104
:1025F30002120F5406A202120F54A7A202120F5482
:1026030004A302120F5407A302120F5434A302129D
:102613000F5449A302120F54BDA302120F540CA569
:1026230002120F5412A602120F549DA602120F5447
:10263300B8A702120F5480A802120F54B1A80212B5
:102643000F54D4A802120F54DDA802120F540CA980
:1026530002120F549CA902120F5452AA02120F54D1
:10266300C7AA02120F546EAB02120F54E3AB02124D
:102673000F541AAC02120F5458AC02120F548EAC02
:1026830002120F543EF501120F54149603120F5405
:102693000A9603120F549D9503120F54F1930312DC
:1026A3000F54AF9303120F54D99203120F54C392D2
:1026B30003120F54849203120F54DE9103120F542A
:1026C300C2FE01120F548AFE01120F54E38E03124D
:1026D3000F54CC8C03120F5433FE01120F54AEFC73
:1026E30001120F54998C03120F54348C03120F549C
:1026F300C78B03120F54868B03120F54BF8A031226
:102703000F545A8A03120F54058A03120F54A889CF
:1027130003120F547F8803120F541C8803120F54A3
:10272300668703120F54618703120F5455870312F0
:102733000F54088403120F54E28303120F54878348
:1027430003120F54328303120F54F38203120F54F4
:10275300E08203120F54EFFB01120F5452FB0112DC
:102763000F5448FB01120F543EFB01120F54D4FACD
:1027730001120F54C0FA01120F541FFA01120F5421
:10278300D58203120F54B18203120F54EC8003124B
:102793000F5429F901120F546B8003120F54278031
:1027A30003120F54008003120F54A7B604120F54E0
:1027B3005AF801120F540BB604120F54A1F401126C
:1027C3000F5490F303120F5437F303120F54F9F21B
:1027D30003120F54CCF203120F5498F203120F5446
:1027E30037F203120F541FF203120F54EFF10312C7
:1027F3000F54C4EE03120F5497EC03120F549EEAC6
:1028030003120F5424EA03120F54D3E903120F5493
:102813008DE903120F5457F601120F54F7E8031210
:102823000F5441E00100000080FBE4738F000100BE
:10283300FD1587000100FB1535000400C4152500B4
:102843000200C81526000200CA1527000200CC1595
:1028530028000100D61529000100D71584000400C3
:1028630030138600010052152A000100D8152B00F1
:102873000100D9152C000100DD152D0008003C13C3
:102883002E000100DE152F000100DF1530000100CE
:10289300E01531000100E11532000100441333005B
:1028A3000100451334000100E21536000100461310
:1028B30038000100E31539000100DC158300020034
:1028C300F91563000100521364000100DA15650075
:1028D3000100DB156D000100531371000800341370
:1028E30066000100F81543000100E91544000200E9
:1028F300EA1545000100EC1546000200ED154700FE
:1029030008004A1348000100EF154B000100F015C1
:1029130004000100FC15A1000100001637000100AE
:10292300FF1588000100FE153C00010047133D0020
:102933000100E41549000200F1156700010054137A
:102943004D000200F3154E000100F5154F00020083
:10295300F6153E000100E81551000100481352002E
:102963000100E61553000100E71554000100491367
:1029730000000000000000013636010100010201E1
:10298300000103010001040106060502000007011E
:1029930000340801000F090401010D0100FF0E08B6
:1029A300000017020000190100FF1A0100011B01BA
:1029B30000FE1C0100081D0200001F010001200190
:1029C3000001210200002301000F24020000260160
:1029D300000127010008280200FF2A0100072B013C
:1029E30002402C0100002D0100012E0100012F01E6
:1029F30000FF30010B1D310800003A0100083B01C4
:102A0300000F3C0100013D0100FF3E0400004204B1
:102A13000000460400004A0400004E040000520473
:102A23000000560400005A0400000103710301036F
:102A33000103010301030103220302030103100342
:102A43000003000300030003000300030003420329
:102A530000032403060300030003040312032503F6
:102A630023032503230304030403000300030003D8
:102A7300440300030003230300036503210035031C
:102A83008103000305030003000300030003250380
:102A9300230303027102300160021102700201027A
:102AA300020202028002100261023A004100630244
:102AB3007302720262024302000213023800000230
:102AC30000020402120200020002000200020402D9
:102AD3000402370037003C024402000239000002BE
:102AE3000002650200023502810200020502820231
:102AF30083020002010171010101010111010101C0
:102B03003101010101018001100161013B00140049
:102B130063017301720162014301000113010601A4
:102B23003D01350004011201000100010001000113
:102B330004010401330133013C0144013201360035
:102B4300000100016501000135008101000105015B
:102B53008201830100010300710030016000110054
:102B63007000310220035004800010006100000057
:102B7300140063007300720062004300000013003E
:102B83000600000000000400120000000000000026
:102B9300000004000400370037003C02440000003A
:102BA3000000000000006500000035008100000007
:102BB300050000008300000036000100060000004D
:102BC3000F0000000000000000000000000003FFF1
:102BD300FF00000403FFFF0000FFFF0FF4010005E7
:102BE300C4040320000100000B00000000000000EB
:102BF3000003010F000000000000000000000000BF
:102C030000000000000000000000000000000000C1
:102C13000000000000008E19B8199419DA189A19E7
:102C2300BE199A19CA19A019DA189A19BE19A61940
:102C3300DA1800000000AC19DA18000000000000E8
:102C43000000B219DA1800000000000000000000C4
:102C53000000000000000000000000000000000071
:102C63000000000000000000000000000000000061
:102C73000000000004004201D6800000050042016C
:102C8300CA80000007003001C78100001200100352
:102C930089150100210020052712030000002103EC
:102CA30028120300FDFF2181C481060000001001EA
:102CB3002A120600FDFF2181C4810000F21B0100DE
:102CC300F21B0200681B0280621B03006E1B0400E0
:102CD300741B04807A1B0500801B06008C1B3100CB
:102CE3009E1B3300A41B3400AA1BFFFF000007EC4C
:102CF300FDFDFDECDCDCCCBCACAC9C9C8C7C7C6C2E
:102D03006C5C5C5C4C4C3C3C2C2C1C1C03EAF5E5D9
:102D1300D5D5C5B5A5959585857575656555554510
:102D230045353525251515050A102202DA2105E654
:102D33002107E0210CC2210DCE21FF000000160F58
:102D430000000B150B020002220F3300000E0F5A76
:102D53006967426565416C6C69616E63653039D042
:102D6300D1D2D3D4D5D6D7D8D9DADBDCDDDEDF3088
:102D73003016181920231A1C1E3000034D4C4651DF
:102D8300181A250502000119161816161823030030
:102D9300303017181921301B1D1F30003C40423AB8
:102DA3003F3F392F47300C0E020B040B0A07080074
:102DB3000F020402010101010902E803000000BE41
:102DC300040A01000E000300E80304090903101EAE
:102DD300030A0C04040828020C0508151E0474F7E2
:102DE300120AA7E9901429F09013DEE4F01216BE3C
:102DF300901441E4F0A3F090142AF0A3F01223609E
:102E03001216C4901362E4F0A3F0121D5402474754
:102E130074F0120AA774D312103A1261A35480609B
:102E230066901429E0F91217368A088B09AF09EA6C
:102E33004F604C7C0080010CEC75F003A4F8A9F002
:102E4300742B28F582742D39F583E493F46029E417
:102E530093F88A828B83E06870DDEC75F003A4F845
:102E6300742C28F582742D39F583E493C0E0740142
:102E730093F583D08212282DAA08EFFB1217241290
:102E830068D564800231E2851882851983A3E054F2
:102E930020601F1222768A088B09AF09EA4F600A65
:102EA3001221CEAA08EFFB1217241268D564200260
:102EB30031E2851882851983E0A2E050429013E342
:102EC300E0640F702E90078F1268E090078FC3E0C5
:102ED30094E9A3E09403400A7A007B809012541291
:102EE300482979001221A4E960099015C412124AF5
:102EF3001221BC851882851983E064010231C7540D
:102F03002070030231CC7A207B00901429E0F9125F
:102F1300188CEA4B4C4D701A90143D121262E8491A
:102F23004A4B700E750801750900750A00750B0090
:102F3300806D750C00750D00750E00750F0012186D
:102F43009E8A088B098C0A8D0B90143D121262E83D
:102F5300494A4B603190143D7808120F0D400E75AD
:102F63000CFF750DFF750EFF750F7F801985080C1B
:102F730085090D8C0E8D0F90143D780C1210227460
:102F830001780C120FF1850C08850D09850E0A8551
:102F93000F0BE5084509450A450B70030231267CF2
:102FA3000079047A007B0012224C8A0C8B0DAE0C44
:102FB300AF0D02306A740212128574FFF0740312AB
:102FC300128574FFF0740412128574FF12489C1268
:102FD300605D740712101A126313E96401706A12B8
:102FE30031EE4480F8A3E0F97428121285E8F0A3C7
:102FF300E91265A7E0C0E0742A121285D0E01248F6
:1030030089540860167428121285A3E04401123112
:10301300FBC0E0742C121285D0E0F01261E660115F
:10302300E8240B1239E1F87416121285E8F0A3E4D0
:10303300F090815C120DF8740612101A740B1210C2
:1030430012121E807404120F868E828F83A3A3A391
:10305300A3A3A3A3A3A374061231FBF912222E7414
:103063000512128512636AEE4F70030231267C004B
:103073007904EEFAEFFB12224C7405121285EAF082
:10308300A3EB1245B3E0F50CA3E0F50DE4F50EF563
:103093000F7808790C1211D24023EE2404F8E43F90
:1030A300F985080C85090D8882F583C3E0950CF03A
:1030B300A3E0950D1269CAE84970A4800C8E828F33
:1030C30083A3A3A3A3E4F0A3F08E828F83A3A3A37C
:1030D300A3A3A3A3A3A3A3E064018E828F83A3A3CB
:1030E300A3A3A3A37020E054046003022FB88E822D
:1030F3008F83A3A3A3A3A3A3A3A3A37406F07AB765
:10310300123321023062A3A3A3A3E06003022FB80A
:103113008E828F83A3A3A3A3A3A3A3A3A37401F06A
:1031230002306212221C7C0079017A007B00122299
:103133004CEA4B60031248227C0079047A007B003E
:1031430012224CEA4B701380448A828B83A3A3A37D
:10315300A3126382EE98EF99400B8A828B83A3A319
:10316300A3A312636A7C00790412224C8B0BA90B74
:10317300EA4970D5C3E5089EE5099F500DC3EE9556
:1031830008FEEF9509FFEE4F700D12482290143D93
:103193001231F4A3F08024EE2EFEEF338E08F509EE
:1031A300E4F50AF50B7808120FA17A201233CA123C
:1031B3000F8612189E90143D121256851882851997
:1031C30083E06420FAA3E08016A3E05404601312A2
:1031D3005A3A1227447901123BA81268D56404FBBA
:1031E30080047A007B00742D0261C2EE1261D0E08C
:1031F30022E4F0A3F0A3F02212488EA3A3E022C09E
:1032030082C08374EA12103A7C167D007900AA18F2
:10321300AB1912170C74081212857402F09013D2B2
:10322300125C761232427409121285125C8E741388
:10323300121285E412590D121D487416024B58E8F8
:10324300F0A3E9F09013DC1263522274F7120AA779
:1032530074DA12103AEAFEEBFFEA4F602DAC18ADB8
:10326300191222947406121285E0601E741712124A
:1032730085E0FD7401121285E0FCEEFAEFFB7900A4
:1032830012217AE9600479A4800279007426024746
:103293004474F7120AA7EAFEEBFF8A82F583A3A31D
:1032A300A3A3A3A3E0544060178A828B8312618394
:1032B300124A6760067AFF7BFF801512617F8003E5
:1032C3009013D212605D74FE6A700374FF6B6041E9
:1032D30012617F1261A912232AE98E828F83600B08
:1032E300125D6C126995E4F0A38003126984F07C8B
:1032F300AA7D218E828F831240DDE9F5087015EED9
:103303004F60097901EEFAEFFB122228A908024760
:10331300477508CDAA08123321E960E380EE8E8257
:103323008F83125D70240CF582E438F583E0F91283
:1033330021B62274F6120AA7E9FEEAFF7A0F7B0090
:1033430012171EEA4B601A8A828B83740CF0EEA369
:10335300A3F0EF8A828B8312450212596B790080A6
:103363002BEEF91222528B09A909EA49601C8A82C1
:103373008B83A3A3A3A3A3A3A3A3A3740612450BA5
:10338300E0F9121F22EEF912222E79100257567419
:10339300F4120AA78A088B098C0A8D0B9013E3E0B9
:1033A300640F701EEA4B4C4D60189013DEE0640806
:1033B3006005E06404700B7808120FA11233C81281
:1033C3000F8602362D7A017B00901429E0F912183A
:1033D3007A74042274F4120AA774FC12103AEAFEF7
:1033E300EBFF8A82F583A3A3E0F91222528A088BAA
:1033F30009EA4B70030235108E828F83A3A882A93A
:1034030083E0C0E0EA125961D0E012437164F160D5
:10341300288E828F83A3E064CD601E8E828F83A368
:10342300E0641A60148E828F83A3E064E9600A8EDD
:10343300828F83A3E064E170337900122228E9606C
:103443002BE5082404F50AE43509F50B8508828584
:103453000983A3A3A3A3A3A312444712434F1216A2
:10346300D0850A82850B831261A980708E828F8337
:10347300A3E0C0E07402121285D0E0124B66124C36
:1034830089123DF7C0E07403121285D0E0F0E5081D
:10349300126652123AA0E0AA18AB197005121E7AEE
:1034A30080031223127402121285E064E9702D85E1
:1034B3000882850983123C06750A01780A120FAD4A
:1034C300750AE9780A120FAD124323123DC4FCA317
:1034D300E0FD8A828B83123DEE120F86850882857A
:1034E3000983A3A3A3A3A3A3A3A3A3E064027012CA
:1034F300850882850983A3A3A3A3A3A3A3A3A3747A
:1035030006F08E828F83A3A3E0F912222E12221CCF
:103513009015CA123A12740402362A74F4120AA7D6
:10352300EAFEEBFF7508008A82F583A3A3A3A3A396
:10353300E0603875080812605079FF121FFAEA4BF1
:10354300601075082C8E828F83A3A3A3A3A3E0D25C
:10355300E0F08E828F83A3A3A3A3A3E054036401AB
:103563006003023619430811023619EA2418124F70
:103573004F6036EA241A124F4F6003F4701312633C
:10358300327003A3E069600302361975082202361C
:1035930019EA241B12361D241A124F4FFAEE24196E
:1035A300124F4FF9121F10806D8A828B83A3A3A33E
:1035B300A3A3A3A3A3A31239FD70037508018E82ED
:1035C3008F831263367003A3E0697006E508D2E1C6
:1035D300F508E50860158E828F83A3A3E07006E5E6
:1035E30008D2E58004E508D2E6F508124A5A6401D8
:1035F3007006E508D2E0F5088E828F83A3A3E0600E
:1036030015EE241D12526EF9122318E964016006A7
:10361300E508C2E0F508A9088010F582E43FF583C8
:103623001269EDEA227409120F867F04020D2D74CC
:10363300F0120AA774D712103AEAFEEBFF8A82F55A
:1036430083A3A3A3A3E0600E9015C81261ED6006E7
:103653009015C8123A12740312101A8E828F83A324
:10366300A3A3125B3912605B122294E97003023741
:10367300C378017405121285E0C3940240027800F6
:103683007407121285E0C3940240027800740C128E
:103693001285E064F87003A3E0F470030237C37487
:1036A3000C121285E064F97003A3E0F4700302378F
:1036B300C3740C121285E064FA7003A3E0F4700380
:1036C3000237C3740C121285E064FB7003A3E0F4A9
:1036D30070030237C37406121285E0F99013CCE02D
:1036E3006960030237C3E8A2E040030237C37427CB
:1036F300121285E060030237C3EE24131263487489
:1037030022121285125B43241C1263487410121296
:1037130085125C8E7409121285E0601D741A1212F0
:1037230085E0FD7404121285E0FC8E828F831260A3
:103733005B790112217AE9703B7403121012122192
:10374300C8E9F50C7409121285E0702C9013C6E0D9
:1037530060267422596422601F74425964427014B3
:1037630074201212851239F7600E7420121285121A
:1037730039F060047ACF804AE9A2E6504D742012F2
:10378300128512527424FD600F14600C24FD60082E
:1037930024FD600424FE702874201212851239E976
:1037A300700E742012128512589AA3E0640D601AE9
:1037B3007403121012122342E96401700D0239D905
:1037C3007AD37B00121B3E0239D9EE242DF582E415
:1037D3003FF583123BFD7003A3E069701D7508007C
:1037E3007808120FAD7808120FADEE242F124F4F49
:1037F300F9123A03123DEE120F867409121285E094
:1038030070030238A1123A0312605D1223908A0EEC
:103813008B0FEA4B70030239327404121285E0F8FD
:103823008E828F83A3A3E028F8A3E03400F9E82471
:103833000D1239E1F88A828B83A3A3A3E068600E9B
:10384300E88A828B83A3A3A31244FB1231F5790484
:10385300E9121285124F6EA3E02AF8A3E034008820
:1038630082F583A3AA82AB831217128A088B098C71
:103873000A8D0B850E82850F83A3A3A3A378081259
:103883000F0D40030239D990812C78081211558508
:103893000E82850F83A3A31269F3A3124C92901394
:1038A300DEE064046008E0640960030239D9E50CD2
:1038B300A2E5400302396CEE242F124F57F0EE2499
:1038C30030124F4FC0E07401121285D0E0F0EE24A5
:1038D30031124F4FC0E07402121285D0E0F074141D
:1038E300121285E064017026740E12128512434A87
:1038F3002413124F4F687003A3E0697011740C1204
:1039030012851239FD70077414121285E4F0EE2447
:1039130025F582E43FF583120DF8740412101A742E
:1039230007121012121E807404120F860239D990E6
:103933001423E0640160030238A17420121285127B
:1039430039F77009E50CA2E650030238A17410128E
:103953001285E0F47003A3E0F4607BEEFCEFFD74EA
:10396300031210121221D4806DA2E6506974201242
:103973001285125D7C7016741A121285E06402704F
:10398300557403121012790012230C80497420120B
:1039930012851239F07014741A121285E0640470DF
:1039A300357403121012122300802B742012128517
:1039B3001239E9700C7900740312101212234E802D
:1039C30015742012128512589AE0640C700874035F
:1039D30012101212235A74290261C2E82406F582D6
:1039E300E439F583E022126189E0640322126189DC
:1039F300E0640722125278640622124A6B640222A0
:103A0300EE242BF582E43F1269EBEE124A4022E0EA
:103A1300F508A3E0AA08FBE4FCFD1221BC2274F420
:103A2300120AA7EAFEEBFF8C088D09901344E060AD
:103A33000F1263327003A3E0697005121EFE8053F8
:103A43007900126050121F2E8A828B83E582458390
:103A5300602CA3A3A3A3A3A3E054186021E5082427
:103A63001C123A9D120DFC123A99120DFCEE241809
:103A7300123DD512553512630A120F86801579004F
:103A83008E828F83A3A3A3125D6212553512605DEC
:103A9300121F0402362DE5082413F582E43509F5D7
:103AA300832274F7120AA774F712103AEAFEEBFFA7
:103AB3009013DEE06403600DE064016008E06409D4
:103AC3006003023BA38A828B83A3E06003023B7102
:103AD3007C007D007A027B001216CA1263AF8A82D1
:103AE30012634C9013CF125C8E7953121D369013D0
:103AF300DEE0640960099013DC12605D12238A859D
:103B0300188285198374011258B29013DE7404F07D
:103B13007401121012794A121D30740112101A7AAC
:103B2300D47B131218B6901257E0640B7005740619
:103B3300F080057900123BA89013CF125D687A03D9
:103B43007B001216CA9013D2125D687A047B0012AE
:103B530016CA9013C9E0A2E35004D2F08002C2F067
:103B630012589F9015C412124A1221BC802FFC7D5B
:103B7300007A037B101216CA901257E0640B70038D
:103B8300740AF0901348E4F0FA7B4012568F8E8249
:103B93008F83A3E0F9123BA89013DEE4F01221FE19
:103BA30074090247449013DC126061121E9222C012
:103BB30082C0839013621261ED70179013DEE024CC
:103BC300FB6005146007800A901368801F90136AD6
:103BD300801AE84960071239DE6401700C8A828B0F
:103BE30083A3E0F9121E86800E9014581261ED60D3
:103BF3000612589B12282D0253E61263529013DCCF
:103C0300E06822126352E8FAE9FB2274F5120AA76C
:103C130074D812103A8A088B098A828B83A3A3A3D0
:103C2300A3A3A3A3A3E0C3940F5003023DBF8A82BF
:103C33008B83A3A3A312636A741512101A8A828B4F
:103C430083A3A3A3A3A3A3A3A3123DC4FAA3E0FB4B
:103C530012220A7415121285E0702E8508828509D6
:103C630083A3A3A3A3A3A3A3A3E0C3940B401A8E8C
:103C7300828F83A3A3A3A3A3A3A3A3E064027009D6
:103C8300EE240B124F4FF46003023DBF7417121260
:103C930085E0600764026003023DBF9013DEE064C9
:103CA30002601CE0640660179013621261ED7003FA
:103CB300023DBF1239DE64016003023DBF802590DF
:103CC30013621261ED701D7508007808120FAD784C
:103CD30008120FADEE2410123DD58E828F83123D54
:103CE300EE120F868E828F831269C212437A126399
:103CF3004E7402121285125B431231EFC0E074045A
:103D0300121285D0E0123DF7F508A3E0F509740F10
:103D130078081212107405121285E508F07419124E
:103D23001285E0C0E07406121285D0E0F0741B1215
:103D33001285E0C0E07407121285D0E0F074161209
:103D43001285E0C0E07409121285D0E0F0741712F6
:103D53001285E0C0E07408121285D0E0F0EE241062
:103D6300124F4FC0E0740A121285D0E0F0741A1299
:103D73001285E0C0E0740B121285D0E0F0742712B4
:103D83001285E0C0E0740C121285D0E0F0741C12AE
:103D93001285A982AA8389088A09750A00780812FC
:103DA3000FA57C087D007410121285AA82AB8312C2
:103DB3004F46120F86AA18AB19121E8C742802489C
:103DC300A2E0F98A828B83A3A3A3A3A3A3A3A3A3A0
:103DD300E022F582E43FF583E0F98E828F83A3A38B
:103DE300A3A3A3A3A3A3A31269ED221260611222CA
:103DF300CA740222F0EE12553AE02274F2120AA7B4
:103E030074F812103A8A0A8B0B8C0C8D0D8908906A
:103E13008101AC18AD197408120ECDC200AC0AAD05
:103E23000BAA18AB19125FDE7002D20090142A801D
:103E330013AC0AAD0BEE240BFAE43FFB125FDE700A
:103E43001B124A311246C4601EA20040E48E828FC8
:103E530083E0650C7004A3E0650D70E58E828F83AB
:103E6300A3A3E0650870DAEEFAEFFB740802438758
:103E7300C082C08390142A0253E3C082C08390148B
:103E83002AE4F0A30240D974F7120AA790142A1265
:103E930068DB800FEA2414F582E41263671217BA11
:103EA300EEFAEFFBEA4B70EC90142AE4F0A3F00275
:103EB300474774F2120AA78A0C8B0DEDFF890B8A10
:103EC300828B83E08C828D83F0A3A882A9838A826C
:103ED3008B83123F7E1244F5E0C454F0FA88828942
:103EE30083E04AF0EC2402F8E43FF9850C828B83EB
:103EF300A3A3123F7E123F91E0333354FC123F855C
:103F0300E033333354F8123F85A3E0A2E0E43313E4
:103F130013FA88828983E04AF0EC2403FE50010FF0
:103F2300E50C2407F508E4350DF509750A00780852
:103F3300120FA57C087D00EEFAEF124F45120F8693
:103F4300EE2408FE50010FE50C240FF508E4350DAF
:103F5300F5097808120FA57C037D00EEFAEF124FE6
:103F630045120F86E50BC3940F400DE50C2412F5A3
:103F730082E4350D125549F002438AA3E088828911
:103F83008322FA88828983E04A123F91A322F08533
:103F93000C828B83A3A3A3A32274F2120AA7EBFFC1
:103FA3008C0C8D0D8A82F583E08C828D831269AC33
:103FB300A3A882A983E012538E124370C4125388BC
:103FC300F0EA1269B612539512436EA2E2E4338CFF
:103FD300828D8312436D131313541F12538EA31236
:103FE300436DA2E7E4338C828D83A3A3A3A3A3A38E
:103FF300F0EA2403FE50010FF5088F09750A0078D3
:1040030008120FA57C087D00E50C2407124F41120E
:104013000F86EE2408FE50010FF5088F0978081269
:104023000FA57C037D00E50C240F124F41120F8670
:104033008E828F83A3A3A3E0C0E01269D2D0E0F005
:1040430002438A74F6120AA7EAFEEBFF8A82F5831B
:10405300A3858208858309E0F9121EAA8508828553
:104063000983E064EB601E8E828F83A3E064E160CA
:10407300148E828F83A3E064F1600A8E828F83A300
:10408300E0641A70078E828F83A3E4F09015C41244
:10409300124A1221BC7508017808120FAD8E828F67
:1040A30083A3E0F5087808120FAD79009013DC12B2
:1040B3005D689013D2123DEE120F8612221C025736
:1040C30056C082C083E990143C7003E480027401FB
:1040D3008004EAF0A3EBF00253E6126061121D4E76
:1040E3002274F6120AA790143CE0701B7C0079013D
:1040F3007A007B0012224CEA4B600C8A828B83127B
:1041030061ED60031221B0025756C082C08312458D
:10411300A4401079FF122246E9F8902DDBE493C303
:104123009850047901800279000253E674F2120A6E
:10413300A78A0A8B0B8909C2008A828B83A3A3A354
:10414300A3A3A3A3A3E0F91222528A0C8B0DAE0CF6
:10415300AF0D750801EA4F6003024210850A82859C
:104163000B83125D62850A82850B83A3A3A3A3A39A
:10417300A3A312434F12223A8A0C8B0DAE0CAF0D40
:10418300EA4F700302431C8A828B83A3A3A3A3E495
:10419300F0A3F0E50A240CFAE4350BFB8A82F583DD
:1041A300E0C0E0124323D0E0F0E50A240D124343BC
:1041B300240D125C88122330124A491261A9E50AC0
:1041C30024111243432411125C88E50A2413126359
:1041D30079C0E0124A3BD0E0F0D200EE2406F8E4C6
:1041E3003FF9124336124371540460030242829032
:1041F30015D6E0F50A750B007407780A12111C8EA8
:10420300828F83A3A3A3A3A3A312432DF08E828F34
:1042130083A3A3A3A3A3A3E0F50AA3E0F50B740769
:10422300780A121210E50A5407FCE50960618E82D0
:104233008F83A3A3A3A3A3A3A3A3A3740212489C42
:10424300124639600B9013CA124FCFA3A3125C8E90
:10425300EC70030242F3EE2406F8E43FF9E8FAE9CE
:10426300124336F0EC24FFF50AE434FFF50B740730
:10427300780A12111C8A82898312432DF080718E71
:10428300828F83A3A3A3A3A3A3E0448002420FECE2
:10429300700575080080598E828F83A3A3A3A3A3FF
:1042A300A3E05420600C121718EA547F7900245FAE
:1042B30080198E828F83A3A3A3A3A3A3E0541060CA
:1042C3001A121718EA540F7900240A5001098E8232
:1042D3008F83A3A3A3A3F0A3E9800D8E828F83A36F
:1042E300A3A3A37401F0A3E412437A74041245BA9E
:1042F300A20050288E828F83A3A3A3A3126067F921
:10430300EEFAEFFB122240E960121261E66003123B
:10431300435CEEFAEFFB1217BA750800A908806731
:10432300EE240CF582E43FF58322E0450AF0A3E096
:10433300450B228882F583E0547FF0A3E054FC22EE
:10434300F582E4350BF583126352EE22A3E0F9857F
:104353000A82850B83126061221243631247B922DA
:10436300EE240FF582E43FF58322A3A3A3A3124314
:104373007522126395E02212437E22124892A3A370
:10438300A3227403120F867F06020D2D74F4120A02
:10439300A774F712103A7E00122252EA4B700302FE
:1043A30044428A828B83A3A3A3A3A3A3A3A3A3E0CF
:1043B300640660030244428A828B83A3A3A3A3A35C
:1043C300A3A3E0FF8A828B83126974E0C0E07408C0
:1043D300121285D0E012476A125C7B125C8E1222A5
:1043E30064EF54086057851882851983125D687AD3
:1043F300007B00122234EA4B70431269DD7C007D9E
:10440300007A007B0080228E828F83125274F470B4
:1044130003A3E0F460279013DC12444712474C6077
:104423001C7C007D00EEFAEFFB1222348A0A8B0B10
:10443300AE0AAF0BEE4F70CF7900121D667E01EE10
:10444300F902362812444B22E0FCA3E0FD8E828F52
:104453008322C082C0838A828B83E582458370096D
:1044630090144180068A828B83A3A312466D602039
:104473008A828B83A3A3A3A3A3A3A3E0540860E529
:10448300EC4D60101246737003A3E06D70D7800487
:104493007A007B000253E674F2120AA78A088B099A
:1044A300890AECFEEDFF7A147B001217B4EA4B6025
:1044B300378A828B83A3A3A3A3A3A3A3A3A3E412F7
:1044C300450BE50A124756EEF0A3EF1244FB1247E1
:1044D300711245028A828B831269F51244EE1260CF
:1044E300E4A31244F5F0A3F002438AEA240FF58211
:1044F300E4221269B0A3A32212475CE4F0A322A32F
:10450300F012696D1260E42212450F22124760A374
:10451300A3A3A32274F5120AA7EAFEEBFF890A8C70
:10452300088D09EA4F6075740169701279011222CE
:1045330046E9F8902DDDE493C3985015800A74047E
:104543006970091245A45009791180527402697087
:104553004B8E828F83A3A3A3A3A3A3A3A3A3E50A41
:104563001245B3124C8912626EA3E4F0A3F09014C7
:10457300411261ED6018800312634E88828983A320
:10458300A312466D88828983A3A370EC80039014E1
:1045930041EEF0A3EF1245BA7900800279C10248D7
:1045A300A57904122246E9F8902DDCE493C39822FE
:1045B300126272A3A3A322F07A207B00901429E055
:1045C300F912176022C082C083E9F8790090144180
:1045D300801D8A828B83A3A3A3A3A3A3A3A3A3E086
:1045E30068600574FF687001098A828B83A3A31234
:1045F300466D70DE0253E674F7120AA7EA4B7005A4
:1046030090144180068A828B83A3A312466D601F98
:104613008A828B83A3A3A3A3A3A3A3A3A3E0697009
:10462300E4EC600F8A828B8312463970D880047A57
:10463300007B0002474712698DE0540422C082C008
:104643008390144180068A828B83A3A312466D60F4
:10465300128A828B83A3A3A3A3A3A3A3A3E069705A
:10466300E580047A007B000253E6126061EA4B2284
:104673008A828B831252786C2274F2120AA78A0AF6
:104683008B0B8C0C8D0D750800750900EA4B602AA5
:1046930090144180068E828F83A3A31246C4601AAE
:1046A300AC0CAD0DEEFAEFFB850A82850B83122865
:1046B3002DE9640170DF8E088F09AA08AB09024354
:1046C3008AE0FEA3E0FFEE4F2274F7120AA79014CC
:1046D3004112634E7C007D00800DE8FCE9FD888279
:1046E3008983A3A312634EE8496030EA687002EB42
:1046F3006970E790144112605DE86A7002E96B88A3
:10470300828983A3A3700812634E90144180091217
:10471300634E8C828D83A3A3125C8E802774F71261
:104723000AA7EAFEEBFFEA4F601512225E1247A5C5
:104733001261E6600312435CEEFAEFFB1217BA80D4
:1047430003120F867F01020D2D126061121D5AE9BB
:10475300641A2212475CA3A32212476022F08A82C2
:104763008B83A3A3A3A3221269B01252782212450A
:104773000FA32274F6120AA790144112636A8014DD
:104783001263871247A512435CEEFAEFFB1217BAC6
:10479300AE08AF09EE4F70E8901441E4F0A3F002C5
:1047A30057568E828F83126961F5831247B98E82C1
:1047B3008F831247B922E0FAA3E0FB1217BA22C093
:1047C30082C083EAFCEBFDEA4D6017EA24FBF58225
:1047D300EB34FF1261EB7007124817E0F460071225
:1047E30017247905802B901429E0C0E0124817D0D4
:1047F300E0F0902DD4E493F97A437B1412175AE92D
:104803006401700B7A007B201248267900800279BC
:10481300040253E6EA24FFF582EB34FFF583227AA0
:10482300207B00901429E0F91217602274F4120A15
:10483300A7A2AFE433F508C2AF9014431246C46095
:1048430038EE24FBF582EF34FF1261EB7A007B2014
:1048530090142960051248298005E0F9121766E4CF
:10486300F50AF50B780A120FA9EEFCEFFD7A437BEC
:10487300141217547402120F86E508A2E092AFEEE9
:10488300FAEFFB02362D12488EE0221248922212D2
:10489300489CA3A3A3A3A3A322F08E828F832212F7
:1048A3000F867F03020D2D74F2120AA774FA1210F9
:1048B3003AEAFEEBFF7508FE7509FF122222E96052
:1048C300057911024A2C124F4C603C9015F0E0C45C
:1048D3003354E0F8E0333354FC48C0E0EE12595B44
:1048E3003FF583D0E01263A9FAA3E0FB79FF121F1F
:1048F300FAEA4B60127508FFEE240F124F4F44047F
:10490300F0124F4CD2E0F08E828F83124A6560061C
:10491300EE24121263C1EE2413124F4F700D902D2B
:10492300DFE493C0E0124A3BD0E0F08E828F83E055
:10493300A2E7500454038019EE2414124F4F70124F
:104943009013BBE0C0E0124A31D0E0F09013BBE01B
:1049530004F0EE2411124F4F640170169015DAE043
:10496300600D9013C6E0700A8E828F83E07003128D
:1049730063BE8E828F83E064017013EE240B1252A8
:104983006E64027009EE240F124F4F4440F0AC18CE
:10499300AD19EEFAEFFB12228E8A0A8B0B74FE65B9
:1049A30008700374FFF47003126387EA4B60768E1A
:1049B300828F83E0C0E07401121285D0E0F07404AA
:1049C300121285EEF0A3EFF0EE241E126348740278
:1049D300121285125C8E740112100A880C890D78EC
:1049E3000C120FA9EE2420124A4E120FAD124A499F
:1049F300120DFCEE240E124A4E120FAD9013CF127D
:104A03000DFC7408121285E0F9AC08AD0912228876
:104A13007408120F86E9FE74106E700BAA0AAB0BB2
:104A23001217BA80027E10EEF97406024387EE2451
:104A330014F582E43FF58322EE124A40222413F553
:104A430082E43FF58322EE12436422F582E43FF5CC
:104A530083E0F50C780C228E828F83A3A3A3A3A3F8
:104A6300A3A3A3A3124A6B22E0FAA3E0FB12232A17
:104A7300E922C082C08374D712103A9080927403E3
:104A830012101A7426120ECD8A828B83A3A3A3A3BA
:104A930012634E740E1212851261F312634E740C7C
:104AA300121285124B6E240D124B5EC0E0741A1263
:104AB3001285D0E0F01260EA12634C742012128562
:104AC300124B6E2415124B5EC0E07408121285D08F
:104AD300E0F0EA241CF582E43B12634C74121212D8
:104AE30085124B6E2411124B5EC0E07409121285BD
:104AF300D0E0F0EA2412124B5EC0E0740712128574
:104B0300D0E0F0EA241EF582E43B12634C742412D5
:104B13001285124B6E2420124B5EC0E074261212D3
:104B230085D0E0124B6674FFF0740112128574FF96
:104B3300F0740212128574FFF090815C120DF87408
:104B43000412101A7407121012121E807404120F2A
:104B53008679007429120F860253E6F582E43BF549
:104B630083E022F085188285198322E8F0A3E9F017
:104B7300EA2274F4120AA774EC12103A8A0A8B0B15
:104B83008C088D09E9FF7E107A217B001217B4850A
:104B93001882851983EAF0A3EB1261FDE8497003DB
:104BA300024C827C217D007900851882851983E07F
:104BB300FA12170C9013DC12605D85188285198335
:104BC300125D6C2409F582E438F5831261A974201F
:104BD30012128512634E7411121285E81252DD12FD
:104BE30061AF38F58374021252E012697B740212CA
:104BF30052CA124C891252E0126958EFF074221211
:104C0300128512528BF9A3E0C912665239F583E873
:104C1300124FA0A3E0C9241FF582E439124C90740B
:104C23002312128512605D74061212851261A97433
:104C330008121285E8F07426121285126183C0826D
:104C4300C083740C121285AC82AD83D083D082747E
:104C530005120ECD7425121285E0C0E074131212F2
:104C630085D0E0F07900AA18AB19122228E9640173
:104C730070047E00800985188285198312435FEED4
:104C8300F9741402362AE508F0A3E50922F583E551
:104C93000AF0A3E50BF02274F0120AA774FF1210B6
:104CA3003AEAFEEBFF8C088D098A82F583A3740828
:104CB300F0EA2416124F4F60088A828B83A3741084
:104CC300F0EA2417124F4F60098A828B83A3E024F2
:104CD30008F0EA124F4D60088A828B83A3E004F048
:104CE3008A828B83A3A3A3A3A3A3E060198A828BE5
:104CF30083A3A3A3A3A3A3A3E0C3332402F88A82B9
:104D03008B83A3E028F0EA2411124F576004740E3A
:104D13008001E4F09015E8E0640170168A828B83C9
:104D2300E06401600D901348E06007124F3774018F
:104D33008004124F37E4124FA08A828B83A3E0F8DA
:104D4300EA1231EF28298C828D83F0EA2411124F65
:104D53004F600512557829F0850882850983E0C3E1
:104D630094754009750C00750D00024F2EE0FA7B17
:104D7300001217B48A0C8B0DEA4B7003024F2E8E70
:104D8300828F83E0FA9013CC124F99740278081241
:104D9300111CEA4508FAAB09EE2412124F9374066C
:104DA300780812111CA808EA48FCEBFD124F4C606E
:104DB30004780180027800EE2416FAE43FFBE4C88D
:104DC300F9ED49FDEE2411124F4FF50888097409D6
:104DD300780812111CED4509FD8A828B83124F99C5
:104DE300740B780812111CED4509FDEE2417124FC0
:104DF30093740C780812111CED4509FD8E828F8384
:104E0300A3A3A3A3A3A3124F99740A780812111C96
:104E1300ED4509FDEE2423124F93740D780812110A
:104E23001CED4509F9EC850C82850D83F0E9A3F0AF
:104E3300EE2402124F76124FB5F0EE2404124F7691
:104E4300A3A3124FB5A3A3F0EE2413124F86F0EEE3
:104E53002414124F86A3F0750B088A828B83E060BB
:104E63001512625F125D68E50C2408FAE4350DFB48
:104E73001218B6750B10EE2417124F4F6019125DFE
:104E8300EB125D68A80BE50C28FAE4350DFB12184C
:104E9300B67408250BF50B8E828F83A3A3A3A3A35C
:104EA300A3E0604EEE2407F50EE43FF50F850E8276
:104EB300F583E0C0E0124F65D0E0124FA5E0C0E0FB
:104EC30008124F67D0E0124FA5A31261D9120FA5A4
:104ED300850E82850F83E012523FA80BE50C281242
:104EE3004F41120F86850E82850F83E0C333250B56
:104EF300F50B124F4C6008C0E0124F65D0E0F01282
:104F030055351261D9120FA51231EEFC7D007403E1
:104F1300121285124F6EE0F8E50C28F8E4350DF90E
:104F2300E82AFAE439124F45120F86AA0CAB0D7426
:104F3300010261C2EA2423F582E43FF58322FAE405
:104F4300350DFB121700740322EE2415F582E43F9E
:104F5300F583E022F582E43FF583E0851882851925
:104F63008322A80BE50C2812525222E0FA8E828F7C
:104F730083A322F8E43FF98882F583E0850C8285D8
:104F83000D8322F582E43FF583124FBFA3A3A3222F
:104F9300F582E43FF583E0F5087509002212699E66
:104FA300F922F0050B8E828F83A3A3A3A3A3A3A34C
:104FB300A322A3A3126395A3124FBF22E0850C8201
:104FC300850D83A3A3A322740302362A1263528E90
:104FD300828F83A3A32274F0120AA774FD12103ADE
:104FE3001261A37402121285E9F08C0C8D0D750BFE
:104FF300017C267D007900AA0CAB0D12170C7402FC
:10500300121285E0C3940850030251C8124F7EF078
:10501300AC0CAD0D851882851983125274FA85186C
:105023008285198312589A125571E96003750B0032
:10503300851882851983126183125295E0F9EA85F6
:105043000C82850D83A3A3A3A3A3A3A3A3A3F0A36C
:10505300E91252CAA3A3125295A3A3E0F9E50C12D5
:105063006202EA1252DD125D58C0E0E50C2411120F
:1050730069D6D0E01252E02407F582E438F583E0E4
:10508300C0E01269D2D0E012619674081252C1A333
:10509300E06026851882851983E02408F8A3E034AC
:1050A30000F9E50C2413F582E4350D125C8C850CB4
:1050B30082850D83A3E02408F0850C82850D83A3EC
:1050C300A3A3A3A3A3A3A3E0602A850C82850D83D6
:1050D300A385820E85830F125282F8A3E03400F970
:1050E300E50C12595B350D125C8C850E82850F839E
:1050F300E02408F0125246E4F012525AE4F0A312EC
:105103006196A3A3A3A3E060111252A6850C828526
:105113000D83A3A3A3A3A31252D2E50C125267E0FB
:1051230070030251B41252A6FA125246EA1252D234
:10513300F8851882851983E028FBA3E034008B826D
:10514300F583E0F8E50C241A1269D6E81252D2E886
:10515300C39AE50C5056125262F8902DD5E493C3CE
:105163009850047E0C8006E50C125262FE850C8278
:10517300850D83125281F508A3E03400F509750A01
:10518300007808120FA5EE12523F7A057B09124FE1
:1051930046120F8612525A7405F0A37409F0EEC337
:1051A30033F8850E82850F83E0288004125267E46A
:1051B300F0850C82850D83A3E0F8850C82850D8331
:1051C300E0C398500479008070125281FAA3E0344E
:1051D30000FBE50C1263B81269D91261A9850C8230
:1051E300850D83E0C398C0E0E50C24171269D6D07F
:1051F300E01252C1E06040E50C2417FEE4350DFFD8
:105203008E82F583E024F2F0E50C241DF8E4350DDD
:10521300F98882F583E0240EFAA3E03400FB888248
:1052230089831261A99013C7E0F9122180E9F88EEE
:10523300828F83E0C398F0A90B0261C025E0FCE4F0
:1052430033FD22E50C12524C22241912525222F53C
:1052530082E4350DF58322E50C241B1252522212EF
:10526300524CE02212619012525522F582E43FF52E
:105273008312527822126357F5838882E022A312A5
:1052830052862212528B2822E0F8851882851983D0
:10529300E022A3A3E0FA851882851983126189A30A
:1052A300A3A322850C82850D83A385820E85830F9C
:1052B300125286FAA3E034008A82F583E022126157
:1052C3009AA3A3A3A3A3221252E5F583888222F013
:1052D300850E82850F83E004F022F0A3E91252E5E4
:1052E300C8221269A2F8A3E02274F4120AA78A085A
:1052F3008B09EA125395A3A3F0EA1313543F1253F5
:1053030088A3F0EAC4131312539512539F740978B8
:105313000A12121012537FA3A3A3A3A3A3F0EB12A9
:10532300538112539E740A780A121210E50A54012B
:10533300C0E0EC1261903DF583D0E01253A3740BEF
:10534300780A12121012537F12539C740C780A12AB
:10535300121012537FA312539C740D780A12121069
:10536300E50A5401C0E0EC2424F582E43DF583D042
:10537300E0F0740E7808121210023619E50A54018F
:105383008C828D832212538EA3A322540F8C828D81
:10539300832254038C828D8322A3A3A3A3A3A3A359
:1053A300F08A0A8B0B22C082C08379008A828B83A6
:1053B300A3A3A3A3A3A3E09013C6600EE0701F8A68
:1053C300828B83A3A3E070168012E06011126050F9
:1053D3009013CFE06A7003A3E06B6002790180034E
:1053E30012605DD083D082020F5174F2120AA78A31
:1053F3000A8B0B890CECFEEDFF8A828B83E0FA1299
:105403005571850A82850B83A3A3125565E0F9EADA
:105413008E828F83A3A3A3A3A3A3A3A3A312558ABB
:10542300125565A3A3E0F9125535EA12558AA3A3D1
:10543300E0C0E0EE2411F582E43FF583D0E012559D
:1054430091A3A3A3E0C0E0EE2412F582E43FF58329
:10545300D0E012626E74081245B3A3A3A3E06017F1
:10546300E50A2408F8E4350BF9124A3BE8F0A3E90E
:1054730012626EE02408F08E828F83A3A3A3A3A3FA
:10548300A3A3A3E060188E828F83A3125554EE2446
:1054930015125C88850882850983E02408F08E82D2
:1054A3008F83A3A3A3A3A3E060248E828F83A3850A
:1054B3008208858309E0F8E50A28F582E4350B12B2
:1054C3005549A3A3F0850882850983E004F0EEFA29
:1054D300EFFB1222A0E9F50D70498E828F83A3A3FF
:1054E300A3A3A3A3125543A37014E0F8E50A28FA73
:1054F300E4350BFB12552B1261A9E50C801A1255EA
:1055030054E8240EF8500109EE241D125C8812554C
:1055130078F9E50CC39924F2C398C0E0EE125DE27A
:10552300D0E0F0A90D02438AEE241DF582E43FF595
:105533008322EE12553A22240BF582E43FF58322AF
:10554300E08E828F8322F583E08E828F83A3A3A3D1
:1055530022858208858309E0F8E50A28F8E4350BFB
:10556300F922E0FA850A82850B83A3A3A32212639F
:10557300CA12229A229013C7E0F9122180E9F88512
:105583000882850983E022F0A3E912559122F08570
:105593000A82850B83A3A3A3A322C082C0837A4F6D
:1055A3007B1479E2121D307A4F7B140253E6C082DA
:1055B300C0839013CF0253E3C082C0839013D202FF
:1055C30053E3C082C083794A121D300253E674F656
:1055D300120AA7901457E0FE04F0EEF9122252EAE1
:1055E3004B70F0EE60EDF902575674F2120AA7EA17
:1055F300FEEBFF8C088D09890A122390740E121298
:1056030085E0F9740F121285E0F8EA4B7012E87026
:105613001BA90AAC08AD09EEFAEFFB1223AE8065B5
:10562300E86017E970068A828B83E4F0740168707E
:1056330054E990145A7024E4801EE97048EA240265
:10564300124B5EA80A28F8E4340013E813F070350F
:105653008A828B83A3A37401F0802AE004F090155F
:10566300D7E0F890145AE0C398401AE4F09013D2AC
:10567300E06E7003A3E06F700CEEFAEFFB7901129A
:105683001EA412568B02438A7A017B00901429E0F0
:10569300F91218862274F4120AA78A088B098C0A55
:1056A3008D0B90812C780812106670077A011248CE
:1056B30024801E9015C4780812121FEA4B4C4D60CB
:1056C3000D7808120FA11233C8120F8680031256E9
:1056D3008B02362DC082C0839015C80240D5C0828C
:1056E300C0839015CA0240D574F6120AA77E0075CE
:1056F30008BB7509137808120FA97C6E7D007A2107
:105703007B0012182C7402120F86E9640A70027E61
:1057130001121E02E9640A7004EED2E1FE90044213
:105723001261ED600F12589B12282DE9640A700470
:10573300EED2E3FE12200CE9640A7004EED2E4FE1A
:10574300121CB2E9640A7004EED2E5FEEEF980039E
:10575300120F867F02020D2D74F6120AA71216C4C9
:105763007508BB7509137808120FA975086E7509BA
:10577300007808120FA9125798120F86121E08906C
:1057830004441261ED600612589B12282D12201258
:10579300121CC480BE7C007D007A217B0012183865
:1057A30074042274F6120AA774FF12103A7E00756D
:1057B30008BB7509137808120FA97C6E7D007A2146
:1057C3007B0012182C7402120F86E96003025872D0
:1057D3007808120FA975086E8E097808120FA97C34
:1057E300007D007A217B0012183E7404120F86E9B3
:1057F300707D9013CFE064FE7003A3E0F460707ECD
:10580300019013DEE064086005E06404705C8518B1
:1058130082851983EE1258B27AE67B137943121DFF
:10582300367AE37B137947121D367AD47B13794A90
:1058330012588D7ADC7B137950121D367ACF7B1385
:105843007953121D367AE47B137954121D367AD1BB
:105853007B1379E1121D369013C9E0A2E35004D201
:10586300F08002C2F012589F80051216C47E001207
:105873001DF69004461261ED600612589B12282D06
:1058830012201EEEF97401025753121D367AD27B91
:1058930013794B121D3622A312618A22A2F0E4333C
:1058A3008518828519831259117952121D362212D5
:1058B30059117942121D362274F6120AA7E9FEA283
:1058C300E0501C7508BB7509137808120FA97508F9
:1058D3006E7509007808120FA9125798120F86EEF9
:1058E300A2E35003121DFCEEA2E2500E90044812F4
:1058F30061ED600612589B12282D0257561222049E
:105903007A2C7B147945121D362212591122F0AAE2
:1059130018AB192274F7120AA774ED12103AE9FEB4
:10592300901428F0AC18AD19125943741212128551
:10593300EE125950AA18AB191259007413024744B6
:10594300901606E0F97A2C7B1412220A22F09016A4
:1059530006E0F97C2C7D14222415F582E4221269D9
:105963006E3509F58322EFFB901429E0F912172A0B
:1059730022EE241612597B22F582E43FF58374014B
:10598300F02212696D3FF58312598F22126357F982
:105993008882F5832274F4120AA78A088B097A0095
:1059A3007B0412568F125A3A9013DE7409F0125F79
:1059B300D2123A9912605D125FDE640170677A0F4A
:1059C3007B0012171E8A0A8B0BAF0BEA4F60568AB5
:1059D300828B837402F0E5081263B835091263D62B
:1059E300FC88828983A3A3E0FBEC8A828F83A3A331
:1059F3001261AA88828983A3A3A3E08A828F831278
:105A03005A2BFAA3E0FB794A121D368508828509D1
:105A130083A3A3A3A3A3A3E070069012577405F076
:105A2300AA0A12596902362DA3F0E5082415F58256
:105A3300E43509F583E0229013641263529015CA8A
:105A4300E8F0A3E9F09013661263529015C8E8F0EA
:105A5300A3E9F02274F4120AA774FD12103A8A081B
:105A63008B097401121285740212628F7003025B38
:105A7300321259857404F0A3E4125B4FE0640170A1
:105A83000888828983A37420F0850882850983A30B
:105A9300A3A3A3A3E06401700988828983A3E0D24E
:105AA300E6F0850882850983A3A3A3A3A3A3E064E7
:105AB30001700A88828983A3E0D2E78006EA124A4A
:105AC3003C7401125B4AE0640170208508828509F9
:105AD30083A3A31261ED6004EA12597585088285D8
:105AE3000983A3A312634EEA125C868508828509A3
:105AF30083A3A3A3A3A3A3A3E064017009EA240FD0
:105B0300125977A3E4F0850882850983124A6760F6
:105B130009EE240F124F4F4404F0125B5B85088299
:105B2300850983125B37125B4112639BF98002790B
