:020000040000FA
:06000000020AA70202192A
:03002B000208C404
:0300330002068B37
:0300530002014E59
:03006B0002066525
:100083000201AD0100F0FF0700080000FFFF0000C0
:100093000504000000030001FF0020FD000206FF2D
:1000A300FF1E010100EB1100000089120000000097
:1000B3000000000000000000000010484F4D4520E4
:1000C300202020202020202020202001074E554DD5
:1000D30042455231010401030100027781027B8111
:1000E300010400002612000000E8030000FFFF7770
:1000F300120188130000E803000064006400B801E3
:10010300A0BB0D00A0BB0D00020202070401051EE7
:1001130002051E020A0A010108080103B80B028046
:100123003E0102FEFFE8030A050001FFFF020A0188
:100133001401E005030101FF0FFE2300000000D2BC
:100143002200000000FF000000FF00C0E074F11275
:100153000430A2AFE433F509D2AF85A708AFA1EF0E
:100163005508FE74105E6006120D1975A1EF740830
:100173005E6008120D1F75A1F78024EFA2E092F0D4
:10018300E508A2E082F05017906198E0F89004A08F
:10019300E0C398A2D265D0335002E8F075A1FEE522
:1001A30009A2E092AF7F0202048FC0E074F212044E
:1001B30030A2AFE433FED2AF9061A4E0F8759B00A8
:1001C300E59158540860087591F7120D6D8023E589
:1001D3009158541060087591EF120D738014E591D6
:1001E300A2E092F0E8A2E082F05007E0C2E0F01251
:1001F3000EBD9061A3E0F8E5E9585404600E120EB9
:100203009375E9FB906193E0A2E640F2EEA2E092DF
:10021300AF7F0102048FC0E074F2120430A2AFE496
:1002230033FED2AF9061A5E0F8E5BF5854046006F1
:1002330075BFFB120ED580D4C3E498F8E499F91284
:10024300027C8026C3E49AFAE49BFBE920E7E912E7
:10025300027CE498F8E499F922C3E498F8E499F964
:1002630012027CE498F8E499F9C3E49AFAE49BFB5C
:1002730022EB20E7CFE920E7E0B90010BB0008E854
:100283008AF084F8AAF022E4FBC8FA22EB70227BFE
:1002930010C833C8C933C9335007C39AC3DBF280CC
:1002A300069A50012ADBEAC833F4C8C933F4C9FA01
:1002B3002275F008E4C833C8C933C933C99AC99B46
:1002C3005004C92AC93BD5F0ECFBC833F4C8E4C9D0
:1002D300FA22080808EAC0E0EBC0E086F0E7A4FAD7
:1002E300180986F0E7A42AFA180986F0E7A42AFA7F
:1002F300180986F0E7A42AFA1986F0E7A4FBE5F0CB
:100303002AFA190886F0E7A42BFBE5F03AFA190854
:1003130086F0E7A42BFBE5F03AFA18180986F0E714
:10032300A4C5F02BFBE43AFA1908E7C5F0C6A426E6
:10033300F6E5F03BFBE43AFA1886F0E7A4F6E5F0BD
:100343000826F6E43B08F6E43A08F6D0E0FBD0E0F2
:10035300FA22E4CFC0E0E4CEC0E0E4CDC0E0E4CCD8
:10036300C0E075F020E626F608E633F608E633F635
:1003730008E633F6181818EC33FCED33FDEE33FEC4
:10038300EF33FFC3EC9709ED9709EE9709EF971940
:100393001919400FFFEC97FC09ED97FD09EE97FE45
:1003A300191906D5F0BFECF709EDF709EEF709EFD8
:1003B300F7191919D0E0FCD0E0FDD0E0FED0E0FF42
:1003C300222518C582C0E0E51934FFC583C0E0E5E6
:1003D30018C3958224F810AF088583198582188085
:1003E30008858319858218D2AFCEF0A3E520F0A348
:1003F3007808E608F0A3DEFAEFF0A3E58124FAF823
:10040300E608F0A3E608F0A3E608F0A30808E60868
:10041300F0A3E608F0A315811581D0E0FED0E0F843
:10042300158115811581E8C0E0EEC0E022C0D0251A
:1004330018C582C0E0E51934FFC583C0E0E518C3E1
:10044300958224F310AF0885831985821880088567
:100453008319858218D2AFC8F0A3E9F0A3EAF0A309
:10046300EBF0A37908E709F0A3D8FAECF0A3EDF0D9
:10047300A3EEF0A3EFF0A3D0E0F0A3D0E0F0A3D07D
:10048300E0F0A3E520F0A3E5F0F0A322851983852E
:100493001882E0C0E0A3E0F9A3E0FAA3E0FBA378AD
:1004A30008E0F608A3DFFAE0FCA3E0FDA3E0FEA367
:1004B300E0FFA3E0C0E0A3E0C0E0A3E0F5D0A3E049
:1004C300F520A3E0A3F5F010AF0885831985821802
:1004D3008008858319858218D2AFD082D083D0E07B
:1004E300F8D0E032120B21B90003020526E4900490
:1004F30001781679128002F0A3D8FCD9FA7A167B18
:100503001590008678C979018015E493A3AD82AE76
:10051300838A828B83F0A3AA82AB838D828E83D856
:10052300E9D9E77582B97583A1740412083B758212
:1005330045758320740012083B75F0108E1A8F1BCB
:1005430085821F85831E851882851983E0CEA3E0EB
:10055300CF851F82851E83EBC9EAC8EDCBECCAC3E6
:10056300E833C8E933C9EA33CAEB33CBC3EA9EF5B0
:100573001DEB9FF51CB35004AB1CAA1DEC33CCED53
:1005830033CDD5F0DAAE1AAF1B22D083D082ECC0C4
:10059300E0EDC0E0E493A3FCE493A3FDED4C600D18
:1005A3001206A9EC24FFFCED34FFFD80EFE493A3D6
:1005B300FCE493A3FDED4C600D120746EC24FFFC15
:1005C300ED34FFFD80EFD0E0FDD0E0FCE493A3C069
:1005D300E0E493C0E022851983851882E0A3FEE05E
:1005E300A3F5207808E0A3F608DFFAE0A3FFE0A371
:1005F300C0E0E0A3C0E0E0A3C0E0E0A3C0E0E0A36C
:10060300C0E010AF08858218858319800885821899
:10061300858319D2AFD083D082020841D083D082A0
:10062300E9C0E0E493A3C386F0C5F095F0F908E4CC
:1006330093A386F0C5F095F0700BE493A3C39940A0
:1006430005E9048002A3E475F002A42582F582E59E
:10065300F03583F583D0E0F9E493A3C0E0E493C0DD
:10066300E022C0E074F2120430A2AFE433FED2AF52
:10067300E589A2E15003120C59758900C2C5EEA2A7
:10068300E092AF7F0102048FC0E074F2120430A243
:10069300AFE433FED2AFE58BA2E05003120C5975E1
:1006A3008B00C2E880D8C0E0C3E49396087401933A
:1006B3009618400FE49366700808740193661870E7
:1006C300007019A3A3C3E49396087401939618A327
:1006D300A3400DD0E0D0E0D0E00205C9A3A3A3A3BB
:1006E300A3A3D0E0227404800474028000CCC0E091
:1006F300EDC0E0E518C39CCCAD1950011D10AF0649
:100703008C188D1980068C188D19D2AF1207BDD0A5
:10071300E0FDD0E0FC2274028000CCC0E0EDC0E03C
:10072300E518C39CCCAD1950011D10AF068C188D74
:100733001980068C188D19D2AF12079BD0E0FDD01B
:10074300E0FC22C0E0C0F088F0E49366700808740F
:10075300019366187000A8F0A3A3700BD0F0D0E04B
:10076300D0E0D0E00205C9A3A3D0F0D0E022D0832B
:10077300D082CCC0E0E493A360061207FD1470FAA4
:10078300E493A360061209271470FAD0E0FCE49303
:10079300A3C0E0E493C0E022CAC0E0E493A3C5820F
:1007A300CCC582C583CDC583F0A3C582CCC582C524
:1007B30083CDC583DAE5D0E0CA22CAC0E0E0A3C591
:1007C30082CCC582C583CDC583F0A3C582CCC58247
:1007D300C583CDC583DAE6D0E0CA22C008C3E0965C
:1007E300F50808A3E096420808A3E096420808A388
:1007F300E09645087001D3D00822C0E0E493A3D368
:100803009C5010E493A3C39C400AD0E0D0E0D0E016
:1008130002078EA3A3A3D0E0227009080808226070
:1008230016181818C6C333C608C633C608C633C657
:1008330008C633C6D5E0EA22C09FF59FE473D09F74
:1008430022D083D082C09FE493C0E0740193C0E0C0
:10085300740293F59F227404800A74038006740261
:1008630080027401C0E0F40412088FD0E0120AE49D
:100873002200C0D0251810AF08F518500C051980B8
:1008830008F51850020519D2AFD0D0222518F582E9
:1008930010AF08F518400C15198008F5184002151B
:1008A30019D2AF85198322BB0102E722C082C0831C
:1008B30089828A83BB0003E08002E493D083D082E1
:1008C30022C0E0C0D0E8C0E0A8A8D2AFC2C7E8A267
:1008D300E792AFD0E0F8D0D0D0E032601608080835
:1008E300C6C313C618C613C618C613C618C613C67E
:1008F300D5E0EA22C3E0C696F608A3E0C696F6085A
:10090300A3E0C696F608A3E0C696F6222518F8E4F7
:100913003519F9222518FAE43519FB222518FCE4C8
:100923003519FD22C0E0E493A36C7009D0E0D0E058
:10093300D0E002078EA3A3D0E022251810AF08F55C
:1009430018400C15198008F51840021519D2AF226A
:10095300E76670100809E766700A0809E76670041D
:100963000809E76622C3E09608A3E09608A3E09689
:1009730008A3E096A2D265D03322E066701008A3E4
:10098300E066700A08A3E066700408A3E06622C369
:10099300E096F008A3E096F008A3E096F008A3E041
:1009A30096F022C3E697F60809E697F60809E69754
:1009B300F60809E697F622C3E49396087401939622
:1009C3000874029396087403939622E647F608097F
:1009D300E647F60809E647F60809E647F6227004F3
:1009E30022600D18C6C333C608C633C6D5E0F41853
:1009F30022E026F608A3E036F608A3E036F608A3BD
:100A0300E036F622E657F60809E657F60809E657F0
:100A1300F60809E657F622E056F608A3E056F6086C
:100A2300A3E056F608A3E056F622E627F60809E601
:100A330037F60809E637F60809E637F622E056F0F6
:100A430008A3E056F008A3E056F008A3E056F0220E
:100A5300E026F008A3E036F008A3E036F008A3E0B0
:100A630036F022E4C396F608E496F608E496F60810
:100A7300E496F622C6F4C608C6F4C608C6F4C60849
:100A8300C6F4C622C3E7960809E7960809E796085D
:100A930009E79622C3E09608A3E09608A3E0960828
:100AA300A3E0962275D00075813F7518017519046E
:100AB300000204E7E6F008A3E6F008A3E6F008A3C3
:100AC300E6F022600C08C6C313C618C613C6D5E0E9
:100AD300F422E0F608A3E0F608A3E0F608A3E0F6A4
:100AE30022CAC0E0E6F0A308DAFAD0E0FA22E8F07E
:100AF300A3E9F0A3EAF0A3EBF022E0F8A3E0F9A363
:100B0300E0FAA3E0FB22EAF0A3EBF0A3ECF0A3ED01
:100B1300F022E0FAA3E0FBA3E0FCA3E0FD22E5C79B
:100B230054F84401F5C77901222518F582E43519F3
:100B3300F58322C2AF75D69F020000221208446ECD
:100B4300E30312084478E30312084415E40312088C
:100B530044D4E40312084459E603120844B0E603FC
:100B6300120844E8E60312084417BA031208449330
:100B7300BA03120844C6BA03120844F4BA031208AB
:100B8300440EBD031208442ABD031208446FBD037B
:100B9300120844F4BD0312084440BE03120844D0B3
:100BA300BE03120844A8BF03120844F9BF03120886
:100BB300445EC003120844DBC00312084411C1039E
:100BC3001208445CC10312084482C1031208441290
:100BD300C203120844A9C203120844F5C20312084F
:100BE3004426C3031208445DC303120844EEC4033E
:100BF300120844B8C50312084492C60312084438C5
:100C0300AF0412084449AF0412084461AF04120848
:100C130044F67F00120844E8FF02120844FFAD04C3
:100C23001208440FAE0412084427AE04120844729B
:100C3300AE0412084407AA041208448AAA0412083C
:100C430044F0AA0412084404AD0412084422AD047B
:100C53001208448EAD04120844C0AD04120844A423
:100C6300A704120844B9A7041208442DA8041208C3
:100C73004447A8041208445EA8041208446CA8045C
:100C830012084484A804120844A2A80412084411B8
:100C9300FC031208441FFC0312084498FC031208C7
:100CA300446CFD031208443EFF0312084400AF04E2
:100CB3001208448DFA02120844B9FA021208442AAF
:100CC300FD021208446AFD02120844AAFD0212083A
:100CD30044BEFD02120844D7FD02120844C8FE02B6
:100CE3001208446DFF0212084481FF02120844B047
:100CF300A304120844D4A304120844EDA304120865
:100D0300441FA4041208444FA4041208447CA404FE
:100D1300120844DEA404120844EDA404120844F7A4
:100D2300A40412084404A5041208442E98041208CB
:100D3300444E98041208448D9804120844A8980459
:100D4300120844C798041208442D99041208443623
:100D53009904120844939904120844A299041208AE
:100D630044C69904120844879A04120844949A04C6
:100D7300120844A59A0412084475AE041208448D5F
:100D8300AE04120844B9AE04120844C2F7031208B1
:100D9300441CF9031208442AF9031208443DF903D9
:100DA30012084452F90312084467F9031208447AFB
:100DB300F903120844EEF90312084453FA03120824
:100DC30044F5FA03120844B9FB03120844C9FB03B0
:100DD300120844D8FB03120844447F0012084468F5
:100DE3007F00120844907F00120844B87F00120865
:100DF30044329D04120844599D04120844779D040B
:100E0300120844EA9D041208445B950412084474D2
:100E1300950412084480950412084494950412081A
:100E230044B29504120844BC9504120844C69504C0
:100E3300120844D995041208445F9604120844D456
:100E430096041208440397041208445197041208A5
:100E530044A09704120844BB9704120844C597049E
:100E6300120844D697041208441998041208449DA2
:100E7300FF021208442EE70312084458E70312083E
:100E83004475E70312084488E7031208449EE70306
:100E9300120844FCE70312084434E8031208442808
:100EA300EC031208446DED03120844A0ED0312088D
:100EB3004403EE0312084463EF031208448BEF0369
:100EC300120844A0EF03120844B0EF03120844F4DD
:100ED300EF031208444FF0031208445FF0031208B3
:100EE30044D7A804120844F1A80412084419A90419
:100EF30012084432A90412084456A904120844747F
:100F0300A9041208448BA904120844B9A9041208BD
:100F130044D4A904120844BCAE04120844F28B045E
:100F2300120844028C04120844078D041208443941
:100F33008D04120844698D041208448C8D04120830
:100F430044A38D04120844DD8D04120844428E0428
:100F5300120844848E04120844C38E04120844F415
:100F63008E041208441F8F041208440EA5041208AD
:100F73004420A50412084434A60412084437A604E6
:100F830012084409AC041208443FAC041208445547
:100F9300AC0412084497AC04120844A7AC0412082A
:100FA30044B6AC04120844FAAC041208448FF003AC
:100FB300120844C9F00312084432F1031208444FE3
:100FC300F103120844F1F103120844FAF103120881
:100FD300443FF20312084468F20312084475F20313
:100FE300120844E6F20312084471F303120844BFE3
:100FF300F303120844FDF30312084462F4031208D6
:101003004485F403120844FCF40312084453F50323
:101013001208448EF503120844C3F503120844D59D
:10102300F503120844E7F50312084406F603120811
:10103300440FF603120844CAF60312084416F703D2
:1010430012084454F70312084464A604120844A384
:10105300FF03120844839F04120844B99F04120833
:101063004401A0041208445AA1041208440596033B
:101073001208442997031208446397031208440D86
:101083009903120844379903120844AC9B031208CE
:1010930044EC9B03120844829D031208441F9E03E1
:1010A300120844719E03120844149F031208444C0F
:1010B3009F031208448E9F03120844FDA0031208E5
:1010C300444BA2031208447CA403120844AAA403B9
:1010D300120844D1A403120844DAA40312084431C9
:1010E300A503120844C3A503120844F0A803120879
:1010F3004473A903120844DD7F001208445C84048E
:1011030012084472840412084416850412084455D4
:101113008504120844728504120844A38504120846
:1011230044F085041208442386041208445E8604AE
:1011330012084453880412084409AB041208446893
:10114300AB04120844A6AB04120844E7AB0412082C
:1011530044B9A502120844C5A50212084427A602F1
:1011630012084431A602120844BEA602120844FA29
:10117300A602120844B4A70212084404A8021208E3
:1011830044A5A80212084425A902120844E1AA02B0
:10119300120844D8AC02120844E0AD021208448D90
:1011A300AE0212084447B30212084441B4021208C3
:1011B30044DBB40212084400B5021208449CB50291
:1011C300120844B1B502120844D5B50212084446C8
:1011D300B60212084463B6021208448DB60212081E
:1011E3004421B802120844C7B8021208440EB902D7
:1011F30012084473B902120844F4B902120844589D
:10120300BA02120844B4BA021208444ABB021208D2
:1012130044B4BB02120844E8BB021208444CBC02AB
:10122300120844A5BD0212084434BF02120844E266
:10123300BF0212084410C00212084415C202120869
:1012430044AFC402120844AFC502120844608804C4
:101253001208441A8904120844808904120844A11C
:101263008904120844748A04120844D39A041208A5
:1012730044499B04120844AE9C04120844FB9C049A
:10128300120844239D04120844269D041208442F87
:101293009D041208449CAF04120844C7EA011208D3
:1012A30044F6EA011208446EEB0112084471EC01A2
:1012B300120844CDEC011208444EEE011208446AB0
:1012C300EE01120844BCEE01120844FAEE011208C2
:1012D300440DEF011208445FEF011208441AF001B4
:1012E30012084486F001120844B0F001120844E8E1
:1012F300F0011208445AF20112084433F3011208B0
:10130300447CF4011208444FF501120844D7F50157
:101313001208441FF60112084439F60112084480EA
:10132300F601120844A0F60112084436F701120828
:1013330044C5F7011208441FF80112084463F80179
:10134300120844DFFA011208440DFC011208444953
:10135300FC011208443BFD0112084463FD0112081D
:101363004466FD0112084470FD0112084483FD0127
:101373001208440CFE0112084442FE011208446E96
:10138300FE0112084495FE01120844B9FE01120839
:10139300442AFF0112084438FF011208446BFF017D
:1013A30012084481FF011208448DFF01120844CB47
:1013B300FF01120844F37F0012084455E4021208A7
:1013C3004478E402120844BEE50212084407E60228
:1013D30012084461E602120844C7E602120844CA2E
:1013E300E60212084416E70212084490E7021208C4
:1013F3004416E80212084419E802120844A5E80258
:10140300120844E8E80212084427ED02120844C413
:10141300EE0212084406EF021208447BF20212089D
:1014230044A9F30212084433F502120844C0F5023A
:10143300120844BAF60212084411F902120844C011
:10144300A90312084460AA03120844CAAA03120893
:1014530044E3AA031208446DAB03120844C3AB036D
:1014630012084407AC031208446EAC03120844E4A8
:10147300AD0312084412AF031208448BAF031208E2
:10148300448EB10312084436B203120844C5B203B2
:1014930012084498B30312084473B50312084414A2
:1014A300B703120844BCB703120844CEB8031208AA
:1014B30044DDC90212084451CA0212084499CA02FF
:1014C300120844D7CA0212084420CB021208446A05
:1014D300CB02120844A2CB0212084420CC02120809
:1014E300447ACC02120844D6CD0212084467CE02D5
:1014F300120844C5CE02120844DFCE02120844008B
:10150300CF0212084458CF021208445E9503120812
:1015130044E8D102120844C7D202120844DFD302BE
:101523001208445CD402120844C9D402120844329B
:10153300D502120844ECD502120844AAD7021208B5
:1015430044ABD80212084430DA021208441BDC020E
:101553001208447EDE0212084424E002120844F218
:10156300E00212084458E10212084464E30312083B
:10157300445FE2021208444BE302120844B8E30258
:101583001208447A9204120844C69304120844834E
:101593009404120844E79404120844778F04120851
:1015A30044928F04120844D68F04120844FC8F041B
:1015B3001208442290041208443A90041208449DED
:1015C3009004120844B29004120844D491041208FF
:1015D30044DD9104120844E69104120844EF910497
:1015E300120844008004120844EE8304120844F3F2
:1015F3008304120844F583041208443DA20412082C
:101603004470AF041208440080021208443380027D
:101613001208449F80021208443A8102120844D7F8
:1016230081021208441C82021208443E82021208FC
:10163300445782021208447D82021208449F8202A8
:10164300120844DD82021208442183021208444333
:101653008302120844A583021208446C8402120810
:1016630044238502120844958502120844608602C9
:10167300120844B38602120844198702120844531D
:101683008702120844A5870212084413880212082D
:10169300447E8802120844818802120844028902A7
:1016A300120844998902120844198A02120844381C
:1016B3008A021208449C8B02120844A98B02120866
:1016C30044B58C02120844C28C02120844CB8C022B
:1016D300120844A38E02120844BD8F021208443636
:1016E3009002120844A89002120844CA90021208F9
:1016F300445E91021208443293021208440997028D
:101703001208441D97021208442D97021208443709
:10171300970212084440970212084449970212089C
:1017230044539702120844809702120844A997026F
:10173300120844B49702120844D89702120844FCD2
:101743009702120844669802120844AC98021208E1
:1017530044C998021208444699021208447D99022A
:10176300120844BC9902120844099A021208448FD1
:101773009A021208445D9C02120844E09C0212087B
:1017830044C49D021208442BA00212084484A00200
:10179300120844CEA00212084429A2021208445E91
:1017A300A202120844B0A20212084465A30212085E
:1017B3004414A40212084451A402120844E6A402E9
:1017C30012084452A5021208443F2600120844712D
:1017D30026001208449F26001208447528001208A8
:1017E30044552900120844AD2900120844E82A0090
:1017F300120844342B001208445D2E001208445092
:101803003100120844A03200120844363300120893
:1018130044423300120844743300120844F734007E
:101823001208440536001208442F36001208449665
:101833003600120844EF36001208445537001208E8
:10184300446C3900120844FB3A00120844C53B00BB
:101853001208440B3D001208445B3F001208442B5E
:101863004200120844384200120844BF42001208E2
:10187300445343001208449643001208441C440096
:101883001208443944001208446944001208449E73
:1018930044001208446E450012084417460012081B
:1018A300449D4800120844BD4900120844A84A0058
:1018B3001208442A4B00120844614F001208449E48
:1018C3004F00120844F64F00120844295000120832
:1018D30044935000120844C9500012084454510064
:1018E300120844AC51001208448352001208443CCD
:1018F3005300120844D75300120844DF560012085D
:1019030044FB57001208449E5B00120844925C009B
:10191300120844955C00120844C45C00120844CACF
:101923005E00120844A35F00120844E65F00120839
:10193300443C61001208447B61001208440D6200BC
:101943001208444162001208440663001208441E50
:1019530065001208448F6500120844CF6500120821
:10196300445D660012084485670012084447680016
:101973001208444E6A00120844666A001208447A48
:101983006A00120844B26A00120844E06A001208AE
:10199300445F6C00120844846D00120844E86D0033
:1019A3001208449A6E00120844CA6E001208449149
:1019B3006F001208442970001208444F7200120885
:1019C30044847200120844E772001208441674003B
:1019D300120844BE7400120844EF7400120844074E
:1019E30075001208449675001208444A78001208DC
:1019F30044227A001208443E7A001208445A7A00BC
:101A0300120844287B001208441B7F001208449BE1
:101A13008101120844CD8101120844BC85011208DA
:101A2300440886011208444E8601120844F08601D8
:101A33001208444C8701120844918701120844D8C4
:101A43008801120844EC8901120844DB8D01120855
:101A5300445F8E011208446C8F01120844C88F0141
:101A6300120844B891011208442D92011208443718
:101A730092011208444492011208446F9201120821
:101A8300445693011208440094011208447E9401C1
:101A93001208449E9401120844C79401120844E9B1
:101AA30094011208444997011208440F980112083F
:101AB30044549801120844D19801120844829901B0
:101AC300120844B49901120844FA990112084436E1
:101AD3009A01120844869A01120844DA9A011208FC
:101AE30044309B011208447C9B01120844E99B018A
:101AF300120844649C011208442F9E011208442FCB
:101B03009F0112084454A00112084493A301120830
:101B130044A6A60112084463A701120844A7A7011B
:101B230012084457A9011208446BA901120844750D
:101B3300A9011208447FA9011208448BA9011208C4
:101B430044A7A90112084452AA0112084491AA0108
:101B53001208449BAA01120844A5AA0112084415BD
:101B6300AB0112084460AB0112084475AC011208C2
:101B730044D1AC0112084452AD0112084411AE0124
:101B83001208441AAF011208444EB0011208443C33
:101B9300B10112084454B101120844AFB101120853
:101BA30044CDB10112084415B2011208443CB201FC
:101BB300120844D7B2011208449DB3011208442FFE
:101BC300B401120844A9B401120844C3B5011208B0
:101BD3004470B60112084498B701120844E8B701EB
:101BE3001208444CB801120844AEB801120844DC90
:101BF300B80112084400B90112084435B9011208AA
:101C03004466B90112084499B901120844B9B901EB
:101C130012084421BA0112084415BB01120844708A
:101C2300BB0112084499BB0112084421BC011208EC
:101C330044A4BC01120844CFBC01120844B4BD0142
:101C43001208446BC703120844A3C703120844C411
:101C5300C70312084406C80312084468C8031208DD
:101C63004472C80312084482C803120844BDC8035F
:101C73001208449DCC031208448ACE031208447010
:101C8300D00312084407D103120844A9D103120850
:101C930044B6BF0112084434C00112084490C00185
:101CA300120844DBC001120844F6C00112084421A3
:101CB300C1011208443EC1011208444AC10112087D
:101CC30044E1C201120844FAC2011208447FC3016D
:101CD30012084492C301120844B1C30112084455C7
:101CE300C401120844D6C50112084489C701120869
:101CF300441FC80112084422C80112084492C801B3
:101D0300120844B0C80112084447C9011208448F9D
:101D1300C90112084492C90112084458CA011208A1
:101D230044C5CA01120844EBCA0112084476CB0128
:101D330012084494CB01120844DACB011208448EF2
:101D4300CC01120844D8CC0112084407CD01120873
:101D53004464CD0112084499CD01120844C5CD0154
:101D6300120844D3CD0112084420CE011208449036
:101D7300CE01120844D9CE0112084425CF0112081E
:101D83004451CF011208445CCF011208447ACF01B9
:101D930012084465D0011208446FD001120844AA06
:101DA300D001120844BAD001120844C3D00112086A
:101DB3004417D1011208442BD1011208445AD2010D
:101DC3001208446FD201120844FDD20112084442A2
:101DD300D301120844CED301120844D9D301120807
:101DE300441BD50112084436D50112084482D5019B
:101DF300120844F1D5011208442AD60112084444BA
:101E0300D60112084486D60112084456D901120895
:101E13004403DA0112084470DA01120844B0DC0109
:101E2300120844C8DC01120844CBDC01120844D771
:101E3300DC01120844EBDC01120844F3DC01120854
:101E43004426DD0112084428DE01120844AFDE01F6
:101E53001208441FDF01120844A1DF011208446283
:101E6300E00112084481E00112084422E101120852
:101E7300447FE10112084482E101120844F6E101C2
:101E830012084445E3011208444BE401120844D606
:101E9300E401120844F1E501120844B9E60112080D
:101EA30044EAE6011208440DE70112084416E7016B
:101EB30012084445E701120844D5E7011208448B90
:101EC300E80112084400E901120844A7E9011208D5
:101ED300441CEA0112084453EA0112084491EA013E
:101EE300120844B293031208447093031208449AED
:101EF3009203120844849203120844459203120881
:101F0300449F9103120844A48E031208448D8C034A
:101F13001208445A8C03120844F58B0312084488B0
:101F23008B03120844478B03120844808A03120868
:101F3300441B8A03120844C68903120844698903AF
:101F4300120844408803120844DD8703120844271B
:101F530087031208442287031208441687031208D2
:101F630044C98303120844A3830312084448830328
:101F7300120844FAE203120844E6E2031208444555
:101F8300E2031208444FE10312084480E0031208FD
:101F9300447DDE03120844D0DD03120844F38203B8
:101FA300120844E08203120844D5820312084464F1
:101FB300DD03120844B18203120844EC80031208C3
:101FC300446B8003120844278003120844D5950309
:101FD3001208440080031208446FE10212084419F6
:101FE300DD03120844C0DC0312084482DC03120838
:101FF3004455DC0312084421DC03120844C0DB030C
:10200300120844A8DB0312084478DB031208444D8A
:10201300D80312084420D60312084427D403120815
:1020230044ADD3031208445CD30312084416D3030C
:10203300120844CB950312084480D203120844C902
:10204300D10200000080FBE4738F000100C21587FA
:10205300000100C015350004008915250002008D1C
:1020630015260002008F1527000200911528000194
:10207300009B15290001009C1584000400021386AF
:1020830000010024152A0001009D152B0001009E6C
:10209300152C000100A2152D0008000E132E0001BF
:1020A30000A3152F000100A41530000100A5153170
:1020B300000100A6153200010016133300010017BA
:1020C3001334000100A7153600010018133800016E
:1020D30000A81539000100A11583000200BE156395
:1020E3000001002413640001009F1565000100A096
:1020F300156D000100251371000800061366000129
:1021030000BD1543000100AE1544000200AF1545A4
:10211300000100B11546000200B215470008001C7B
:102123001348000100B4154B000100B5150400016C
:1021330000C115A1000100C51537000100C41588B1
:10214300000100C3153C00010019133D000100A963
:102153001549000200B6156700010026134D000261
:1021630000B8154E000100BA154F000200BB153E22
:10217300000100AD15510001001A1352000100AB1C
:102183001553000100AC15540001001B130000009F
:1021930000000000013636010100010201000103C5
:1021A30001000104010606050200000701003408CE
:1021B30001000F090401010D0100FF0E08000017C3
:1021C300020000190100FF1A0100011B0100FE1C9F
:1021D3000100081D0200001F010001200100012170
:1021E3000200002301000F24020000260100012742
:1021F300010008280200FF2A0100072B0102402CDE
:102203000100002D0100012E0100012F0100FF300C
:10221300010B1D310800003A0100083B01000F3C8F
:102223000100013D0100FF3E04000042040000469E
:102233000400004A0400004E04000052040000564B
:102243000400005A040000000000002001968100F1
:102253000001002001958100000200200197810008
:102263000003002001998100000400420111810054
:1022730000050042011681000006004201CA8000E9
:1022830000070030019A810000100042034D150041
:102293000011003003F9110000120010035E150055
:1022A30000004042015F150000FDFF2101938103FF
:1022B3000000002103FA110300FDFF218193810631
:1022C3000000001001FC110600FDFF218193810134
:1022D3000371030103010301030103010322030249
:1022E30003010310030003000300030003000300C2
:1022F3000300034203000324030603000300030453
:102303000312032503230325032303040304030008
:1023130003000300034403000300032303000365D6
:1023230003210035038103000305030003000300B9
:10233300030003250323030302710230016002112A
:102343000270020102020202028002100261023ADA
:10235300004100630273027202620243020002132D
:10236300023800000200020402120200020002000E
:1023730002000204020402370037003C0244020058
:1023830002390000020002650200023502810200E8
:1023930002050282028302000201017101010101AF
:1023A30001110101013101010101018001100161EC
:1023B300013B0014006301730172016201430100D8
:1023C30001130106013D0135000401120100010062
:1023D300010001000104010401330133013C014404
:1023E3000132013600000100016501000135008161
:1023F3000100010501820183010001030071003026
:1024030001600011007000310220035004800010AD
:102413000061000000140063007300720062004357
:10242300000000130006000000000004001200007A
:102433000000000000000004000400370037003CE7
:1024430002440000000000000000006500000035A9
:102453000081000000050000008300000036000139
:1024630000060000000F0000000000000000000054
:1024730000000003FFFF00000403FFFF0000FFFF55
:102483000FF4010005C4040320000100000B000049
:1024930000000000000003010F0000000000000026
:1024A3000000000000000000000000000000000029
:1024B3000000000000000000000000171235121D8C
:1024C300126F1123123B122312471229126F112389
:1024D300123B12000000000000000000000000009A
:1024E300000000000000002F126F11000000000028
:1024F30000000000000000000000000000000000D9
:1025030000000000000000000000000000000000C8
:1025130000000000000000000069140100691402BB
:1025230000DF130280D9130300E5130400EB130447
:1025330080F1130500F7130600031431001514335B
:10254300001B1434002114FFFF000007ECFDFDFD08
:10255300ECDCDCCCBCACAC9C9C8C7C7C6C6C5C5CA8
:102563005C4C4C3C3C2C2C1C1C03EAF5E5D5D5C536
:10257300B5A5959585857575656555554545353578
:1025830025251515050A871A02511A055D1A0757DD
:102593001A0C391A0D451AFF000000160F00000B24
:1025A300150B020002220F3300000E0F5A69674217
:1025B3006565416C6C69616E63653039D0D1D2D386
:1025C300D4D5D6D7D8D9DADBDCDDDEDF3030161848
:1025D3001920231A1C1E3000034D4C4651181A258E
:1025E30005020001191618161618230300303017B8
:1025F300181921301B1D1F30003C40423A3F3F3920
:102603002F47300C0E020B040B0A0708000F0204BD
:1026130002010101010902E803000000BE040A01EE
:10262300000E000300E803FF04091103101E030A50
:102633000C04040828020C0508151E04C082C0837C
:10264300120B6990134F74E1F0A37417F0901351B8
:1026530074E7F0A37417F090135374EDF0A3741799
:10266300F090135574F3F0A37417F0025F9C74F7A2
:102673001203C4901343E4F0E9901342F07C1C7DF1
:10268300137A447B1312114B9015B4E090134CF062
:1026930090134D7406F0A3741302367E74F0120384
:1026A300C4EAFEEBFF548070030228109013421219
:1026B30042B37003022809EA241B125B29707CEAE7
:1026C300241F125B2964137002A3E0706E8A828B4D
:1026D3008312285E90135D1250BB750A00750B00C0
:1026E300800D1234DD1271BA121067AA0EAB0FEA15
:1026F3004B60488A828B83E0650C7004A3E0650D10
:10270300702C8A828B83A3A3A3A3E0F50EA3E0F529
:102713000FE50A450B8A828B83A3A3A3A360C3128D
:1027230043FA850A82850B83A3A3A3A380B78A0AEE
:102733008B0B8A828B831250B780B4E508242A124C
:102743005B29FCE5082402F8E43509F9E8FAE9FB1A
:1027530090135D122945A3A3E06402703C8A828B27
:10276300831250BB800B88828983A3A3A3A3124344
:10277300FAE849601F88828983E06A7003A3E06BEB
:1027830070E488828983A3A3E06C70DA9015BA128F
:102793005E59806BECF912181D850882850983E068
:1027A3006401704FE5082418122847120865126760
:1027B3004C1206E8E5082412122847120865E508BA
:1027C3001242A7120861E508240B1267501206ECA7
:1027D300E5082417123CDDE5082402FCE43509FD75
:1027E300E5082419FAE43509FB12201B740A1208C0
:1027F30074800CE064027007AA08AB09121943AA9B
:1028030008AB09120FD1EEFAEF6480802DEA54026F
:10281300600C9015C97401F0EA6402FA8023EA544B
:1028230008601A121817EA4B700B90135F12662791
:102833007A08122854EE6408FAEFFB80047A007BCE
:1028430000026DE3F582E43509F583E0F50A780AC1
:1028530022FB901342E0F912112122A3A3E0F50C0D
:10286300A3E0F50D227B00901342E0F912111574D9
:10287300042274F41203C48A088B098A828B83A30B
:10288300A3A3124EB3123F1D38F583E02409FA12B5
:102893006D7470030229388A828B837402124F2865
:1028A300850882850983122945E8F0A3E91269EEB8
:1028B3008A828B83A3A3A3A3A3A3A3A3F0E50824E2
:1028C30003F8E4350912293A123F1D3AF583E08EE5
:1028D300828B83A3A3A3A3F0EE2409FAE43FFB8E28
:1028E300828F83A3A312610BF5838882E0A2E58E16
:1028F300828F83A3A3A3A3A3500474018001E4F0F4
:10290300E5082403F58289831250BBEA12563C3B47
:10291300F583126D3B12085D123F1C3B1262068E5B
:10292300828F83A3A3127EFA120874EEFAEFFB9050
:102933001342126DC18016F98882F583E0FAA3E091
:10294300CA22125258A3A32274021208747F0402EB
:1029530005D974F21203C48A088B09ECFAEDFB74EF
:102963000E120B2CE0FC120B998A0C8B0DAE0CAFE4
:102973000DEA4F6030AC08AD09120B87E96026AC55
:1029830008AD09EEFAEFFB120B8DE970148E828FFE
:10299300831243E3FAEFFB120B81AA08AB09120B74
:1029A300B17900800279B40251A774F01203C474A0
:1029B300F612093DEAFEEBFF8C088D09750FB3850E
:1029C3001882851983E4F0750E008002050E9026A7
:1029D30035E493F8E50EC3984003022AD4AA0E7B8C
:1029E30000120BD58A0A8B0BEA4B60E08A828B8339
:1029F300A3A3122ADB28F0F8C3EE98EF940050CC7F
:102A03007C157D007900AA08AB09120FB9850A82EB
:102A1300850B83A3A3A3A31271F7E0F8EEC3982950
:102A230025E0F8E433F9E50A28F582E50B39F58367
:102A3300A3A3A3A3A3A3123F27A3125C808A0C8B97
:102A43000DAC0CAD0DAA08AB0912114B850A82859A
:102A53000B83A3E06401700A12674C7401123F45B3
:102A63008044740112091F850A82850B831250B9B1
:102A7300120BBDE9603D7409120B2CE0C0E0126734
:102A83004CD0E0F07409120B2CE064037013740152
:102A930012091FE508240BFAE43509FB12114B80D8
:102AA300127401120B2C1243FAE508125C66350905
:102AB3001271B8850A82850B83126758123F45A3AA
:102AC300A3E0C0E0E5082414126750D0E0F0750FCE
:102AD30000A90F740A026DE0A3A3A3E0F88518828E
:102AE300851983E02274F71203C4E9FE8A828B837B
:102AF300A3A3A3A3A3A3E0540860338A828B83A375
:102B0300A3A3A3A3A3E0540260218A828B83A3A37C
:102B1300A3A3A3A3A3A3A3E06406600F74E96E6059
:102B23000A74CD6E600574F06E70031217FF024ACB
:102B3300A374F01203C474EF12093D740F120B2C2B
:102B430012650B7408120B2CE9F0ECFEEDFF740513
:102B5300120B2C12486B124A8FA3E0F9120BA574C7
:102B630006120B2C12650B7406120B2C1256CD7029
:102B730003022DEF1241CBE0FA7406120B2CE0F99D
:102B830012173F122E4FF8A3E0F9E8497003022D04
:102B9300EFEE2403F50AE43FF50BEE2406F508E413
:102BA3003FF5097C00850882F5831250BB850A82B4
:102BB300850B83E0F9120BAB7403120B2C12650B1C
:102BC300850A82850B83E0C0E0851882851983120C
:102BD3002E48D0E01257E2F9851882851983123402
:102BE300E4125334122ADEFAA3E0CA2407F582E47E
:102BF3003AF583E8F0A3E41265162406F582E43877
:102C0300F583E41271C4124EA412085DEE123F1D47
:102C13003F1262067403120B2C124EB32409127E68
:102C2300F41208747429120B2C1271F112293F1239
:102C330057F53A1271B8742B120B2CE0C0E08518CB
:102C430082851983125694D0E0F07402120B2CE49F
:102C5300F07425120B2C7808120AD5022D46740342
:102C6300120B2C1261C58882F583122E37A3A3A3FE
:102C7300125C8BFB120BC3850E82850F83A3EAF0D4
:102C8300A3EBF07403120B2C122E48A3122E37124F
:102C93005E9AA2E6500F850E82850F83A3A3A3A39A
:102CA300A3E0D2E1F07405120B2CE0706B850E8269
:102CB300850F83A31243FA9013A1E0687003A3E086
:102CC300697055850E82850F83A3A3A3123AF47509
:102CD3000C00780C12086578081208597429120B35
:102CE3002CE0F50C780C1208657427120B2C1206D5
:102CF300EC9013AE1206EC79007419120B2C1250DF
:102D03008B12198B740A120874850E82850F83A3A4
:102D1300A3A3A3A3E04405F07402120B2CE004FC6C
:102D23008E828F831250B58E828F83A3A3A3E0F983
:102D3300120BAB7403120B2C12650B7402120B2CC7
:102D4300E004F07403120B2C1256CD606774021268
:102D53000B2CE0FA7406120B2C1243FAC3EA98E424
:102D63009950517402120B2C123121851882851946
:102D730083E028F8A3E039F9E8240FF50EE439F5E8
:102D83000F850E82F583E4F07403120B2C122E428E
:102D930064016003022C617405120B2C7401126D23
:102DA300CEF07403120B2C125F8C123144E8F0A3A3
:102DB300E9022C858518828519831250BB121745A9
:102DC3008518828519831206EC7426120B2CE0FDFC
:102DD3007425120B2CE0FC740A120B2CE0F9EEFAAA
:102DE300EFFB1217F9740212087480438E828F83EB
:102DF300A3A3A3E0C0E0740C120B2CD0E0F0126C80
:102E030030E0C0E0740D120B2CD0E0F07406120B0E
:102E13002C1256CD7009740E120B2C74B9800774E2
:102E23000E120B2C7410F074091209171219857401
:102E330011026DE0E0850E82850F83A3A3A322E038
:102E43001257BAE022E01257BAA3A322851882854B
:102E53001983EAF0A3EB1256D62274F01203C4745A
:102E6300E112093D7404120B2CE9F07403120B2CCC
:102E7300ECF07402120B2CEDF08A0E8B0F742F12F0
:102E83000B2C122860AA0CFB1217337401120B2CA3
:102E9300E9F0AA0CAB0D1217397401120B2CE07078
:102EA3000302311C851882851983E480158E828F75
:102EB30083A3A3A3A3A3E0D2E3F085188285198398
:102EC300E004126D1FF8851882851983E0C39840CA
:102ED300030231137401120B2CE0700302311385CA
:102EE3001882851983123121E50C28F8E50D39F98B
:102EF300E8240FFEE439FF8E82F583A3A3A3A3A3E3
:102F0300E0A2E040B5750800750A08750B0074026D
:102F1300120B2CE060037508207C087D0079007497
:102F230005120917120FB98E828F83E0603E90134A
:102F3300F1E06401701AE508D2E3F508750B10128D
:102F43003131120B2CE8F0A3E9125B7E74FF80761B
:102F530043080C750A0C8E828F83A312313C1271C5
:102F6300BA7405120B2C74FFF0A3805A7404120B6D
:102F73002CE06009E508D2E6F508750A0A8E828F0F
:102F830083A3E064FE7003A3E0F470307412120BA9
:102F93002C7404126776F8741D120B2CE8124F2858
:102FA30074121209171216617D007C0079007415E2
:102FB300120B2CAA82AB83121451800B12313112E3
:102FC3000B2CE8F0A3E9F07407120B2CE508F012C0
:102FD30041B9C0E07409120B2CD0E0F0740A120B53
:102FE3002C7401F074051209171219497411120B8C
:102FF3002CE060030230F1740D120B2C1257DD8E9E
:10300300828F83A3A3A3A3F0740D120B2C124EF68D
:10301300E50AF0A3E50BF07403120B2CE0C0E012F9
:103023004E84D0E0125E9A60119013F1E0C0E07418
:103033000D120B2C124ED1D0E0F0740D120B2C128A
:1030430043FA850C82850D83A3A3A3A3A312312A7C
:10305300241C1265051271D412312C125E4C3912E4
:103063006C4FC0E0124E6BD0E0126D14C0E0740DD3
:10307300120B2C1249B1D0E0126A15C0E0740D1284
:103083000B2C1249A7D0E0F0740D120B2C12313C1B
:1030930012312A242A126505850E82850F83A3A384
:1030A300A3A3A3A3A3A3E01264FE1241A8C0E0124A
:1030B3004993D0E0F0740D120B2C1250BB850E8295
:1030C300850F83126D2A2428F582E43B1271B8120E
:1030D30041B1126D3B12085D1261FFEA1264973B26
:1030E300127EF8120874740512091712194F8E8292
:1030F3008F83A3A3A3A3A3E0D2E0F07411120B2C3C
:10310300E06003022EB07401120B2CE014022EBCFB
:103113007900AA0CAB0D121805741F026DE0E0755F
:10312300F007A4F8A9F022A3A31250BFE8228E82CD
:103133008F83A31243FE740522E0123144A3A3A399
:1031430022F8A3E0F9850E82850F83A32274F0127F
:1031530003C474E812093DE9851882851983F08A4E
:103163000E8B0F8A828B83A3A3A3A3A3A3A3A3E0A2
:10317300F912175D8A088B09EA4B700302322DE5B9
:103183000E1256501241E0123BBF851882851983F7
:10319300E060030232307C04850E82850F83A3A393
:1031A300A3A3A3A3A3A3E0F9121763EE4F607B8E3F
:1031B300828F83A3A3A3A31243FA7407120B2C12C7
:1031C300663C1243FA7409120B2C124F58C0E07478
:1031D30011120B2CD0E01269F3A3A3A3A3A3A3A3FF
:1031E3001243FA740F120B2C1271BA7412120B2CB5
:1031F300E4126DD6C8241FF582E438F5831261C149
:10320300C413135403FC70027C048E828F83E0F991
:103213007808120861742059FD744059F974031237
:1032230009171217F97402120874026DDE7C0885FF
:103233000E82850F83A3A3A3A3A3A3A3A3E0F912E1
:1032430017638B0BEA4B70030231AEEE4F60DB85E5
:103253001882851983E0F50C780C120865850882BD
:10326300850983A3A3A3A3A3A3A3E0F50C780C125E
:1032730008658A828B83A3A3A3E0FB8A82850B83E1
:10328300127A178A82850B83E0FA8E828F83A3A337
:10329300E0F912202174021208740231B274F71299
:1032A30003C474FA12093DE9FE780179017F0080B5
:1032B3000379000F125237E0FCEFC39C5026EF75E1
:1032C300F007A4FC85F008AD08EA2CFCEB3DFD12E9
:1032D3004823E0A2E050DA540C60D6E0A2E250D3D7
:1032E300780080CF8A828B83A3A3A3A3A3A3E070D8
:1032F3003DE9A2E0400574016E70338A828B83A39B
:10330300A3A3A3A3A374011235F4E0C0E0740312D2
:103313000B2CD0E0124882E0C0E07404120B2CD0D6
:10332300E0F07405120B2CE8126160121985740623
:10333300024AA0C082C0837901121805025F9C74FF
:10334300F41203C4EA4B9015C96019E4F08A088BA0
:1033530009F50AF50B78081208597A02122868123F
:103363000874800A7401F07A027B0012285502293E
:103373005074F01203C474F312093D7403120B2C3E
:10338300E4F0A3F090135D123BBF7401120B2CE425
:10339300F0A3124F2D04F090139BE0A2E35003021D
:1033A30034671235E87409120B2C120AF1740912EE
:1033B3000B2C7808120AD590135F78081208F7745B
:1033C30005120B2C7808120AB71234EB7405120B92
:1033D3002C7808120A9750077A017B000234D874BC
:1033E30005120B2C780C120AD59015B9E0F5097863
:1033F3000C7908120355A80CA90D9015BAE0C398CF
:10340300E4995003E08001E8851882851983F074FC
:1034130009120B2C7808120AD5C008C009C00AC0CB
:103423000B7405120B2C780C120AD51234EB780CA2
:103433007908120355E4F50AF50BD00FD00ED00D21
:10344300D00C780C79081209A690135F780C120A35
:10345300B780111234DD1271BAEEFAEFFB12106766
:10346300AE08AF09EE4F60658E828F83122ADBC3ED
:1034730098502DEE2403F8E43FF9E0FA888289831B
:10348300E0C39AF060237403120B2C124564740199
:10349300120B2CEEF0A3EF126657FEA3E0FF80C4DD
:1034A3008E828F83A3A3A3E4F08E828F83127EB1D7
:1034B3007401120B2C1256CD8E828F83A3A3A3A368
:1034C3006091126630120B2C1234E480897403125B
:1034D3000B2C1250BB740D026DE01243FE90135D72
:1034E300221261ECA3A3A3229015B8127EB9E4F5CE
:1034F3000AF50B2274F01203C48A088B09890A782F
:1035030000790090135D123BBFFBEE4B601E088EEB
:10351300828F83A3A3A3A3125085601008E87001D0
:10352300098E828F83123BBBEA4F70E39015BB1267
:1035330050BBC3E89AE99B40030235DB7A06123598
:10354300DEA80CA90DEA4970030235DB8A828B835E
:10355300E508F0A3E5091235FDE50AF09015BA1266
:10356300523F1235F4A3E4F0A3F090135D1250859B
:10357300600D8E828F83A3A3A3A31271BA801790C9
:10358300135D1271BA90139BE0A2E340091235E870
:1035930090135F120AF190139BE0A2E3503A7A086A
:1035A3007B00901342E0F9121127EA4B4C4D70282F
:1035B3009015B8E0F508A3E085080CF50DE4F50EC9
:1035C300F50F780C1208597A087B00901342E0F942
:1035D30012111B7404120874026DE37B0012106154
:1035E3008A0C8B0D22121133EAF8EBF9ECFAEDFB9E
:1035F300221235F8221235FDA322F08A828B83A38F
:10360300A322C082C083E99015CAF0901357743B7C
:10361300F0A37418F0901359744DF0A37418F0903C
:10362300135B745FF0A37418F0025F9C74F71203CA
:10363300C4EAFEEBFF8908EA4F7003120C119013E2
:10364300631256CD7008901363801E1243FA88826A
:103653008983A3A3A3A3A3A3A3A3A3124349A3A3BC
:10366300A3A3A3A3A3A3A370E2EEF0A3EF12368256
:10367300A3A3A3E4F0A3123682E508F0024AA3123F
:1036830036862212368A22F08E828F83A3A3A3A3C7
:10369300A3A32274F71203C4E9FD901363800D887A
:1036A300828983A3A3A3A3A3A3A3A3A31256CD6039
:1036B3003488828983A3A3A3A3A3A3A3E06D70DFAC
:1036C30088828983A3A3A3A3E06A7003A3E06B703A
:1036D300CE88828983A3A3A3A3A3A3E06C70C0E8CD
:1036E300FAE9FB80047A007B00024AA374F7120311
:1036F300C4901363123BBF901363126D2E68700264
:10370300EB697017EE24091243F49013631271BA34
:10371300901363123BBF8030123BB2EE4F60298E91
:10372300828F83A3A3A3A3A3126D2A687002EB69FC
:1037330070E68A828B83A3A3A3A3A3A3A3A3A31249
:10374300499DA3A3A31271BA121067EEFAEFFB020D
:103753004AA374F01203C474F912093D8A0C8B0D49
:103763008A828B83A3A3A3A3A3A3A3A3E0602F6451
:1037730001602B8A828B831269FD7022850C8285FE
:103783000D83A3A3A3A3A3A3A3A3E064037014744F
:103793000212091FAA0CAB0D1218DDE9701679028B
:1037A300023957850C82850D831243FA7402120B7A
:1037B3002C1271BAE50C24111271CC243412611A43
:1037C3001210618A088B09AE08AF09EA4F70030231
:1037D30039557C347D007900120FB9AA18AB1985CD
:1037E3000C82850D83A3A3A3A3A3A3A3A3A3E0F99F
:1037F300121FDF851882851983E0C0E012395CD07F
:10380300E0F0EE242EF50EE43FF50F7401120B2CBD
:10381300E0850E82850F83F07901EEFAEFFB121833
:1038230029850C08850D09750A00780812085D7C46
:103833001E7D00EE240B126CE6120874EE2432FA9D
:10384300E43FFBEE2434F8E43FF98A828B83127160
:10385300BAE50C2411FCE4350DFD8C82F583124E80
:10386300F124301271B4E50C12483512720D127E38
:10387300EE12085D8C828D83127A188A828B8312F2
:103883007EFA1208747402120B2C124408A3A3A329
:10389300A3E8F0A3E9125E948E828F83A3A3A3A36C
:1038A300A3A3A3125E9404123CFC242CF8E43FF976
:1038B300E8FA7508FF750900850E82850F83E078A5
:1038C300081209E18A828983E508F0EE242B123C71
:1038D300D37404120B2CE4F0E50C24151271CCA262
:1038E300E074055007120B2C74018004120B2CE4B6
:1038F300F0EE2429F508E43FF509740412091712C0
:103903001FF7E924FE850882850983F0EE2430122F
:10391300564212396412027CE88E828F83A3A3A3DA
:10392300A3A3A3A3A3F08C828D8312396412027C18
:10393300EA4B600F8E828F83A3A3A3A3A3A3A3A3A6
:10394300E004F0EE2420125B10440812421D7900BB
:10395300800279107407026DE0EE1264973FF583DD
:1039630022123F2FE0FA7B002274F41203C4EAFE12
:10397300EBFF1241A012650B9015AEE0F8EE242D7B
:10398300125B10C3984003023AD5123ADD7012EE6F
:10399300242D125B100412527BC0E0123CC9D0E00C
:1039A300F0123AE5FA7900800109EE242E125B1039
:1039B300F8E9C3985026750801750900E9780812DB
:1039C30009E1123ADD550860E0E92AFA7508017544
:1039D3000900E978081209E1E04508F0EE2429120C
:1039E3005B10FBEE2430F582E43FF583EA8BF0A411
:1039F300F8ACF0E42CF9E098F8A3E099F9EBFCC3F8
:103A0300E89CE99400EE40312429125B10F8123A45
:103A1300DD602C12395C123AF4A3E4F0EA7047EE4D
:103A23002420125B104420124F5CC0E0125269D074
:103A3300E0125273FCA3E08055123CCA74FFF0906D
:103A43001391E0FC9015B1123AEBADF075F064A45C
:103A5300FCABF075F064EDA42BFD8E828F83A3A3E2
:103A6300ECF0A3ED80B5EE2420125B1054DF12526C
:103A730064EAF0FCEE2429F582E43FF583123AEB85
:103A8300FCADF0EE2432125B102CFCA3E03DFD12E2
:103A93006CDEECF0A3ED12677FC0E0EE2425F58227
:103AA300E43FF583D0E0F0EE241CF582E43FF58398
:103AB300E8124F289013651256CD600AEA1262F499
:103AC30012204AE97011EE240BFAE43FFB1218B3FB
:103AD30080057BE9123CE7022950EE242B125B910F
:103AE300F422EE125225E022E0F508EC8508F0A45A
:103AF30022125B37A3A3F02274F41203C49013635E
:103B0300123BBF1211338A0A8B0B78FF79FF802097
:103B1300E0C39AFCA3E09BFDC3EC98ED99500E8E95
:103B2300828F83A3A3E0C39AF8A3E09BF9123BB26D
:103B3300EE4F60538E828F831250BBE50AC39AFA0D
:103B4300E50B9BFB127A12C3EA9CEB9D8E828F835B
:103B5300A3A340BCA3A3A3A3E0640270171241C2B2
:103B630060091241CB1250BB120FD1EEFAEFFB12D8
:103B730018358007EEFAEFFB1218417A017B0090AB
:103B830015CA125680802574FF68700374FF69603C
:103B93001B88088909E4F50AF50B78081208597A95
:103BA300017B009015CA12286D1208740229508EE9
:103BB300828F83A3A3A3A3A3A3A3A3A3E0FEA3E052
:103BC300FF2274F31203C48A088B09ECFAEDFB8914
:103BD3000C7C01E5082411123CDD12182F8A0A8B94
:103BE3000BAE0AAF0BEA4F7003023CC4E50C600353
:103BF300023CC4E5082413125B29F8EA123AE6688A
:103C03006003023CC4EA12522E125B4A8E828B83FB
:103C1300A3A3A3A3A3A3A3A3E0FAE89AE99400C3ED
:103C230065D0334012E5082414125B29F470087B35
:103C330000123CE7023CC4E5082414125B29F4702B
:103C430049EE242BF8E43FF9E8FAE9FBEE242EF8D9
:103C5300E43FF9E8FCE97508FF7509008882F583FC
:103C6300E078081209E18A828B83E508F0EE242CC0
:103C7300123CD38C828983E0F8123AE528F0EE24D3
:103C83002DF582E43FF583E48021E5082414F8E46C
:103C93003509F9E0C0E0EE242CF582E43FF583D04A
:103CA300E01260EFC0E0123CC9D0E0123CFC1239D4
:103CB3005D125B32A3124F287A01FB9015CA12568C
:103CC300807F050205D9EE242BF582E43FF583229C
:103CD300F582E43FF583E508F022F582E43509F542
:103CE30083E0F922EE2422125B91FA123F09126A51
:103CF300ACEEFAEFFB12183522F01211338E828FDD
:103D030083EAF0A3EBF0EE2274F01203C474FB1207
:103D1300093D7403120B2C124F22E9851882851971
:103D230083F08A0A8B0B8A828B83A3A3E0F9122088
:103D3300038A0E8B0FEA4B70077A007B00023F0465
:103D43007A1212740A7003023F007C127D0079001C
:103D5300120FB97401120917850A82850B83A3A375
:103D6300E0F9121FDFE508240FFEE43509FF7402B2
:103D7300120B2C125B37F07902AA08AB091218292F
:103D83007403120B2C1264DF123F27123F3F2411DE
:103D9300123F13850882850983A3A3A3A3A3A3A327
:103DA300F0750CFF750D008E828F83E0780C12097D
:103DB300E1E508240C126750E50C126DC7F8A31255
:103DC30062F5E0C0E0E508240B126750D0E0F0E5AF
:103DD3000A123F1D123F16FAE508240D126750EA36
:103DE300F0E50A124835123F168AF0A4A9F02427F9
:103DF300FAE439FB120FCB8A0C8B0DAE0CAF0DE539
:103E030008123F1D3509126509EA4F7003023EF39C
:103E13008A828B83741A124F288A828B83A3A3F01E
:103E2300A3123F53125254126636120B2C127A18F5
:103E3300EA126F74121FE5850A82850B83A3A3A37D
:103E4300E0C0E0125B1DD0E0F09013AE124EF124FF
:103E530010123F39124804350BF583124EF11261EB
:103E6300F6E8F0A3E9123F53124EED126C31E8F07D
:103E7300A3E9123F45E0C0E0123F09D0E0F0E50AB4
:103E8300240C123F13C0E0EE1248043FF583D0E048
:103E9300F07415120B2C126C3EC0E0126F6BD0E065
:103EA300126771C0E0126C24D0E012488AC0E0129D
:103EB3004E8ED0E01256D2C0E0124E75D0E0F074B0
:103EC30017120B2C120AFDEE241AF582E43FF58338
:103ED300120AF1EE2427F8E43FF9EE2422123F39C7
:103EE3001260E1123F16C0E0126D00D0E0F0800DC9
:103EF300AA08AB09121835750800750900AA08ABA2
:103F0300097405026DE0EE2414F582E43FF5832283
:103F1300F582E4350BF583E022EA123F21222410D7
:103F2300F582E422123F2FA3A3A3A3221244028506
:103F3300088285098322F582E43FF583124F52E517
:103F43000A22123F4922F0850A82850B83A3A3220A
:103F5300123F49A3A3A3A32274F01203C474FE1255
:103F6300093D851882851983124F228A0E8B0F898A
:103F73000DC200EA1241D7E0F50C9013651256CD3D
:103F8300600EA90C1262F512204AE9600302419BFC
:103F93007C021241FC1241A8F912182F8A088B09DE
:103FA300AE08AF09EA4F7055850E82850F83A3E0F3
:103FB300A2E0400302419B7414120B2C1206E87416
:103FC30016120B2C1206ECA90D7406120B2C127A86
:103FD30018AA0EAB0F12185374061208748A088BB2
:103FE30009AE08AF09EA4F700302419B8A828B83B3
:103FF300A3A3A3A3A3A3A3A3E50C12421DAA0C8E00
:10400300828F83A3A3A3A3A3A3A3A3E024FFF8E422
:1040130034FFF9E86A497002D2001241C270030208
:104023004157850E82850F83A3E0A2E05003750CF0
:104033000012420AE50C98E499C365D033401CE0B2
:10404300F8EE240E125B102CF07508FF750900ECD6
:1040530078081209E1EE240C123CD31241B1126D1F
:104063003B12085D1261FFEE240D125B10F508E5AB
:104073000C8508F0A4FAABF0124EB02422F582E4CA
:1040830038F583E02AFAA3E03BFB1271E1120874CE
:104093007508011241E578081209E1125B0D450824
:1040A300F0A200506BEE240CFAE43FFB7508FF12FC
:1040B30041E50478081209E18A828B83E0450812FE
:1040C3004F08F8E50CF508E88508F0A4F8A9F01204
:1040D30041B9FCE82CFCE439FD124EB02420F582F2
:1040E300E438F583ECF0A3ED125F92F47022EE2432
:1040F3000BF508E43FF5091241CB1250BB8508824A
:10410300850983126DC185088285098374FF804305
:104113001241A012650B901391E0FA9015B1124170
:10412300F3FAABF09015AE1241F3F8ACF08508F05A
:10413300EBA42CF9EA28F8EB39F9E875F064A4F854
:10414300AAF075F064E9A42AF98E828F83A3A3E809
:10415300F0A3E9F0AA0C12420A126EB5E86A7001E4
:10416300E9600CEE240C123AE06004A2005029EE40
:10417300240E125B10C0E0E50E1241D7D0E0F0121E
:104183005B0DC0E0E50E24141241DDD0E0F0AC0E6F
:10419300AD0F1241FC1218A17402026DE01211332B
:1041A3008E828F8322E50E24111241DDE022E50E7B
:1041B300240E1241DD22E50E24101241DDE022EE31
:1041C300125C66125B94F4221241CF22EE123F215D
:1041D3003FF5832224131241DD22F582E4350FF5E6
:1041E3008322750900125B8EF5F0E50C84E5F0225D
:1041F300E0F508EA8508F0A4228518828519831260
:10420300623CFAA3E0FB22EE240E125B91F8125BF0
:104213008EFCE82CF8E43400F922F07A017B00905C
:1042230015CAE0F912100D22C082C0839015CA127C
:104233006DC1025F9C74F41203C4EAFEEBFF548069
:10424300704BEAA2E05056121847EE6401FAEF8071
:10425300498A828B83E06401702CEA12674E12064E
:10426300E8EA1242A7120861EA2412123CDDEA24AA
:1042730002FCE43509FDEA2419FAE43509FB1218B6
:10428300597406120874AA08AB09120FD19015CA03
:104293001242B370BCEEFAEF6480FB80047A007BB9
:1042A30000022950240FF50AE43509F50B780A2298
:1042B300E0F9120FE38A088B09EA4B2274F2120326
:1042C300C4890B8A088B098A828B831250BB12180C
:1042D30071EA4B600479B8806A12187DE9F8902678
:1042E3002FE493F9E8C399400479B280567A151202
:1042F30035DEAE0CAF0DEA4F7004791080458A822B
:104303008B83E4F0A31235FDE50BF0750A00780802
:1043130012085D7C127D00EA2403126CE612087415
:104323009013671256CD7008901367800C1243FAEE
:104333008882898312434970F4EEF0A3EFF01218D8
:104343008F79000251A71250BFEA4B8882898322DA
:10435300C082C08390136780048C828D83127A1885
:10436300EC4D60288C828D83A3A3E069600574FF04
:104373006970E68C828D83A3A3A3E06A7003A3E034
:104383006B70D6EC2403FAE43DFB80047A007B00D7
:10439300025F9C74F71203C4E9FD74FE6D70047C24
:1043A3000180027C0090136780096D70027C018894
:1043B3008289831256CD601F88828983A3A3A3E0D9
:1043C3006A7003A3E06B70E7ECA2E088828983A3A1
:1043D300A3E050D6F9800279FE024AA3EEF9800CDD
:1043E300A3A3127EB9EE2274021208747F0202059F
:1043F300D9F582E43FF5831243FE2212440222E000
:10440300F8A3E0F92212440C221244028E828F8315
:10441300221208747F030205D9C082C083790090F9
:104423001367800109E0FAA3E08A82F583E58245F8
:104433008370F1025F9C74F61203C4E4F508F50976
:10444300780812086190262FE49375F013A4A9F05D
:10445300124559127218120874E9FE74096E70033A
:104463001218890243DF74F61203C474FE12093D65
:10447300851882851983E4F0A3F0A818A919880880
:10448300890978081208617508027509007808120D
:104493000861126E801208740243EA74F51203C4B1
:1044A30074EB12093D851882851983E4F0A3F0901B
:1044B300136780748E828F83A3A3E0C0E07402121B
:1044C3000B2CD0E0125B7EA982AA8389088A097526
:1044D3000A00780812085D7C127D007406120B2C0A
:1044E3001271DD120874740212090F8808890978A1
:1044F30008120861750813750900780812086174B9
:1045030004120B2C12567075F013A4F8AAF075F070
:1045130013E9124555126E8812087485188285199D
:10452300831245648E828F83123BBFEE4F7085A842
:1045330018A919880889097808120861750802758D
:1045430009007808120861126E801208747415024B
:104553004414A42AF9E82402FCE439FD7A427B00DE
:1045630022E02401F0A3E03400F02274F41203C427
:1045730074EB12093D7E007F00A818A919880889E9
:104583000978081208617508028E09780812086113
:104593007C007D007A42127224120874E9706C8EDA
:1045A300088056740212090F880A890B780A1208C8
:1045B30061750A13750B00780A120861E50875F036
:1045C30013A4F8AAF075F013E509124555127226E3
:1045D300120874E9701B7403120B2CAA82AB837448
:1045E30002120B2CE0F912186BE970050EEE700144
:1045F3000F0508E5087002050985188285198312DD
:1046030043FAC3E50898E509994098EEFAEFFB747D
:104613001502294D74F61203C48C828D83A3A31251
:104623004870F0EA12649D3BF583E0C0E012482D28
:10463300D0E0F0EA241DF582E43B1243F81248115E
:1046430012486BF0A3F0EA241FF582E43BF58312D2
:104653003BBFEC1248043DF583EEF0A3EFF01248A4
:104663000A3BF58312483BA3A3A3A3A3A3EEF0A3A2
:10467300EF1260EFFE8C828D8312487A74035EFE24
:10468300C3940340030247F7EE600874026E6003AD
:1046930002471C8C828D83E0540CFE740C6E7003F5
:1046A30002475BE0A2E4400D88828983E08C828D1F
:1046B30083A312489074086E600302475B12481B81
:1046C3007401F08A828B83A3A3A3A3A3125B447018
:1046D300148C828D83E0440C124882A3A312483BBE
:1046E300EEF0A3EFF08C828D83E0A2E4402B88826E
:1046F30012484912485E500109F582124849A3A3A2
:10470300A3A3A3A3F0A3EF12488A8C828D83A3A350
:10471300A3F0E82403F850010988828983E0C0E00C
:10472300EC2411F582E43DF583D0E012487A8C82C3
:104733008D83E0A2E7507588828983E0FE8C828DA9
:104743008312489074FC5E700C8C828D83A3E054BA
:10475300036403701E0247F712481BE4F0740C6EE7
:1047630060030246C6888212484F12485E50010910
:104773000246E88C828D83A3E054036032888289E9
:1047830083E0C0E0EC1248353DF583D0E012489158
:104793008C828D83E054036402701488828983E0E1
:1047A300C0E0124823D0E01248918003A3E4F0EC68
:1047B30012563C3D1271B8EC2410FEE43DFFEA248E
:1047C3001DF582E43BF583E0F5088E828F83E0C319
:1047D300982508F508F0EA2417F8E43BF98882F5F0
:1047E30083E0C39508C0E0124811D0E01260EFC324
:1047F3009508500A124811E4F012482DE4F00243E0
:10480300EF2415F582E422EA240DF582E422EC2458
:104813000DF582E43DF58322EC1257F53DF5832235
:10482300EC2414F582E43DF58322EC123F213DF59F
:1048330083222413F582E422E0FEA3E0FF8C828D21
:1048430083A3A3A3A32212484FA3A3228983E0F542
:1048530008A3E0FFE5088C828D8322A3A3A3A3F022
:10486300A3EFF0E82402F822124870A322E4F08CAC
:10487300828D83A3A3A322124898A882A98322121C
:1048830035F8A3A3A3A322124898A3E022A31248B6
:104893009808A983221260F8A32274F41203C47443
:1048A300F312093D8A0A8B0BECFEEDFF8C82F58334
:1048B300E0540CF508E0A2E75006E508D2E7F50856
:1048C300E508D2E1F508125B447006E508D2E4F589
:1048D30008E0A2E55006E508D2E5F5087C087D006E
:1048E3007900AA18AB19120FB97402120B2CE50840
:1048F3001271BEC0E07403120B2CD0E0124F2DE5F1
:104903000AF0A3E50BF07405120B2C126A1A120BB2
:104913002CE070777408120B2C124EB31260E1383E
:10492300126A35C0E07408120B2C1249B1D0E012A0
:104933006A15C0E07408120B2C1249A7D0E0F0747A
:1049430008120B2C12499DE0124EDB124F5C1264CD
:10495300FEEE2411125B10C0E0124993D0E0F0EE9A
:104963002414125B10C0E07408120B2C124EB324F3
:1049730035F582E438F583D0E0124F00C0E07408C7
:10498300120B2C124EB7D0E0126768740D02294D3A
:10499300E82432F582E439F5832212440CA3A3A35D
:1049A300A3A3A322124EC7126C1438F58322124E0E
:1049B300C72426F582E438F5832274F71203C47EF4
:1049C300008A828B83A3A3A3A3A3A3A3A3A3E064CB
:1049D300046003024A7F1257EDE06003024A7F122C
:1049E300564F3B1256CB7003024A7F88828983E07D
:1049F30054036003024A7FE81257F539F583E0FA5E
:104A03008C828D83A3A3E0FBA3E0CB2411F582E486
:104A13003BF583E06A706588828983A3A3A3A3A37C
:104A2300A3A3A3A3124A83E06A7003A3E06B704CB1
:104A330088828983A3A3124A8FE0FFA3E0CF2406D1
:104A4300125B106A7003A3E06B703188828983A3C1
:104A5300A3E0F88C828D83A3A3E0F9A3E0F5838917
:104A630082A3A3E06860138C828D83A3A3A3E0F5E4
:104A7300838982E0540C640470027E01EEF9802085
:104A8300124A87221250C38C828D8322A3A3124A17
:104A930087A3A322740C120B2CE0F9740D12087473
:104AA3007F010205D974F61203C474FC12093DEAAE
:104AB300FEEBFFECFAEDFB8C82F583A3E05403607D
:104AC300169013591256CD60597900EEFCEFFD1282
:104AD30062F512204A804B851882851983EEF0A374
:104AE300EFF07402120B2C124F22AC18AD197AA7F7
:104AF3007B18121ACF8A088B09A808A909EA49600A
:104B0300218A828B83A3A3A3A3A3A3A3A3A3740632
:104B1300F07A0088828B83124EB31264BEE0F912DE
:104B23001A2D74040243EC74F21203C474F31209D1
:104B33003DEAFEEBFF8A82F583A3A3A3A3A3A3A36A
:104B4300A3A3A3E0F50A9015C9E0700579BA024E54
:104B530068750801750900750C00750D007C087DEA
:104B6300007900AA18AB19120FB97405120B2C7433
:104B730001124F35540460127402120B2CE0D2E67A
:104B8300124F3554087003750803E054106006741F
:104B9300404508F508E0540860227402120B2CE02B
:104BA30044C0124F355420600A7403120B2CE0D218
:104BB300E080087403120B2CE0D2E1F0EE2415120E
:104BC3005B10124E987003740169700674084508EF
:104BD300F5088E828F83A3A3A3A3A3A3A3A3E0704B
:104BE30016121B2985188285198312650B7402120C
:104BF3000B2CE0D2E28030640F70107402120B2C85
:104C0300124F3D74044508F508807F8E828F83A37D
:104C1300A3A3A3A3A3A3A3E064028E828F83700A3A
:104C23001271F1E8F0A3E9F08060A3A3A3A3A3A307
:104C3300A3A3E06403700DAC18AD19EEFAEFFB12F9
:104C430018DD80468E828F83A3A3A3A3A3A3A3A36C
:104C5300E0640170359013F1E060107402120B2CC4
:104C6300124F3D750910750AFF80187402120B2C40
:104C7300E0440C124F2D74FDF0A374FFF07404454F
:104C830008F5088E828F83122860EE2415125B10BC
:104C9300A2E0503F7402120B2CE0540C701B8E8266
:104CA3008F831250BB12151DE9700579BB024E6844
:104CB3007402120B2CE0D2E5F0EE2415125B10A265
:104CC300E050107402120B2CE0540C64047004E0E6
:104CD300D2E5F0EE2411125B10C0E07404120B2C29
:104CE300D0E0126A1C120B2CE06003024E617408C0
:104CF300120B2C124EF6E508F0A3E509F0124E8EC6
:104D0300E0C0E0124E84D0E0F0124E75E0C0E074D3
:104D130008120B2C124EB312483538F583D0E0122B
:104D23004F5C640170119013F1E0C0E07408120B42
:104D33002C124ED1D0E0F07408120B2C124EF1124B
:104D43004E7FFAE8241CF582E439F583EA124F28F2
:104D5300EE2415FAE43FFB8A82F583127A18E812EF
:104D63005E4C39F583124F22EE241C125B10C0E017
:104D7300124E6BD0E0125F92124E98700374016969
:104D830070137408120B2C1257DDFAEE241D125BFC
:104D930010F91217698E828F83A3A3A3A3A3A3A3DE
:104DA300A3A3E0C0E07408120B2C1249B1D0E0F0C9
:104DB3007408120B2C1249A7E50AF07408120B2C85
:104DC3001256702428F582E439F583E50CF0A3E547
:104DD3000D124F08124EDB125B891264FEEE124E67
:104DE3007FC0E0E82433F582E439F583D0E0F0EEC8
:104DF300241B125B10C0E07408120B2C124EB7D0A8
:104E0300E0F0EE241A125B10C0E07408120B2C12AF
:104E13004EB32432F582E438F583D0E0124F00120A
:104E23004EA412085D126C1A127A18740B120B2C12
:104E3300124EB3242F127EF4120874EE2415125B63
:104E4300105440601290137D1256CD600AAA18AB1D
:104E5300191262F512204AAA18AB1912194F740CD1
:104E6300120B2CE0F90251A2E82420F582E439F573
:104E73008322EE2419F582E43FF58322126C29E0A4
:104E830022E82412F582E439F58322EE2418F58210
:104E9300E43FF583225480F8A3E05401F974806859
:104EA30022F508A3E0F509750A007808221241CF1C
:104EB300124EC722124EC72434F582E438F58322FA
:104EC300A3A3A3A3124ECB22E0F8A3E0C822124E61
:104ED300C712480438F58322FAA3E0FBE8242AF535
:104EE30082E439F583EAF0A3EB22A3A3A3A312433D
:104EF300FEEE2212567412565439F58322F0EE2434
:104F030013125B9122F0EE240D125B9122E0FC8AD6
:104F1300828B83E02CFCA3E03400FD8A828B83EC3C
:104F2300F0A3EDF022F0A3E4F022F08518828519B6
:104F33008322F0EE2415125B9122E0D2E3F0124FAC
:104F430045228E828F83124402851882851983E855
:104F5300F0A3E9F022E8F0A3E9126651E02274F726
:104F63001203C48A828B83A3E0640170047E63808E
:104F7300027E648A828B83E060087905124F952450
:104F8300F3FE901399E06007F9124F9524F2FE02A5
:104F93004A7F1219F7E9F8EEC3982274F61203C494
:104FA30074FE12093D85188285198312650BE9FE8B
:104FB300ECFAEDFB9004301256CD6032A818A91913
:104FC3008808890978081208617D01740E120B2C78
:104FD300E0FCEEF99004301264DF12204A740212EE
:104FE3000874EA4B60047900800679B2800279B6CE
:104FF3000243EA74F71203C4E9FE90134F1256CD2D
:10500300601F7409120B2CE0F5087808120865EE8E
:10501300F990134F1264DF12204A7401120874804E
:105023000279B6024AA374F71203C48908ECFEEDB1
:10503300FF79B5E508245E602014600624F8603427
:10504300803D900432125085603512723512204A29
:105053008E828F8312650B8024901351127A18EC81
:105063004D601CEEFCEFFD9013511264DF12204AD9
:10507300E9F9800B90134D12508B12114B790002FA
:105083004AA31250BFEA4B22127A1CEEFAEFFB221C
:1050930074F71203C4E9FE79B574AB6E700B901309
:1050A3004D1250BB12114B7900024AA38E828F839B
:1050B300A3A3A3A3A3A3A3A31250BF221250C3224B
:1050C300E0FAA3E0FB2274F11203C4EAFEEBFF8CC7
:1050D3000A8D0B7508019013A1E06E7003A3E06FB6
:1050E300700C125196AA0AAB0B12114B805E121B65
:1050F3002FEE6A7002EF6B7009AA0AAB0B121B3515
:10510300804AAC0AAD0BEEFAEFFB12163DE9F50847
:105113009015C0E07036121F55E97030E508702C09
:10512300901371E06E7003A3E06F7020EE4F601C6C
:10513300750C69750D13750E00780C12085D7C08EB
:105143007D00AA0AAB0B1271E1120874A908027B55
:105153001474F21203C4EAFEEBFF8C088D09750A7E
:1051630001125196EEFAEFFB121145E96401701139
:105173009013A11243FA8508828509831271BA80BC
:105183000EAC08AD09EEFAEFFB121643E9F50AA9D6
:105193000A8011121B238A0C8B0DAC0CAD0D2274EB
:1051A3000D1208747F060205D974F61203C4EAFED1
:1051B300EBFF7A0D7B00121061EA4B6062EE242450
:1051C300126EBEF0EE2425126EBEA3125264126E4E
:1051D300C4A3A3126C4712523FF0EE12522512528F
:1051E30054E8F0A3E912527B12524C1271BAEE1238
:1051F300522E126D0AA3A3A3A3F0EE2433125B1065
:10520300C0E0125237D0E0126A3912524CA3A3A362
:10521300E8F0A3E9125273C0E01257EDD0E0F002B8
:1052230043EF242AF582E43FF58322242EF582E41A
:105233003FF58322EA125C663BF583221252432236
:10524300E08A828B83A3A3A322126D69A3A3A3A3E2
:1052530022125258221244028A828B83A3A3A3A34D
:1052630022F012526922EE2426F582E43FF58322CE
:10527300F0EE2432125B9122F0EE242C125B912289
:1052830074F41203C474FE12093DECFEEDFFEC242A
:1052930016125B1064057010EC2406FCE43FFD124B
:1052A30018D7E9700302532FAC18AD19126F73129C
:1052B30015238518828519831256CD606B8E828FD4
:1052C30083E064017058E875F009A4F8AAF075F05A
:1052D30009E9A42AF974C628F8740039F9E8FAE947
:1052E300FB8882F5837808120AD5EE1253D1120A8D
:1052F300974027851882851983124EF1125B1E127F
:1053030053347808120AD590813B78081209F48A3D
:10531300828B837808120AB7800A79A28010EE2460
:105323000F1271B47900800679A1800279C802292D
:105333004B124F52EE126C352274F21203C48A0CD4
:105343008B0DECFEEDFFEC125B1EE4F0A3F09081FD
:105353002B7808120AD5EC1253D112097D6067EC41
:10536300240E125B17703478B3901398E070289072
:1053730013CAE064017020EC2411125B10F91219B6
:10538300DF8B09A909EE1256503F126509EA4960FD
:10539300047800800278A18808802EE0600464020B
:1053A300700A1218E9E9F5087007801DE0640370BC
:1053B30010EEFCEFFDAA0CAB0D121547E9F50880C2
:1053C300087508A180037508A3A9080251A7126CE8
:1053D3003578082274F01203C474F512093DEAFE0D
:1053E300EBFFEA240AFCE43F8C82F583127EB512BC
:1053F300565A740312091F8A828B831262FFE97063
:10540300030254C0740112091F7403120917121501
:10541300237401120B2C1256CD70030254C0E8758D
:10542300F009A4F8AAF075F009E9A42AF974C228CE
:10543300FC740039FDE508240E126750E4F00412F1
:105443000B2C1243FAE50812565035091271B88C29
:10545300828D83120AFDE5082412126750120AF1A5
:1054630090813B7808120AD58C828D837808120AC2
:10547300538C828D83780C120AD590814778081259
:105483000AD5780C7908120355E5084509450A45FC
:105493000B702A7401120B2C12567075F009A4F8C4
:1054A300AAF075F009E9A42AF974CA28F5827400F0
:1054B30039F5837401F07A007B0812567D8E828F52
:1054C30083A3A3A3A3A3A3A3A3A3A3E02406FCA34F
:1054D300E03400FD8E828F831262FF126A27603EE2
:1054E300EE240A125642124EF67468124F28E8123E
:1054F300563C39F5837402F0901383120AFD8C82B3
:105503008D831264F81260E13CF583120AF19081F5
:105513003B7808120AD59013837808120A5312565F
:10552300B8705D90134D125668A3A3A3A3A3A3A3BE
:10553300A3A3A3126117121145E970101260D5904D
:10554300134D1260E77005126A2760348E828F83D1
:10555300A3A3A3A3A3A3A3A3A3A31256681250BBFD
:1055630012154DE960118E828F83A3A3A3A3A3A376
:105573001256A4E4F0A3F08E828F8312568AE4F0CD
:105583001256B860030256378E828F83A3A3A3A358
:10559300A3A3127EB1901398E0600302562C9013DC
:1055A300CAE06401600302562C750A3A750B007851
:1055B3000A120861740212090F880A890B780A1209
:1055C30008611274B0120874E9705BE508240E12C6
:1055D300675074011256D2C0E0E5082411126750D7
:1055E300D0E0F0E508240F126750743A124F289068
:1055F300137F120AFDE5082412126750120AF19074
:10560300813B7808120AD590137F7808120A5390C9
:10561300813B7808120AD590137F780812097D70B0
:1056230008125679800312565A1256B87006125F42
:10563300D874A1F0740B026DE0240EF582E422F815
:10564300E43FF9E8FCE9FD8882F58322EA12565427
:1056530022240FF582E422E5081256543509F58316
:10566300E4F0A3F022127A1C8E828F8322125674E6
:1056730022124402E8227A007B02901226E0F912F9
:10568300100D228A828B83A3A3A3A3A3A3A3A3A303
:10569300A312569822124ECB240EF582E438F583DA
:1056A30022A3A3A3A31256AC22124ECB240FF5823E
:1056B300E438F583228E828F83A3A3A3A3A3A3122B
:1056C3004EC3240FF582E438F5831256744922122F
:1056D30056D622F0851882851983E02274F61203C8
:1056E300C4EAFEEBFF7A237B00121061EE240AF575
:1056F30008E43FF5098508821265097C237D00795A
:1057030000120FB98508828509831256CD700302F2
:1057130057A0EEFAEFFB1218F51256B860748E829A
:105723008F831257D364018E828F83A3A3A3A3A372
:10573300A370071257C9740E80211256CD70101230
:105743006A27700B8E828F83A3A3E0A2E050071217
:1057530057BF740D80051257BF7405126A3954037D
:10576300640170071257A77405800B901399E0C06A
:10577300E01257A7D0E01257E2F5838882125B3D0F
:10578300850882850983124EB312649D38F583E937
:10579300800E85088285098312658280031264C5A1
:1057A300F00243EF8E828F83A3A3A3A3A3A3A3A398
:1057B300A3A31257B922E01264E4A3228E828F833B
:1057C300A3A3A3A3A3A3124EC31264A338F58322F6
:1057D300A3A3A3A3A3A3A3A3A3A3125698E0221254
:1057E30057E622126F88F8A3E022EA1257F53BF539
:1057F3008322240CF582E42274F11203C474E412AC
:10580300093D8A0C8B0D8C088D097A237B001210BD
:10581300618A0A8B0BAE0AAF0BEA4F7003025AF888
:105823001264A9E5082415125B29687003A3E069D3
:105833008E828F837004740280027401F0E5082461
:105843000DF8E43509F98882F583E0FAC3E49AFA9E
:1058530095E0FB125B252AFAA3E03BFB8E828F8344
:10586300A3A3A3A31260FE8E828F83A3A3F0EE24CF
:1058730020F582E43FF583E4F0EE2421F582E43F52
:10588300F583E4F0EEFAEFFB1219A9850882850986
:1058930083125B4470098E828F83A3740580069004
:1058A3001399125B32F0EE2417F50AE43FF50B8EE1
:1058B300828F83125B3DE9850A82850B83F0EE2498
:1058C30016F8E43FF9E508240EFAE43509FB88826B
:1058D3008983124F10E5082410FAE43509FB850A81
:1058E30082850B83E0FC88828983E0F88A828B833C
:1058F300E0C398C39CF8125B7EF0EEFCEFFDAA0CAC
:10590300AB0D1218EFE9F50B8E828F83E064027002
:10591300061260D5125B02E50B6003025AEF750CA9
:1059230000750D009015C0E064016005E06402702D
:105933003F125B146008EE2421125B1770328E82D3
:105943008F83A3A3A31264CB125B4AEE2416125BCC
:1059530010125B73FAE439FB1235E0EA4B60111263
:105963006D3312085D125B58AA0C1271E1120874B0
:10597300EEFAEFFB1219B5E9F50B9015C0E06401DF
:105983006008E064026003025AE2E97003025AE22B
:10599300E50C450D7003025AEF8003850E0B125B75
:1059A30014600BEE2421125B176003025AE8850B87
:1059B3000E850C08850D09750A00780812085D121A
:1059C3005B588E828F83A3A3A3A3127EFA1208745B
:1059D300EE2420125B10600D125B1D7468124F28B9
:1059E300EE24208015EE2421125B106015125B1D3E
:1059F3007403F0A37401F0EE2421F582E43FF583F0
:105A0300E4F0EEFAEFFB1219B5E9F50B70907C1395
:105A13007D0079007409120917120FB9741A120B59
:105A23002C7401125B8964687002A3E0704F8E824C
:105A33008F831256A4E06405600302599E7C0879A3
:105A4300FF8E828F83A3A3A3A3E0242A12611A12D9
:105A53001043E9700302599E7C087D0079FF7401AD
:105A6300120917120FB9740112091F7A007B00790A
:105A7300AB1218D17419120B2C74FC8015125B1D18
:105A8300E064037004A3E0640170087419120B2C22
:105A930074FFF0E4F508F50978081208617402123E
:105AA300091F7413120B2CAA82AB83126608120807
:105AB30074851882851983E0602B740912090F8895
:105AC30008890978081208617508137509007808B0
:105AD3001208617C007D00126E881208748006E54E
:105AE3000C450D6007AA0CAB0D121067EEFAEFFB25
:105AF3001210678003750B10A90B741C027B11EE47
:105B03002406FAE43FFB12114B22EE240C125B91A4
:105B130022EE2420125B91640122EE1256543FF5CB
:105B23008322E508240EF582E43509F583E0221289
:105B33005B37A322E08E828F8322A3E0F91219F749
