:020000040000FA
:06000000021162020787F5
:03002B00020EE9D9
:03003300020AD6E8
:030053000206B6EC
:03007B00020A95E1
:10008300020718010100F0FF0700080000FFFF004E
:10009300000504000000030001FF0020FD0002062C
:1000A300FFFF1E010100FC11000000921900000077
:1000B3000000000000000000000000010104010036
:1000C300000002928104F98001040000381200004C
:1000D30000E8030000FFFF89120188130000E80312
:1000E300000064006400B801A0BB0D00A0BB0D00BC
:1000F300020202070401051E02051E020A0A01018B
:1001030008080103B80B02803E0102FEFFE8030A60
:10011300050001FFFF020A011401E005030101FFCD
:100123000FD72A00000000AB2900000000FF0000E9
:1001330000FF00121172601D121181700519191947
:10014300801A12104D701F121061C37003E66733DB
:1001530019191940071818182208080874FFF61807
:10016300F618F618F622121061601712120F70219A
:1001730092F01212187019501720F0140808080989
:100183000909E7F61819E7F61819E7F61819E7F653
:100193002212121860E6E869701F0808E62480F648
:1001A30008E436F618547FB47F0CE654806007F6F3
:1001B300E418F618F622181822E9C6CC08C6CD08AA
:1001C300C6CE08C6CFC0E0E8C0E0EAC0E0EBC0E0BE
:1001D30009E9F809E7FA09E7FBE6F918E6F8C3ECD9
:1001E30098ED99EE9AEBC2E7F5F0EFC2E795F05080
:1001F3000E600CEBCFFBEACEFAE9CDF9E8CCF8EAD6
:10020300A2E7D2E7FAEB33FB13F5F0EEA2E7D2E76E
:10021300FEEF33FFC5F013A2E730E601B313C5F0D9
:10022300C3C0E0C0F07F00C39BFB605E9418600F07
:10023300401D14601AD0E023F9D0E0F80203178AB6
:10024300F0E9486003D2F0E4AFF0FAF9F8803BEB51
:1002530030E40D89F0EA6003D2F0E4AFF0F9CAF8B4
:10026300EB30E30D88F0EF6002D2F0AFF0E4CAC9DF
:10027300F8EB54076014FBC3EA13FAE913F9E81324
:10028300F8EF135002D2E0FFDBEDD0E0C0E030E73F
:1002930039C3E49FFFF5F0EC98FC42F0ED99FD4281
:1002A300F0EE9AFE42F0D0E0F9D0E0F8E5F0607AA3
:1002B300E923F9EE20E742D8028067C3EF33FFEC6E
:1002C30033FCED33FDEE33FE80EAEC28FCED39FD23
:1002D300EE3AFED0E023F9D0E0F84002801BC3EEF3
:1002E30013FEED13FDEC13FCEF135002D2E0FF08F5
:1002F300B800067F7F74FF802EEF3350178CF020F9
:10030300F00260100CBC000C0DBD00080EBE000412
:1003130008E860DFE933E813FFEE2313FE4F4D4C8B
:100323008008E95480FFE4FEFDFCEE33EF33F47004
:1003330004FCFD7E80D0E0FBD0E0FAD0E0F8D0E012
:10034300CFC618CEC618CDC618CCC6F92212117264
:10035300700418181822121181700D74FFF6181901
:10036300F61819F61819F622E7548066F6121218D1
:10037300700F12120F70F014F608F608F608F680E4
:10038300D112120F700CF608F608768008E6447F47
:1003930080EC121064700C12105060BFE65480F6AB
:1003A300E480BB121050700519191980A5E8697013
:1003B3000C763F18768018F618F6E8F922E6CDC0D9
:1003C300E018ECC0E0E633CD33CDD313F6E719FCE8
:1003D300E7191933CC33C3947F400ECD9D502408C5
:1003E300E65480F6E418F6800FF4043D1450140824
:1003F300E6447FF6187680E418F618F6D0E0FCD0D1
:10040300E0FD22CCD313CCFD18E4C6CBC0E018E446
:10041300C6CAC0E00808ED08C633E613F618E4338D
:10042300C675F003C3CA97CA09CB97CB199C40047E
:100433007D08802EBD00030204F916B6FF050606EB
:10044300081618C3CA33CACB33CB33CA27CA09CB5E
:1004530037CB193CC37D08803E187D0820E75CC676
:1004630033C6CA33CACB33CB33DDF1D5F0EB30E738
:100473007BCA97CA09CB974ACB199C406F4B70250F
:10048300E620E0218066187D08C3CA97CA09CB9786
:10049300CB199CD3C633C6CA33CACB33CB3350C96B
:1004A300DDE7D5F0E1D3E4C636C608C636C608C6CE
:1004B30036C608C636C61818188031C3CA97CA0983
:1004C300CB97CB199CB34097C633C6CA33CACB3339
:1004D300CB33DD34D5F02EC6A2E0C640C8CA27CA46
:1004E30009CB37194A70BECB3CB480B90808E63350
:1004F30008E633601F181818D0E0FAD0E0FBD0E00C
:10050300FCD0E0FD22187D08CA27CA09CB37CB19D6
:100513003CD3808013F618E4B67F11F618B6FF0EAD
:10052300F618C60470D20808768080CAF618F61842
:10053300F680C500121172604F1211816012E754E8
:100543008066F612104D701112120F703B090909E3
:10055300F4F618F618F618F6221210617015121236
:100563001808080860EAE6447FF618768018E4F66F
:1005730018F622121218601612120F7012E4F608FF
:10058300F608F608E65480F609090918181822EA4D
:10059300C0E0EBC0E0ECC0E0EDC0E0E687F0A4FB18
:1005A300ACF008E687F0A42CFCE435F0FA1809E671
:1005B30087F0A42C4B60027401CA35F0FCE433FBD2
:1005C30009E687F0D2F7A42CCB35F0FC1908E687AF
:1005D300F0A42BCC35F0FBE433FD0819E687F0D209
:1005E300E7A42C4ACB35F0CD3400FC09E687F0D2E2
:1005F300E7A42DCC35F0FDE433FA0918E687F0D2F1
:10060300F7A42CCD35F0CA3400FC08E687F0D2E716
:10061300D2F7A42ACC35F07A7E20E70B0ACB33CB72
:10062300CD33CDCC33CC33CB3350147004ED30E029
:100633000ED2F1E4CD3DCDCC3CCC3B5005DA05C226
:10064300F1EB547FC63308E63392F0FBE73309E757
:1006530033C39A502D2B70190C0D4C4D7015180681
:10066300E608C333700D20F10AA2F013F6E41880F4
:100673000B4024E4F630F002768018F618F618F6EC
:100683008024D33B14501074FFA2F013F618768025
:10069300E418F618F6800FA2F013F618E63303F603
:1006A30018ECF618EDF6D0E0FDD0E0FCD0E0FBD07E
:1006B300E0FA22C0E074F1120AFAA2AFE433F509BA
:1006C300D2AF85A708AFA1EF5508FE74105E600690
:1006D3001213DA75A1EF74085E60081213E075A1B6
:1006E300F78024EFA2E092F0E508A2E082F0501731
:1006F300906198E0F89004B1E0C398A2D265D0333A
:100703005002E8F075A1FE751A00E509A2E092AF68
:100713007F02020BB6C0E074F2120AFAA2AFE4330E
:10072300FED2AF9061A4E0F8759B00E591585408A0
:1007330060087591F712142E8023E59158541060C8
:10074300087591EF1214348014E591A2E092F0E859
:10075300A2E082F05007E0C2E0F012158A9061A394
:10076300E0F8E5E9585404600E12156075E9FB9052
:100773006193E0A2E640F2751A00EEA2E092AF7F29
:1007830001020BB6C0E074F2120AFAA2AFE433FE20
:10079300D2AF9061A5E0F8E5BF585404600675BF79
:1007A300FB1215A280D1C3E498F8E499F91207EA81
:1007B3008026C3E49AFAE49BFBE920E7E91207EAFF
:1007C300E498F8E499F922C3E498F8E499F9120754
:1007D300EAE498F8E499F9C3E49AFAE49BFB22EB80
:1007E30020E7CFE920E7E0B90010BB0008E88AF072
:1007F30084F8AAF022E4FBC8FA22EB70227B10C82B
:1008030033C8C933C9335007C39AC3DBF280069A8E
:1008130050012ADBEAC833F4C8C933F4C9FA227594
:10082300F008E4C833C8C933C933C99AC99B500413
:10083300C92AC93BD5F0ECFBC833F4C8E4C9FA2292
:1008430012088320F01430E72B74FFFCFBFA747F4B
:100853008022E4FCFBFA7480801AB48008BC00F2A6
:10086300BB00EF800F50EBF9E4C39AFAE49BFBE47F
:100873009CFCE499C6CC18C6CB18C6CA18C6F92284
:10088300E4C9C608CAC608CBC6D3330308CCC633EB
:1008930092F0C3947F402E94184019C9B90704CA33
:1008A300CBCC225025C309CA33CACB33CBCC33CCF0
:1008B30033D9F422F4600DC9CCC313CB13CBCA13C1
:1008C300CAD9F6CC22E4FCFBFA2214FCFBFA220878
:1008D3000808EAC0E0EBC0E086F0E7A4FA1809864E
:1008E300F0E7A42AFA180986F0E7A42AFA18098679
:1008F300F0E7A42AFA1986F0E7A4FBE5F02AFA192F
:100903000886F0E7A42BFBE5F03AFA190886F0E72E
:10091300A42BFBE5F03AFA18180986F0E7A4C5F012
:100923002BFBE43AFA1908E7C5F0C6A426F6E5F06E
:100933003BFBE43AFA1886F0E7A4F6E5F00826F65E
:10094300E43B08F6E43A08F6D0E0FBD0E0FA22E410
:10095300CFC0E0E4CEC0E0E4CDC0E0E4CCC0E075BD
:10096300F020E626F608E633F608E633F608E63323
:10097300F6181818EC33FCED33FDEE33FEEF33FFBE
:10098300C3EC9709ED9709EE9709EF9719191940E9
:100993000FFFEC97FC09ED97FD09EE97FE19190679
:1009A300D5F0BFECF709EDF709EEF709EFF71919E1
:1009B30019D0E0FCD0E0FDD0E0FED0E0FF22251806
:1009C300C582C0E0E51934FFC583C0E0E518C395CF
:1009D3008224F810AF0885831985821880088583DF
:1009E30019858218D2AFCEF0A3E520F0A37808E6EC
:1009F30008F0A3DEFAEFF0A3E58124FAF8E608F0A5
:100A0300A3E608F0A3E608F0A30808E608F0A3E6C7
:100A130008F0A315811581D0E0FED0E0F81581150B
:100A2300811581E8C0E0EEC0E0221211FAB900039B
:100A3300020A7FE4900401782879128002F0A3D897
:100A4300FCD9FA781A9000867A01BA00028007E48A
:100A530093A3F608DAF97A287B1590008778B079A2
:100A6300018015E493A3AD82AE838A828B83F0A3C6
:100A7300AA82AB838D828E83D8E9D9E77582B0755C
:100A830083B27404120ECB7582A875832774001287
:100A93000ECBC0E074F2120AFAA2AFE433FED2AF77
:100AA300E58AA2E2501B9004767401F0900474E08E
:100AB3006006438C02E48005538CFD7401F012132D
:100AC30014758A00C2EB751A00EEA2E092AF7F01A3
:100AD300020BB6C0E074F2120AFAA2AFE433FED2FC
:100AE300AFE58BA2E050099004787401F01213145F
:100AF300758B00C2E880CFC0D02518C582C0E0E561
:100B03001934FFC583C0E0E518C3958224F310AF01
:100B1300088583198582188008858319858218D2F0
:100B2300AFC8F0A3E9F0A3EAF0A3EBF0A37908E7D9
:100B330009F0A3D8FAECF0A3EDF0A3EEF0A3EFF0E5
:100B4300A3D0E0F0A3D0E0F0A3D0E0F0A3E520F041
:100B5300A3E5F0F0A322E9799EC608CAC608CBC66E
:100B630008CCC6C370207996CACBCC7019798ECBCA
:100B7300CC70137986CC700EF9802ACA33CACB3372
:100B8300CBCC33CC331930E7F2CCCBCA335014700F
:100B930004EA30E00DE4CA3ACACB3BCBCC3CCC50A0
:100BA3000209C3E913C6CC182313C6CB18C6CA1847
:100BB300C6F922851983851882E0C0E0A3E0F9A372
:100BC300E0FAA3E0FBA37808E0F608A3DFFAE0FC71
:100BD300A3E0FDA3E0FEA3E0FFA3E0C0E0A3E0C029
:100BE300E0A3E0F5D0A3E0F520A3E0A3F5F010AF78
:100BF300088583198582188008858319858218D210
:100C0300AFD082D083D0E0F8D0E032E47375F01037
:100C13008E218F22858226858325851882851983D7
:100C2300E0CEA3E0CF852682852583EBC9EAC8ED14
:100C3300CBECCAC3E833C8E933C9EA33CAEB33CBD5
:100C4300C3EA9EF524EB9FF523B35004AB23AA24F8
:100C5300EC33CCED33CDD5F0DAAE21AF2222D08305
:100C6300D082ECC0E0EDC0E0E493A3FCE493A3FDE9
:100C7300ED4C600D120D39EC24FFFCED34FFFD80CB
:100C8300EFE493A3FCE493A3FDED4C600D120DD6AA
:100C9300EC24FFFCED34FFFD80EFD0E0FDD0E0FC61
:100CA300E493A3C0E0E493C0E0228519838518820E
:100CB300E0A3FEE0A3F5207808E0A3F608DFFAE05E
:100CC300A3FFE0A3C0E0E0A3C0E0E0A3C0E0E0A393
:100CD300C0E0E0A3C0E010AF0885821885831980C7
:100CE30008858218858319D2AFD083D082020ED1B2
:100CF300D083D082E9C0E0E493A3C386F0C5F09526
:100D0300F0F908E493A386F0C5F095F0700BE49333
:100D1300A3C3994005E9048002A3E475F002A42566
:100D230082F582E5F03583F583D0E0F9E493A3C03F
:100D3300E0E493C0E022C0E0C3E493960874019317
:100D43009618400FE4936670080874019366187050
:100D5300007019A3A3C3E49396087401939618A390
:100D6300A3400DD0E0D0E0D0E0020C9DA3A3A3A349
:100D7300A3A3D0E0227404800474028000CCC0E0FA
:100D8300EDC0E0E518C39CCCAD1950011D10AF06B2
:100D93008C188D1980068C188D19D2AF120E4DD078
:100DA300E0FDD0E0FC2274028000CCC0E0EDC0E0A6
:100DB300E518C39CCCAD1950011D10AF068C188DDE
:100DC3001980068C188D19D2AF120E2BD0E0FDD0EE
:100DD300E0FC22C0E0C0F088F0E493667008087479
:100DE300019366187000A8F0A3A3700BD0F0D0E0B5
:100DF300D0E0D0E0020C9DA3A3D0F0D0E022D083BA
:100E0300D082CCC0E0E493A36006120E6E1470FA95
:100E1300E493A36006120FD01470FAD0E0FCE493BD
:100E2300A3C0E0E493C0E022CAC0E0E493A3C58278
:100E3300CCC582C583CDC583F0A3C582CCC582C58D
:100E430083CDC583DAE5D0E0CA22CAC0E0E0A3C5FA
:100E530082CCC582C583CDC583F0A3C582CCC582B0
:100E6300C583CDC583DAE6D0E0CA22C0E0E493A30C
:100E7300D39C5010E493A3C39C400AD0E0D0E0D0AD
:100E8300E0020E1EA3A3A3D0E022C008C3E096F5A0
:100E93000808A3E096420808A3E096420808A3E0E6
:100EA3009645087001D3D00822700908080822600B
:100EB30016181818C6C333C608C633C608C633C6C1
:100EC30008C633C6D5E0EA22C09FF59FE473D09FDE
:100ED30022D083D082C09FE493C0E0740193C0E02A
:100EE300740293F59F22C0E0C0D0E8C0E0A8A8D266
:100EF300AFC2C7751A00E8A2E792AFD0E0F8D0D02E
:100F0300D0E03200C0D0251810AF08F518500C05FA
:100F1300198008F51850020519D2AFD0D0227404F5
:100F2300800A74038006740280027401C0E0F40432
:100F3300120F3CD0E01211BD222518F58210AF0824
:100F4300F518400C15198008F51840021519D2AF91
:100F530085198322BB0102E722C082C08389828A6A
:100F630083BB0003E08002E493D083D08222601627
:100F7300080808C6C313C618C613C618C613C6186E
:100F8300C613C6D5E0EA222518F8E43519F9222557
:100F930018FAE43519FB222518FCE43519FD22C3A0
:100FA300E0C696F608A3E0C696F608A3E0C696F652
:100FB30008A3E0C696F622251810AF08F518400CD2
:100FC30015198008F51840021519D2AF22C0E0E4C4
:100FD30093A36C7009D0E0D0E0D0E0020E1EA3A36F
:100FE300D0E022E066701008A3E066700A08A3E070
:100FF30066700408A3E06622E76670100809E766D6
:10100300700A0809E76670040809E76622C3E096D8
:1010130008A3E09608A3E09608A3E096A2D265D0C1
:101023003322C3E096F008A3E096F008A3E096F01D
:1010330008A3E096F022C3E697F60809E697F608B8
:1010430009E697F60809E697F622181818E60846FF
:10105300087009E626087005E633F42208221919F8
:1010630019E70947097009E727097005E733F422EF
:101073000922C3E493960874019396087402939625
:10108300087403939622E627F60809E637F608095B
:10109300E637F60809E637F622700422600D18C613
:1010A300C333C608C633C6D5E0F41822E056F008A9
:1010B300A3E056F008A3E056F008A3E056F022E6BA
:1010C30057F60809E657F60809E657F60809E657FA
:1010D300F622E026F608A3E036F608A3E036F60883
:1010E300A3E036F622E026F008A3E036F008A3E0FA
:1010F30036F008A3E036F022E056F608A3E056F6F1
:1011030008A3E056F608A3E056F622E647F60809D8
:10111300E647F60809E647F60809E647F622E4C378
:1011230096F608E496F608E496F608E496F622C6E0
:10113300F4C608C6F4C608C6F4C608C6F4C622C375
:10114300E09608A3E09608A3E09608A3E09622C3DE
:10115300E7960809E7960809E7960809E7962275CE
:10116300D00075813F75180175190400020A2DE638
:10117300084608C3134608336002E633F422E7093E
:101183004709C3134709336002E733F422600C08AD
:10119300C6C313C618C613C6D5E0F422E6F008A3E7
:1011A300E6F008A3E6F008A3E6F022E0F608A3E0E1
:1011B300F608A3E0F608A3E0F622CAC0E0E6F0A32F
:1011C30008DAFAD0E0FA22E0FAA3E0FBA3E0FCA3FA
:1011D300E0FD22EAF0A3EBF0A3ECF0A3EDF022E0B4
:1011E300F8A3E0F9A3E0FAA3E0FB22E8F0A3E9F017
:1011F300A3EAF0A3EBF022E5C754F84401F5C7795D
:1012030001222518F582E43519F58322E7271947CA
:101213001947194722E62618461846184622C2AF30
:1012230075D69F02000022120ED40AD103120ED4E7
:101233003DD103120ED46BD103120ED485D3031206
:101243000ED4A1D303120ED4E6D303120ED46BD45F
:1012530003120ED4B7D403120ED447D503120ED4FF
:101263001FD603120ED470D603120ED4D5D6031292
:101273000ED452D703120ED488D703120ED4D3D769
:1012830003120ED4F9D703120ED489D803120ED445
:1012930020D903120ED46CD903120ED49DD9031294
:1012A3000ED4D4D903120ED465DB03120ED42FDC73
:1012B30003120ED409DD03120ED4DEC104120ED4C0
:1012C300EFC104120ED407C204120ED4EB7F001236
:1012D3000ED4D27F00120ED499BE04120ED4A9BE2E
:1012E30004120ED4BEBE04120ED472BF04120ED466
:1012F30097BC04120ED41ABD04120ED480BD04127E
:101303000ED42BBA04120ED459BA04120ED4E8BA6E
:1013130004120ED443BB04120ED461BB04120ED4C8
:1013230064BB04120ED44D9504120ED45B950412C3
:101333000ED4D49504120ED4A89604120ED47A981F
:1013430004120ED4DF9804120ED43C9904120ED466
:10135300F87F00120ED4A6B004120ED4DEB004122D
:101363000ED429B204120ED4ADB204120ED4F686F2
:1013730004120ED4228704120ED4938904120ED4BD
:10138300D38904120ED4138A04120ED4278A0412AA
:101393000ED4408A04120ED4318B04120ED4D68B91
:1013A30004120ED4EA8B04120ED42DB604120ED4FA
:1013B30051B604120ED46AB604120ED49CB60412AB
:1013C3000ED4CCB604120ED4F9B604120ED403B75D
:1013D30004120ED465B704120ED474B704120ED4DB
:1013E3007EB704120ED48BB704120ED446FD03123B
:1013F3000ED466FD03120ED4A5FD03120ED4C0FD58
:1014030003120ED4DFFD03120ED445FE03120ED4D5
:101413004EFE03120ED4ABFE03120ED4BAFE031219
:101423000ED4DEFE03120ED49FFF03120ED4ACFFC4
:1014330003120ED4BDFF03120ED497C104120ED4AF
:10144300AFC104120ED4DBC104120ED4408C0412BB
:101453000ED49A8D04120ED4A88D04120ED4BB8D13
:1014630004120ED4D08D04120ED4E58D04120ED4C2
:10147300F88D04120ED46C8E04120ED4D18E041285
:101483000ED4598F04120ED4D58F04120ED4999012
:1014930004120ED4A99004120ED4B89004120ED4E0
:1014A30020C004120ED444C004120ED46CC0041223
:1014B3000ED494C004120ED41FAC04120ED446AC46
:1014C30004120ED464AC04120ED4D7AC04120ED49E
:1014D30056A904120ED46FA904120ED47BA90412C8
:1014E3000ED48FA904120ED4ADA904120ED4B7A939
:1014F30004120ED4C1A904120ED4D4A904120ED41A
:101503005AAA04120ED4CFAA04120ED4FEAA0412AD
:101513000ED44CAB04120ED49BAB04120ED4B6AB58
:1015230004120ED4C0AB04120ED4D1AB04120ED4E9
:1015330014AC04120ED440C104120ED48BC1041295
:101543000ED4DBF303120ED405F403120ED422F4EB
:1015530003120ED435F403120ED44BF403120ED43B
:10156300A9F403120ED4E1F403120ED4D5F8031236
:101573000ED41AFA03120ED44DFA03120ED4B0FA93
:1015830003120ED410FC03120ED438FC03120ED433
:101593004DFC03120ED45DFC03120ED4A1FC031206
:1015A3000ED4FCFC03120ED40CFD03120ED467BB45
:1015B30004120ED481BB04120ED4A9BB04120ED4A0
:1015C300C2BB04120ED4E6BB04120ED404BC041234
:1015D3000ED41BBC04120ED449BC04120ED464BC3A
:1015E30004120ED4207F00120ED4647F00120ED496
:1015F300E29C04120ED4F29C04120ED4F79D041242
:101603000ED4299E04120ED4599E04120ED47C9E2D
:1016130004120ED4939E04120ED4CD9E04120ED443
:10162300329F04120ED4749F04120ED4B39F04127B
:101633000ED4E49F04120ED40FA004120ED495B757
:1016430004120ED4A7B704120ED4BBB804120ED4DE
:10165300BEB804120ED402FF01120ED438FF0112D9
:101663000ED44EFF01120ED490FF01120ED4A0FF30
:1016730001120ED4AFFF01120ED4F3FF01120ED4E8
:10168300008004120ED43A8004120ED4A3800412F4
:101693000ED4C08004120ED4628104120ED46B8166
:1016A30004120ED4B08104120ED4D98104120ED4C4
:1016B300E68104120ED4578204120ED4E28204127D
:1016C3000ED4308304120ED46E8304120ED4D3834B
:1016D30004120ED4F68304120ED46D8404120ED4B5
:1016E300C48404120ED4FF8404120ED4348504126D
:1016F3000ED4468504120ED4588504120ED4778571
:1017030004120ED4808504120ED4408604120ED423
:101713008C8604120ED4CA8604120ED4EBB80412BB
:101723000ED4A2FF02120ED470AE04120ED4A6AED3
:1017330004120ED4EEAE04120ED447B004120ED42B
:101743007CAC03120ED4A0AD03120ED4DAAD031297
:101753000ED484AF03120ED4AEAF03120ED423B251
:1017630003120ED463B203120ED4F9B303120ED4D0
:1017730096B403120ED4E8B403120ED48BB503123D
:101783000ED4C3B503120ED405B603120ED474B728
:1017930003120ED4C2B803120ED4F3BA03120ED43A
:1017A30021BB03120ED448BB03120ED451BB031248
:1017B3000ED4A8BB03120ED43ABC03120ED467BFD7
:1017C30003120ED4EABF03120ED478BF04120ED450
:1017D30090BF04120ED49ABF04120ED4EEBF0412AB
:1017E3000ED433FB02120ED449FB02120ED4EAFBD1
:1017F30002120ED429FC02120ED446FC02120ED49D
:1018030077FC02120ED4C4FC02120ED4F7FC0212AF
:101813000ED432FD02120ED42DFF02120ED495FF08
:1018230002120ED499BD04120ED4F8BD04120ED4C4
:1018330036BE04120ED477BE04120ED4EBAC0212E1
:101843000ED4F7AC02120ED459AD02120ED463AD0E
:1018530002120ED4F4AD02120ED430AE02120ED424
:10186300EBAE02120ED44CAF02120ED4E9AF021249
:101873000ED469B002120ED400B202120ED4D5B344
:1018830002120ED411B502120ED474B602120ED483
:1018930027B702120ED4E3BB02120ED4D8BC021235
:1018A3000ED46DBD02120ED492BD02120ED42EBE02
:1018B30002120ED443BE02120ED467BE02120ED41D
:1018C300D8BE02120ED4F5BE02120ED41FBF0212EE
:1018D3000ED4B5C002120ED4D6C002120ED47CC1EF
:1018E30002120ED4C3C102120ED428C202120ED4A5
:1018F300A9C202120ED40DC302120ED469C302127E
:101903000ED4FFC302120ED472C402120ED4A6C4A4
:1019130002120ED409C502120ED469C602120ED4E5
:1019230000C802120ED4ADC802120ED412CB02129A
:101933000ED47BCB02120ED4A5CB02120ED4D0CD83
:1019430002120ED45BD002120ED456D102120ED460
:10195300509904120ED40A9A04120ED4709A0412E7
:101963000ED4919A04120ED4649B04120ED467A071
:1019730004120ED4DDA004120ED40DA204120ED450
:10198300DBA204120ED43BA304120ED463A30412ED
:101993000ED466A304120ED46FA304120ED4E57FF3
:1019A30000120ED4576A00120ED4866A00120ED4A7
:1019B300FE6A00120ED4016C00120ED45D6C00128C
:1019C3000ED4DE6D00120ED4FA6D00120ED44C6EDE
:1019D30000120ED48F6E00120ED4A26E00120ED41B
:1019E300F46E00120ED4AF6F00120ED41B700012EF
:1019F3000ED4457000120ED47D7000120ED4F9710E
:101A030000120ED4D27200120ED41B7400120ED424
:101A1300EE7400120ED4767500120ED4BE75001249
:101A23000ED4D87500120ED41F7600120ED43F7652
:101A330000120ED4D57600120ED4647700120ED4A1
:101A4300BE7700120ED4027800120ED47E7A0012F2
:101A53000ED4AC7B00120ED4E87B00120ED4DA7CD9
:101A630000120ED4027D00120ED4057D00120ED496
:101A73000F7D00120ED4227D00120ED4AB7D001216
:101A83000ED4E17D00120ED40D7E00120ED4347EEE
:101A930000120ED4587E00120ED4C97E00120ED44A
:101AA300D77E00120ED40A7F00120ED4B9C00412DE
:101AB3000ED4C5C004120ED403C104120ED4E87FA1
:101AC30000120ED4449603120ED4679603120ED45A
:101AD300AD9703120ED4F69703120ED45098031247
:101AE3000ED4B69803120ED4B99803120ED40599E6
:101AF30003120ED47F9903120ED4059A03120ED447
:101B0300089A03120ED4949A03120ED4D79A03128E
:101B13000ED4169F03120ED4B3A003120ED4F5A055
:101B230003120ED46AA403120ED498A503120ED482
:101B330022A703120ED4AFA703120ED4A9A803122F
:101B43000ED400AB03120ED437C003120ED4D7C089
:101B530003120ED441C103120ED45AC103120ED480
:101B6300E4C103120ED43AC203120ED47EC203128E
:101B73000ED4E5C203120ED45BC403120ED489C57E
:101B830003120ED402C603120ED405C803120ED4D8
:101B9300ADC803120ED43CC903120ED40FCA0312EC
:101BA3000ED4EACB03120ED48BCD03120ED433CE54
:101BB30003120ED445CF03120ED4C0DA01120ED491
:101BC30034DB01120ED47CDB01120ED4BADB01121A
:101BD3000ED403DC01120ED44DDC01120ED485DCCD
:101BE30001120ED403DD01120ED45DDD01120ED4F9
:101BF300B9DE01120ED44ADF01120ED4A8DF01129E
:101C03000ED4C2DF01120ED4E3DF01120ED4A4F509
:101C130001120ED4ACE201120ED4CBE201120ED4A7
:101C2300AAE301120ED4C2E401120ED43FE501125D
:101C33000ED4ACE501120ED415E601120ED4CFE694
:101C430001120ED48DE801120ED48EE901120ED4C6
:101C530013EB01120ED4FEEC01120ED461EF01124C
:101C63000ED407F101120ED4D5F101120ED43BF2BA
:101C730001120ED452F201120ED442F301120ED409
:101C83002EF401120ED48ED003120ED475A60412B4
:101C93000ED4C1A704120ED47EA804120ED4E2A857
:101CA30004120ED472A304120ED48DA304120ED404
:101CB300D1A304120ED4F7A304120ED41DA404124C
:101CC3000ED435A404120ED498A404120ED4ADA4D9
:101CD30004120ED4CFA504120ED4D8A504120ED428
:101CE300E1A504120ED4EAA504120ED4F190041255
:101CF3000ED4DF9404120ED4E49404120ED4E694AA
:101D030004120ED434B304120ED416C204120ED429
:101D13007AD502120ED4ADD502120ED419D6021200
:101D23000ED4B4D602120ED451D702120ED496D7C3
:101D330002120ED4B8D702120ED4D1D702120ED487
:101D4300F7D702120ED419D802120ED457D80212A2
:101D53000ED49BD802120ED4BDD802120ED41FD9B2
:101D630002120ED4E6D902120ED49DDA02120ED458
:101D73000FDB02120ED4DADB02120ED42DDC0212B8
:101D83000ED493DC02120ED4CDDC02120ED41FDD6E
:101D930002120ED48DDD02120ED4F8DD02120ED41F
:101DA300FBDD02120ED47CDE02120ED413DF02120C
:101DB3000ED493DF02120ED4B2DF02120ED416E158
:101DC30002120ED423E102120ED42FE202120ED419
:101DD3003CE202120ED445E202120ED41DE40212BA
:101DE3000ED437E502120ED4B0E502120ED422E669
:101DF30002120ED444E602120ED4D8E602120ED416
:101E0300ACE802120ED483EC02120ED497EC021249
:101E13000ED4A7EC02120ED4B1EC02120ED4BAEC1B
:101E230002120ED4C3EC02120ED4CDEC02120ED465
:101E3300FAEC02120ED423ED02120ED42EED02128E
:101E43000ED452ED02120ED476ED02120ED4E0ED52
:101E530002120ED426EE02120ED443EE02120ED458
:101E6300C0EE02120ED4F7EE02120ED436EF0212B7
:101E73000ED483EF02120ED409F002120ED4D7F15E
:101E830002120ED45AF202120ED43EF302120ED4F0
:101E9300A5F502120ED4FEF502120ED448F6021274
:101EA3000ED4A3F702120ED4D8F702120ED42AF8D6
:101EB30002120ED4DFF802120ED48EF902120ED4DF
:101EC300CBF902120ED460FA02120ED4CCFA02122B
:101ED3000ED4C28101120ED4F48101120ED42282D7
:101EE30001120ED4F88301120ED4D88401120ED439
:101EF300308501120ED46B8601120ED4B7860112FF
:101F03000ED4E08901120ED4D38C01120ED4238E89
:101F130001120ED4B98E01120ED4C58E01120ED445
:101F2300F78E01120ED47A9001120ED48891011209
:101F33000ED4B29101120ED4199201120ED47292E0
:101F430001120ED4D89201120ED4EF9401120ED4C2
:101F53007E9601120ED4489701120ED48E98011268
:101F63000ED4DE9A01120ED4AE9D01120ED4BB9D87
:101F730001120ED4429E01120ED4D69E01120ED42B
:101F8300199F01120ED49F9F01120ED4BC9F011200
:101F93000ED4EC9F01120ED421A001120ED4F1A095
:101FA30001120ED49AA101120ED420A401120ED450
:101FB30040A501120ED42BA601120ED4ADA6011218
:101FC3000ED4E4AA01120ED421AB01120ED479ABC4
:101FD30001120ED4ACAB01120ED416AC01120ED406
:101FE3004CAC01120ED4D7AC01120ED42FAD01129A
:101FF3000ED406AE01120ED4BFAE01120ED45AAFE8
:1020030001120ED462B201120ED47EB301120ED4A9
:1020130021B701120ED415B801120ED418B801124B
:102023000ED447B801120ED44DBA01120ED426BBFA
:1020330001120ED469BB01120ED4BFBC01120ED41F
:10204300FEBC01120ED490BD01120ED4C4BD011208
:102053000ED489BE01120ED4A1C001120ED412C136
:1020630001120ED452C101120ED4E0C101120ED4DA
:1020730008C301120ED4CAC301120ED4D1C5011272
:102083000ED4E9C501120ED4FDC501120ED435C616
:1020930001120ED463C601120ED4E2C701120ED48C
:1020A30007C901120ED46BC901120ED41DCA011245
:1020B3000ED44DCA01120ED414CB01120ED4ACCBE4
:1020C30001120ED4D2CD01120ED407CE01120ED4BA
:1020D3006ACE01120ED499CF01120ED441D001124F
:1020E3000ED472D001120ED48AD001120ED419D19B
:1020F30001120ED4CDD301120ED4A5D501120ED4E4
:10210300C1D501120ED4DDD501120ED4ABD6011206
:102113000ED49EDA01120ED4602D00120ED4922D2D
:1021230000120ED4813100120ED4CD3100120ED420
:10213300133200120ED4B53200120ED41133001232
:102143000ED4563300120ED49D3400120ED4B13582
:1021530000120ED4A03900120ED4243A00120ED469
:10216300313B00120ED48D3B00120ED47D3D001284
:102173000ED4F23D00120ED4FC3D00120ED4093EE3
:1021830000120ED4343E00120ED41B3F00120ED4A4
:10219300C53F00120ED4434000120ED46340001218
:1021A3000ED48C4000120ED4AE4000120ED40E4357
:1021B30000120ED4D44300120ED4194400120ED4CC
:1021C300964400120ED4474500120ED479450012EE
:1021D3000ED4BF4500120ED4FB4500120ED44B465D
:1021E30000120ED49F4600120ED4F54600120ED4F0
:1021F300414700120ED4AE4700120ED429480012F4
:102203000ED4F44900120ED4F44A00120ED4194C21
:1022130000120ED4584F00120ED46B5200120ED47B
:10222300285300120ED46C5300120ED41C55001206
:102233000ED4305500120ED43A5500120ED4445524
:1022430000120ED4505500120ED46C5500120ED449
:10225300175600120ED4565600120ED460560012B2
:102263000ED46A5600120ED4DA5600120ED4255735
:1022730000120ED43A5800120ED4965800120ED4FF
:10228300175900120ED4D65900120ED4DF5A001279
:102293000ED4135C00120ED4015D00120ED4195D2E
:1022A30000120ED4745D00120ED4925D00120ED48F
:1022B300DA5D00120ED4015E00120ED49C5E001291
:1022C3000ED4625F00120ED4F45F00120ED46E605F
:1022D30000120ED4886100120ED4356200120ED49F
:1022E3005D6300120ED4AD6300120ED411640012AC
:1022F3000ED4736400120ED4A16400120ED4C5640C
:1023030000120ED4FA6400120ED42B6500120ED400
:102313005E6500120ED47E6500120ED4E6650012CF
:102323000ED4DA6600120ED4356700120ED45E673F
:1023330000120ED4E66700120ED4696800120ED4A0
:10234300946800120ED4796900120ED4E2DD0312F0
:102353000ED41ADE03120ED43BDE03120ED47DDE3E
:1023630003120ED4DFDE03120ED4E9DE03120ED401
:10237300F9DE03120ED434DF03120ED414E3031276
:102383000ED401E503120ED4E7E603120ED47EE762
:1023930003120ED420E803120ED4248102120ED4A9
:1023A300A28102120ED4FE8102120ED449820212BD
:1023B3000ED4648202120ED48F8202120ED4AC8227
:1023C30002120ED4B88202120ED44F8402120ED41B
:1023D300688402120ED4ED8402120ED40085021218
:1023E3000ED41F8502120ED4C38502120ED4448765
:1023F30002120ED4F78802120ED48D8902120ED463
:10240300908902120ED4008A02120ED41E8A02127E
:102413000ED4B58A02120ED4FD8A02120ED4008B9A
:1024230002120ED4C68B02120ED4338C02120ED4B7
:10243300598C02120ED4E48C02120ED4028D0212B5
:102443000ED4488D02120ED4FC8D02120ED4468E89
:1024530002120ED4758E02120ED4D28E02120ED434
:10246300078F02120ED4338F02120ED4418F021241
:102473000ED48E8F02120ED4FE8F02120ED447900A
:1024830002120ED4939002120ED4BF9002120ED4F5
:10249300CA9002120ED4E89002120ED4D391021203
:1024A3000ED4DD9102120ED4189202120ED4289289
:1024B30002120ED4319202120ED4859202120ED45D
:1024C300999202120ED4C89302120ED4DF93021211
:1024D3000ED4F49302120ED4829402120ED4C79433
:1024E30002120ED4539502120ED45E9502120ED42C
:1024F300A09602120ED4BB9602120ED407970212B4
:102503000ED4769702120ED4AF9702120ED4C99747
:1025130002120ED40B9802120ED4DB9A02120ED4BE
:10252300889B02120ED4F59B02120ED4359E021222
:102533000ED44D9E02120ED4509E02120ED45C9EF7
:1025430002120ED4709E02120ED4789E02120ED482
:10255300AB9E02120ED4AD9F02120ED434A002120F
:102563000ED4A4A002120ED426A102120ED4E7A107
:1025730002120ED406A202120ED4A7A202120ED485
:1025830004A302120ED407A302120ED434A3021220
:102593000ED449A302120ED4BDA302120ED40CA56D
:1025A30002120ED412A602120ED49DA602120ED44B
:1025B300B8A702120ED480A802120ED4B1A8021238
:1025C3000ED4D4A802120ED4DDA802120ED40CA984
:1025D30002120ED49CA902120ED452AA02120ED4D5
:1025E300C7AA02120ED46EAB02120ED4E3AB0212D0
:1025F3000ED41AAC02120ED458AC02120ED48EAC06
:1026030002120ED438F501120ED4149603120ED40E
:102613000A9603120ED49D9503120ED4F19303125E
:102623000ED4AF9303120ED4D99203120ED4C392D5
:1026330003120ED4849203120ED4DE9103120ED42D
:10264300BCFE01120ED484FE01120ED4E38E0312DB
:102653000ED4CC8C03120ED42DFE01120ED4A8FC82
:1026630001120ED4998C03120ED4348C03120ED49F
:10267300C78B03120ED4868B03120ED4BF8A0312A8
:102683000ED45A8A03120ED4058A03120ED4A889D3
:1026930003120ED47F8803120ED41C8803120ED4A7
:1026A300668703120ED4618703120ED45587031273
:1026B3000ED4088403120ED4E28303120ED487834C
:1026C30003120ED4328303120ED4F38203120ED4F8
:1026D300E08203120ED4E9FB01120ED44CFB01126B
:1026E3000ED442FB01120ED438FB01120ED4CEFAE3
:1026F30001120ED4BAFA01120ED419FA01120ED431
:10270300D58203120ED4B18203120ED4EC800312CD
:102713000ED423F901120ED46B8003120ED427803A
:1027230003120ED4008003120ED443B504120ED448
:1027330054F801120ED4A7B404120ED49BF4011260
:102743000ED490F303120ED437F303120ED4F9F21E
:1027530003120ED4CCF203120ED498F203120ED449
:1027630037F203120ED41FF203120ED4EFF1031249
:102773000ED4C4EE03120ED497EC03120ED49EEAC9
:1027830003120ED424EA03120ED4D3E903120ED497
:102793008DE903120ED451F601120ED4F7E8031299
:1027A3000ED43BE00100000080FB8F000100BB154D
:1027B30087000100B91535000400821525000200C9
:1027C3008615260002008815270002008A152800B6
:1027D30001009415290001009515840004001413C9
:1027E3008600010036152A00010096152B00010012
:1027F30097152C0001009B152D00080020132E00B7
:1028030001009C152F0001009D15300001009E154D
:10281300310001009F15320001002813330001002D
:10282300291334000100A015360001002A133800D3
:102833000100A115390001009A1583000200B715A4
:102843006300010036136400010098156500010060
:1028530099156D0001003713710008001813660005
:102863000100B61543000100A71544000200A81596
:1028730045000100AA1546000200AB1547000800F9
:102883002E1348000100AD154B000100AE150400E6
:102893000100BA15A1000100BE1537000100BD15E6
:1028A30088000100BC153C0001002B133D00010012
:1028B300A21549000200AF156700010038134D004F
:1028C3000200B1154E000100B3154F000200B4150C
:1028D3003E000100A615510001002C135200010017
:1028E300A41553000100A515540001002D13000089
:1028F3000000000000013636010100010201000161
:10290300030100010401060605020000070100346B
:102913000801000F090401010D0100FF0E0800006A
:1029230017020000190100FF1A0100011B0100FE3C
:102933001C0100081D0200001F010001200100010D
:10294300210200002301000F2402000026010001E0
:1029530027010008280200FF2A0100072B0102407B
:102963002C0100002D0100012E0100012F0100FFA9
:1029730030010B1D310800003A0100083B01000F34
:102983003C0100013D0100FF3E0400004204000041
:10299300460400004A0400004E04000052040000F4
:1029A300560400005A0400000103710301030103EC
:1029B30001030103010322030203010310030003C4
:1029C30000030003000300030003000342030003AA
:1029D3002403060300030003040312032503230354
:1029E3002503230304030403000300030003440338
:1029F3000003000323030003650321003503810360
:102A0300000305030003000300030003250323035E
:102A1300030271023001600211027002010202021C
:102A230002028002100261023A0041006302730253
:102A33007202620243020002130238000002000223
:102A43000402120200020002000200020402040255
:102A5300370037003C024402000239000002000242
:102A6300650200023502810200020502820283022E
:102A73000002010171010101010111010101310193
:102A8300010101018001100161013B001400630198
:102A930073017201620143010001130106013D014B
:102AA30035000401120100010001000100010401CD
:102AB3000401330133013C014401320136000001BA
:102AC300000165010001350081010001050182015A
:102AD30083010001030071003001600011007000E8
:102AE3003102200350048000100061000000140034
:102AF30063007300720062004300000013000600CD
:102B030000000000040012000000000000000000AC
:102B130004000400370037003C02440000000000BA
:102B23000000000065000000350081000000050082
:102B330000008300000036000100060000000F00C3
:102B430000000000000000000000000003FFFF0081
:102B5300000403FFFF0000FFFF0FF4010005C4049E
:102B63000320000100000B00000000000000000330
:102B7300010F000000000000000000000000000042
:102B83000000000000000000000000000000000042
:102B9300000000000E19381914195A181A193E1991
:102BA3001A194A1920195A181A193E1926195A18A6
:102BB300000000002C195A1800000000000000005B
:102BC30032195A1800000000000000000000000045
:102BD30000000000000000000000000000000000F2
:102BE30000000000000000000000000000000000E2
:102BF300000004004201D680000005004201CA80A3
:102C0300000007003001C1810000120010035F15AE
:102C13000100210020050B120300000021030C1208
:102C23000300FDFF2181BE810600000010010E128A
:102C33000600FDFF2181BE810000721B0100721B93
:102C43000200E81A0280E21A0300EE1A0400F41AE2
:102C53000480FA1A0500001B06000C1B31001E1B22
:102C63003300241B34002A1BFFFF000007ECFDFD8B
:102C7300FDECDCDCCCBCACAC9C9C8C7C7C6C6C5CE0
:102C83005C5C4C4C3C3C2C2C1C1C03EAF5E5D5D578
:102C9300C5B5A595958585757565655555454535C1
:102CA3003525251515050A9021025A2105662107A8
:102CB30060210C42210D4E21FF000000160F000081
:102CC3000B150B020002220F3300000E0F5A696727
:102CD300426565416C6C69616E63653039D0D1D2F0
:102CE300D3D4D5D6D7D8D9DADBDCDDDEDF30301666
:102CF300181920231A1C1E3000034D4C4651181A74
:102D03002505020001191618161618230300303082
:102D130017181921301B1D1F30003C40423A3F3F1A
:102D2300392F47300C0E020B040B0A0708000F0261
:102D33000402010101010902E803000000BE040AC4
:102D430001000E000300E803FF04090903101E033A
:102D53000A0C04040828020C0508151E0474F71253
:102D630009C1E990140DF09013C2E4F012163E90DD
:102D73001425E4F0A3F090140EF0A3F01222E01255
:102D83001644901346E4F0A3F0121CD40246C67412
:102D9300F01209C174D3120FBA1261225480606613
:102DA30090140DE0F91216B68A088B09AF09EA4FA1
:102DB300604C7C0080010CEC75F003A4F8A9F0745E
:102DC300A928F582742C39F583E493F46029E493FC
:102DD300F88A828B83E06870DDEC75F003A4F874E5
:102DE300AA28F582742C39F583E493C0E074019327
:102DF300F583D082120C0EAA08EFFB1216A41268F8
:102E0300546480023161851882851983A3E05420BC
:102E1300601F1221F68A088B09AF09EA4F600A1274
:102E2300214EAA08EFFB1216A41268546420023143
:102E330061851882851983E0A2E050429013C7E0B0
:102E4300640F702E90078D12685F90078DC3E09416
:102E5300E9A3E09403400A7A007B8090123812477A
:102E6300A87900122124E960099015821211CA126F
:102E7300213C851882851983E06401023146542080
:102E8300700302314B7A207B0090140DE0F9121885
:102E93000CEA4B4C4D701A9014211211E2E8494A86
:102EA3004B700E750801750900750A00750B0080DB
:102EB3006D750C00750D00750E00750F0012181E50
:102EC3008A088B098C0A8D0B9014211211E2E849B0
:102ED3004A4B60319014217808120E8D400E750C08
:102EE300FF750DFF750EFF750F7F801985080C8523
:102EF300090D8C0E8D0F901421780C120FA2740102
:102F0300780C120F71850C08850D09850E0A850F43
:102F13000BE5084509450A450B70030230A57C0003
:102F230079047A007B001221CC8A0C8B0DAE0CAF96
:102F33000D022FE9740212120574FFF074031212CA
:102F43000574FFF0740412120574FF12481B125F1C
:102F5300DC7407120F9A126292E96401706A1231EB
:102F63006D4480F8A3E0F97428121205E8F0A3E990
:102F7300126526E0C0E0742A121205D0E012480858
:102F8300540860167428121205A3E0440112317A22
:102F9300C0E0742C121205D0E0F01261656011E8F4
:102FA300240B123960F87416121205E8F0A3E4F04A
:102FB30090811E120D787406120F9A740B120F92E1
:102FC300121E007404120F068E828F83A3A3A3A381
:102FD300A3A3A3A3A3740612317AF91221AE740535
:102FE3001212051262E9EE4F70030230A57C0079DC
:102FF30004EEFAEFFB1221CC7405121205EAF0A3DA
:10300300EB124532E0F50CA3E0F50DE4F50EF50FF8
:103013007808790C1211524023EE2404F8E43FF9A6
:1030230085080C85090D8882F583C3E0950CF0A310
:10303300E0950D126949E84970A4800C8E828F8354
:10304300A3A3A3A3E4F0A3F08E828F83A3A3A3A3DC
:10305300A3A3A3A3A3A3E064018E828F83A3A3A34B
:10306300A3A3A37020E054046003022F378E828F42
:1030730083A3A3A3A3A3A3A3A3A37406F07AB71262
:1030830032A0022FE1A3A3A3A3E06003022F378E94
:10309300828F83A3A3A3A3A3A3A3A3A37401F00277
:1030A3002FE112219C7C0079017A007B001221CC54
:1030B300EA4B60031247A17C0079047A007B00127B
:1030C30021CCEA4B701380448A828B83A3A3A3A3EE
:1030D300126301EE98EF99400B8A828B83A3A3A31B
:1030E300A31262E97C0079041221CC8B0BA90BEAB1
:1030F3004970D5C3E5089EE5099F500DC3EE9508B9
:10310300FEEF9509FFEE4F700D1247A190142112A7
:103113003173A3F08024EE2EFEEF338E08F509E41D
:10312300F50AF50B7808120F217A20123349120F92
:103133000612181E9014211211D685188285198340
:10314300E06420FAA3E08016A3E05404601312594C
:10315300B91226C47901123B271268546404FB8018
:10316300047A007B00742D026141EE12614FE0226C
:10317300E4F0A3F0A3F02212480DA3A3E022C0823F
:10318300C08374EA120FBA7C167D007900AA18ABCB
:103193001912168C74081212057402F09013B612E9
:1031A3005BF51231C17409121205125C0D7413120E
:1031B3001205E412588C121CC87416024AD7E8F0A0
:1031C300A3E9F09013C01262D12274F71209C174FB
:1031D300DA120FBAEAFEEBFFEA4F602DAC18AD1915
:1031E3001222147406121205E0601E7417121205DF
:1031F300E0FD7401121205E0FCEEFAEFFB79001218
:1032030020FAE9600479A48002790074260246C397
:1032130074F71209C1EAFEEBFF8A82F583A3A3A325
:10322300A3A3A3E0544060178A828B831261021226
:1032330049E660067AFF7BFF80151260FE800390EB
:1032430013B6125FDC74FE6A700374FF6B60411285
:1032530060FE1261281222AAE98E828F83600B120C
:103263005CEB126914E4F0A38003126903F07C2A77
:103273007D218E828F8312405CE9F5087015EE4F35
:1032830060097901EEFAEFFB1221A8A9080246C6EC
:103293007508CDAA081232A0E960E380EE8E828F12
:1032A30083125CEF240CF582E438F583E0F91221F4
:1032B300362274F61209C1E9FEEAFF7A0F7B001287
:1032C300169EEA4B601A8A828B83740CF0EEA3A3DA
:1032D300F0EF8A828B831244811258EA7900802BA3
:1032E300EEF91221D28B09A909EA49601C8A828B63
:1032F30083A3A3A3A3A3A3A3A3A3740612448AE053
:10330300F9121EA2EEF91221AE79100256D574F409
:103313001209C18A088B098C0A8D0B9013C7E064CC
:103323000F701EEA4B4C4D60189013C2E0640860A6
:1033330005E06404700B7808120F21123347120F53
:10334300060235AC7A017B0090140DE0F91217FAEE
:1033530074042274F41209C174FC120FBAEAFEEB6E
:10336300FF8A82F583A3A3E0F91221D28A088B098D
:10337300EA4B700302348F8E828F83A3A882A983C2
:10338300E0C0E0EA1258E0D0E01242F064F16028B5
:103393008E828F83A3E064CD601E8E828F83A3E031
:1033A300641A60148E828F83A3E064E9600A8E82BC
:1033B3008F83A3E064E1703379001221A8E9602BC5
:1033C300E5082404F50AE43509F50B850882850927
:1033D30083A3A3A3A3A3A31243C61242CE121650E0
:1033E300850A82850B8312612880708E828F83A366
:1033F300E0C0E07402121205D0E0124AE5124C0854
:10340300123D76C0E07403121205D0E0F0E5081215
:1034130065D1123A1FE0AA18AB197005121DFA8084
:10342300031222927402121205E064E9702D8508DA
:1034330082850983123B85750A01780A120F2D755F
:103443000AE9780A120F2D1242A2123D43FCA3E0AF
:10345300FD8A828B83123D6D120F068508828509D2
:1034630083A3A3A3A3A3A3A3A3A3E06402701285CE
:103473000882850983A3A3A3A3A3A3A3A3A3740679
:10348300F08E828F83A3A3E0F91221AE12219C90C8
:10349300158812399174040235A974F41209C1EA2A
:1034A300FEEBFF7508008A82F583A3A3A3A3A3E021
:1034B3006038750808125FCF79FF121F7AEA4B60F4
:1034C3001075082C8E828F83A3A3A3A3A3E0D2E05D
:1034D300F08E828F83A3A3A3A3A3E05403640160AC
:1034E30003023598430811023598EA2418124ECE88
:1034F3006036EA241A124ECE6003F470131262B1DE
:103503007003A3E0696003023598750822023598B9
:10351300EA241B12359C241A124ECEFAEE241912F9
:103523004ECEF9121E90806D8A828B83A3A3A3A330
:10353300A3A3A3A3A312397C70037508018E828F02
:10354300831262B57003A3E0697006E508D2E1F562
:1035530008E50860158E828F83A3A3E07006E50853
:10356300D2E58004E508D2E6F5081249D964017072
:1035730006E508D2E0F5088E828F83A3A3E06015E9
:10358300EE241D1251EDF9122298E964016006E55B
:1035930008C2E0F508A9088010F582E43FF583121C
:1035A300696CEA227409120F067F04020CAD74F0F1
:1035B3001209C174D7120FBAEAFEEBFF8A82F583B0
:1035C300A3A3A3A3E0600E90158612616C6006901E
:1035D30015861239917403120F9A8E828F83A3A3D7
:1035E300A3125AB8125FDA122214E97003023742A7
:1035F30078017405121205E0C39402400278007446
:1036030007121205E0C3940240027800740C1212F0
:1036130005E064F87003A3E0F47003023742740C0E
:10362300121205E064F97003A3E0F4700302374259
:10363300740C121205E064FA7003A3E0F470030241
:103643003742740C121205E064FB7003A3E0F470BC
:10365300030237427406121205E0F99013B0E069D1
:103663006003023742E8A2E04003023742742712A4
:103673001205E06003023742EE24131262C774227C
:10368300121205125AC2241C1262C77410121205B8
:10369300125C0D7409121205E0601D741A121205F2
:1036A300E0FD7404121205E0FC8E828F83125FDA50
:1036B30079011220FAE9703B7403120F9212214828
:1036C300E9F50C7409121205E0702C9013AAE0605E
:1036D300267422596422601F744259644270147420
:1036E30020121205123976600E7420121205123957
:1036F3006F60047ACF804AE9A2E6504D742012121B
:10370300051251F324FD600F14600C24FD6008249E
:10371300FD600424FE7028742012120512396870AB
:103723000E7420121205125819A3E0640D601A7466
:1037330003120F921222C2E96401700D0239587A02
:10374300D37B00121ABE023958EE242DF582E43FD2
:10375300F583123B7C7003A3E069701D7508007844
:1037630008120F2D7808120F2DEE242F124ECEF9CA
:10377300123982123D6D120F067409121205E070A0
:1037830003023820123982125FDC1223108A0E8B57
:103793000FEA4B70030238B17404121205E0F88E7D
:1037A300828F83A3A3E028F8A3E03400F9E8240D73
:1037B300123960F88A828B83A3A3A3E068600EE8C2
:1037C3008A828B83A3A3A312447A1231747904E906
:1037D300121205124EEDA3E02AF8A3E0340088820A
:1037E300F583A3AA82AB831216928A088B098C0AEB
:1037F3008D0B850E82850F83A3A3A3A37808120ED6
:103803008D400302395890812A78081210D5850E0D
:1038130082850F83A3A3126972A3124C119013C262
:10382300E064046008E064096003023958E50CA20F
:10383300E540030238EBEE242F124ED6F0EE24308F
:10384300124ECEC0E07401121205D0E0F0EE243126
:10385300124ECEC0E07402121205D0E0F0741412BE
:103863001205E064017026740E1212051242C92477
:1038730013124ECE687003A3E0697011740C121218
:103883000512397C70077414121205E4F0EE242536
:10389300F582E43FF583120D787404120F9A7407CE
:1038A300120F92121E007404120F0602395890145C
:1038B30007E06401600302382074201212051239F4
:1038C300767009E50CA2E650030238207410121238
:1038D30005E0F47003A3E0F4607BEEFCEFFD7403FA
:1038E300120F92122154806DA2E6506974201212B5
:1038F30005125CFB7016741A121205E0640270550F
:103903007403120F92790012228C804974201212D0
:103913000512396F7014741A121205E064047035BD
:103923007403120F92122280802B7420121205123C
:103933003968700C79007403120F921222CE80152D
:103943007420121205125819E0640C7008740312E3
:103953000F921222DA7429026141E82406F582E407
:1039630039F583E022126108E0640322126108E062
:103973006407221251F76406221249EA640222EE16
:10398300242BF582E43F12696AEE1249BF22E0F567
:1039930008A3E0AA08FBE4FCFD12213C2274F41204
:1039A30009C1EAFEEBFF8C088D09901328E0600F34
:1039B3001262B17003A3E0697005121E7E80537911
:1039C30000125FCF121EAE8A828B83E5824583602D
:1039D3002CA3A3A3A3A3A3E054186021E508241CEC
:1039E300123A1C120D7C123A18120D7CEE24181296
:1039F3003D541254B4126289120F06801579008E59
:103A0300828F83A3A3A3125CE11254B4125FDC126E
:103A13001E840235ACE5082413F582E43509F583E9
:103A23002274F71209C174F7120FBAEAFEEBFF9082
:103A330013C2E06403600DE064016008E0640960A0
:103A430003023B228A828B83A3E06003023AF07C69
:103A5300007D007A027B0012164A12632E8A8212BC
:103A630062CB9013B3125C0D7953121CB69013C240
:103A7300E0640960099013C0125FDC12230A851801
:103A83008285198374011258319013C27404F0743F
:103A930001120F92794A121CB07401120F9A7AB86C
:103AA3007B1312183690123BE0640B70057406F01A
:103AB30080057900123B279013B3125CE77A037BEE
:103AC3000012164A9013B6125CE77A047B001216B2
:103AD3004A9013ADE0A2E35004D2F08002C2F01288
:103AE300581E9015821211CA12213C802FFC7D00B2
:103AF3007A037B1012164A90123BE0640B70037436
:103B03000AF090132CE4F0FA7B4012560E8E828F4B
:103B130083A3E0F9123B279013C2E4F012217E74D1
:103B2300090246C39013C0125FE0121E1222C08224
:103B3300C08390134612616C70179013C2E024FB8C
:103B43006005146007800A90134C801F90134E8009
:103B53001AE849600712395D6401700C8A828B830D
:103B6300A3E0F9121E06800E90143C12616C6006ED
:103B730012581A120C0E0253651262D19013C0E050
:103B830068221262D1E8FAE9FB2274F51209C174C2
:103B9300D8120FBA8A088B098A828B83A3A3A3A3A3
:103BA300A3A3A3A3E0C3940F5003023D3E8A828BD9
:103BB30083A3A3A31262E97415120F9A8A828B83DB
:103BC300A3A3A3A3A3A3A3A3123D43FAA3E0FB12BE
:103BD300218A7415121205E0702E850882850983E7
:103BE300A3A3A3A3A3A3A3A3E0C3940B401A8E820E
:103BF3008F83A3A3A3A3A3A3A3A3E064027009EEEB
:103C0300240B124ECEF46003023D3E7417121205CC
:103C1300E0600764026003023D3E9013C2E0640269
:103C2300601CE06406601790134612616C70030217
:103C33003D3E12395D64016003023D3E80259013D1
:103C43004612616C701D7508007808120F2D7808F4
:103C5300120F2DEE2410123D548E828F83123D6D70
:103C6300120F068E828F831269411242F91262CDBE
:103C73007402121205125AC212316EC0E074041299
:103C83001205D0E0123D76F508A3E0F509740F782C
:103C9300081211907405121205E508F07419121236
:103CA30005E0C0E07406121205D0E0F0741B121296
:103CB30005E0C0E07407121205D0E0F0741612128A
:103CC30005E0C0E07409121205D0E0F07417121277
:103CD30005E0C0E07408121205D0E0F0EE241012E3
:103CE3004ECEC0E0740A121205D0E0F0741A12121C
:103CF30005E0C0E0740B121205D0E0F07427121235
:103D030005E0C0E0740C121205D0E0F0741C12122E
:103D130005A982AA8389088A09750A007808120FFF
:103D2300257C087D007410121205AA82AB83124E03
:103D3300C5120F06AA18AB19121E0C7428024821CB
:103D4300E0F98A828B83A3A3A3A3A3A3A3A3A3E0E2
:103D530022F582E43FF583E0F98E828F83A3A3A348
:103D6300A3A3A3A3A3A312696C22125FE012224AA6
:103D7300740222F0EE1254B9E02274F21209C174F3
:103D8300F8120FBA8A0A8B0B8C0C8D0D890890815F
:103D930001AC18AD197408120E4DC200AC0AAD0B7C
:103DA300AA18AB19125F5D7002D20090140E801333
:103DB300AC0AAD0BEE240BFAE43FFB125F5D701B04
:103DC3001249B0124643601EA20040E48E828F83E4
:103DD300E0650C7004A3E0650D70E58E828F83A30C
:103DE300A3E0650870DAEEFAEFFB7408024306C03D
:103DF30082C08390140E025362C082C08390140E5B
:103E0300E4F0A302405874F71209C190140E12682B
:103E13005A800FEA2414F582E41262E612173AEE8E
:103E2300FAEFFBEA4B70EC90140EE4F0A3F00246B9
:103E3300C674F21209C18A0C8B0DEDFF890B8A82BD
:103E43008B83E08C828D83F0A3A882A9838A828BE3
:103E530083123EFD124474E0C454F0FA88828983CD
:103E6300E04AF0EC2402F8E43FF9850C828B83A34B
:103E7300A3123EFD123F10E0333354FC123F04E023
:103E830033333354F8123F04A3E0A2E0E4331313B3
:103E9300FA88828983E04AF0EC2403FE50010FE59F
:103EA3000C2407F508E4350DF509750A00780812A6
:103EB3000F257C087D00EEFAEF124EC4120F06EEBA
:103EC3002408FE50010FE50C240FF508E4350DF529
:103ED300097808120F257C037D00EEFAEF124EC419
:103EE300120F06E50BC3940F400DE50C2412F58267
:103EF300E4350D1254C8F0024309A3E08882898394
:103F030022FA88828983E04A123F10A322F0850CAB
:103F1300828B83A3A3A3A32274F21209C1EBFF8CA8
:103F23000C8D0D8A82F583E08C828D8312692BA31D
:103F3300A882A983E012530D1242EFC4125307F073
:103F4300EA1269351253141242EDA2E2E4338C8271
:103F53008D831242EC131313541F12530DA31242F9
:103F6300ECA2E7E4338C828D83A3A3A3A3A3A3F0E2
:103F7300EA2403FE50010FF5088F09750A0078083B
:103F8300120F257C087D00E50C2407124EC0120F8A
:103F930006EE2408FE50010FF5088F097808120F6A
:103FA300257C037D00E50C240F124EC0120F068EF4
:103FB300828F83A3A3A3E0C0E0126951D0E0F00293
:103FC300430974F61209C1EAFEEBFF8A82F583A363
:103FD300858208858309E0F9121E2A8508828509EE
:103FE30083E064EB601E8E828F83A3E064E1601440
:103FF3008E828F83A3E064F1600A8E828F83A3E0B5
:10400300641A70078E828F83A3E4F09015821211D5
:10401300CA12213C7508017808120F2D8E828F83F6
:10402300A3E0F5087808120F2D79009013C0125CF5
:10403300E79013B6123D6D120F0612219C0256D55E
:10404300C082C083E99014207003E480027401806D
:1040530004EAF0A3EBF0025365125FE0121CCE22D8
:1040630074F61209C1901420E0701B7C0079017A68
:10407300007B001221CCEA4B600C8A828B83126195
:104083006C60031221300256D5C082C083124523CF
:10409300401079FF1221C6E9F8902D5AE493C39892
:1040A300500479018002790002536574F21209C148
:1040B3008A0A8B0B8909C2008A828B83A3A3A3A3D9
:1040C300A3A3A3A3E0F91221D28A0C8B0DAE0CAFEC
:1040D3000D750801EA4F600302418F850A82850B43
:1040E30083125CE1850A82850B83A3A3A3A3A3A305
:1040F300A31242CE1221BA8A0C8B0DAE0CAF0DEA7D
:104103004F700302429B8A828B83A3A3A3A3E4F091
:10411300A3F0E50A240CFAE4350BFB8A82F583E06D
:10412300C0E01242A2D0E0F0E50A240D1242C224FC
:104133000D125C071222B01249C8126128E50A2445
:10414300111242C22411125C07E50A24131262F809
:10415300C0E01249BAD0E0F0D200EE2406F8E43F02
:10416300F91242B51242F054046003024201901561
:1041730094E0F50A750B007407780A12109C8E827E
:104183008F83A3A3A3A3A3A31242ACF08E828F8336
:10419300A3A3A3A3A3A3E0F50AA3E0F50B740778F5
:1041A3000A121190E50A5407FCE50960618E828FBB
:1041B30083A3A3A3A3A3A3A3A3A3740212481B12C1
:1041C30045B8600B9013AE124F4EA3A3125C0DECD7
:1041D3007003024272EE2406F8E43FF9E8FAE912AA
:1041E30042B5F0EC24FFF50AE434FFF50B740778CD
:1041F3000A12109C8A8289831242ACF080718E82EB
:104203008F83A3A3A3A3A3A3E0448002418EEC70F6
:104213000575080080598E828F83A3A3A3A3A3A34C
:10422300E05420600C121698EA547F7900245F80D2
:10423300198E828F83A3A3A3A3A3A3E05410601AB0
:10424300121698EA540F7900240A5001098E828FBE
:1042530083A3A3A3A3F0A3E9800D8E828F83A3A3DB
:10426300A3A37401F0A3E41242F97404124539A222
:104273000050288E828F83A3A3A3A3125FE6F9EED7
:10428300FAEFFB1221C0E96012126165600312426A
:10429300DBEEFAEFFB12173A750800A9088067EE08
:1042A300240CF582E43FF58322E0450AF0A3E045C0
:1042B3000B228882F583E0547FF0A3E054FC22F5BF
:1042C30082E4350BF5831262D1EE22A3E0F9850A6D
:1042D30082850B83125FE0221242E212473822EEFC
:1042E300240FF582E43FF58322A3A3A3A31242F490
:1042F30022126314E0221242FD22124811A3A3A347
:10430300227403120F067F06020CAD74F41209C166
:1043130074F7120FBA7E001221D2EA4B70030243E4
:10432300C18A828B83A3A3A3A3A3A3A3A3A3E064B0
:104333000660030243C18A828B83A3A3A3A3A3A31F
:10434300A3E0FF8A828B831268F3E0C0E074081253
:104353001205D0E01246E9125BFA125C0D1221E459
:10436300EF54086057851882851983125CE77A0039
:104373007B001221B4EA4B704312695C7C007D0020
:104383007A007B0080228E828F831251F3F47003B4
:10439300A3E0F460279013C01243C61246CB601CFF
:1043A3007C007D00EEFAEFFB1221B48A0A8B0BAE80
:1043B3000AAF0BEE4F70CF7900121CE67E01EEF9C7
:1043C3000235A71243CA22E0FCA3E0FD8E828F834D
:1043D30022C082C0838A828B83E5824583700990E1
:1043E300142580068A828B83A3A31245EC60208A5E
:1043F300828B83A3A3A3A3A3A3A3E0540860E5EC48
:104403004D60101245F27003A3E06D70D780047AFB
:10441300007B0002536574F21209C18A088B098973
:104423000AECFEEDFF7A147B00121734EA4B603777
:104433008A828B83A3A3A3A3A3A3A3A3A3E412446A
:104443008AE50A1246D5EEF0A3EF12447A1246F03B
:104453001244818A828B8312697412446D126063E1
:10446300A3124474F0A3F0024309EA240FF582E493
:104473002212692FA3A3221246DBE4F0A322A3F0A6
:104483001268EC1260632212448E221246DFA3A349
:10449300A3A32274F51209C1EAFEEBFF890A8C0873
:1044A3008D09EA4F6075740169701279011221C692
:1044B300E9F8902D5CE493C3985015800A7404695D
:1044C3007009124523500979118052740269704BA7
:1044D3008E828F83A3A3A3A3A3A3A3A3A3E50A12FB
:1044E3004532124C081261EDA3E4F0A3F0901425B9
:1044F30012616C601880031262CD88828983A3A342
:104503001245EC88828983A3A370EC800390142561
:10451300EEF0A3EF1245397900800279C1024824F5
:1045230079041221C6E9F8902D5BE493C398221213
:1045330061F1A3A3A322F07A207B0090140DE0F98C
:104543001216E022C082C083E9F879009014258016
:104553001D8A828B83A3A3A3A3A3A3A3A3A3E0681E
:10456300600574FF687001098A828B83A3A31245D7
:10457300EC70DE02536574F71209C1EA4B700590C3
:10458300142580068A828B83A3A31245EC601F8ABD
:10459300828B83A3A3A3A3A3A3A3A3A3E06970E430
:1045A300EC600F8A828B831245B870D880047A003E
:1045B3007B000246C612690CE0540422C082C08309
:1045C30090142580068A828B83A3A31245EC601284
:1045D3008A828B83A3A3A3A3A3A3A3A3E06970E508
:1045E30080047A007B00025365125FE0EA4B228A63
:1045F300828B831251F76C2274F21209C18A0A8BDF
:104603000B8C0C8D0D750800750900EA4B602A9020
:10461300142580068E828F83A3A3124643601AACAF
:104623000CAD0DEEFAEFFB850A82850B83120C0E9F
:10463300E9640170DF8E088F09AA08AB09024309F8
:10464300E0FEA3E0FFEE4F2274F71209C190142598
:104653001262CD7C007D00800DE8FCE9FD88828933
:1046630083A3A31262CDE8496030EA687002EB6964
:1046730070E7901425125FDCE86A7002E96B8882A8
:104683008983A3A370081262CD9014258009126256
:10469300CD8C828D83A3A3125C0D802774F712093E
:1046A300C1EAFEEBFFEA4F60151221DE1247241226
:1046B300616560031242DBEEFAEFFB12173A8003E7
:1046C300120F067F01020CAD125FE0121CDAE964DF
:1046D3001A221246DBA3A3221246DF22F08A828B20
:1046E30083A3A3A3A32212692F1251F72212448E8C
:1046F300A32274F61209C19014251262E9801412E0
:1047030063061247241242DBEEFAEFFB12173AAEAE
:1047130008AF09EE4F70E8901425E4F0A3F00256B9
:10472300D58E828F831268E0F5831247388E828F8D
:104733008312473822E0FAA3E0FB12173A22C08221
:10474300C083EAFCEBFDEA4D6017EA24FBF582EB3C
:1047530034FF12616A7007124796E0F4600712167D
:10476300A47905802B90140DE0C0E0124796D0E0A9
:10477300F0902D53E493F97A277B141216DAE96447
:1047830001700B7A007B201247A57900800279041F
:10479300025365EA24FFF582EB34FFF583227A2086
:1047A3007B0090140DE0F91216E02274F41209C193
:1047B300A2AFE433F508C2AF901427124643603822
:1047C300EE24FBF582EF34FF12616A7A007B2090BE
:1047D300140D60051247A88005E0F91216E6E4F50A
:1047E3000AF50B780A120F29EEFCEFFD7A277B14EA
:1047F3001216D47402120F06E508A2E092AFEEFA85
:10480300EFFB0235AC12480DE02212481122124888
:104813001BA3A3A3A3A3A322F08E828F8322120F31
:10482300067F03020CAD74F21209C174FA120FBAB7
:10483300EAFEEBFF7508FE7509FF1221A2E9600588
:1048430079110249AB124ECB603C9015AEE0C433F4
:1048530054E0F8E0333354FC48C0E0EE1258DA3F3A
:10486300F583D0E0126328FAA3E0FB79FF121F7AE5
:10487300EA4B60127508FFEE240F124ECE4404F08B
:10488300124ECBD2E0F08E828F831249E46006EEA3
:104893002412126340EE2413124ECE700D902D5E3F
:1048A300E493C0E01249BAD0E0F08E828F83E0A295
:1048B300E7500454038019EE2414124ECE70129064
:1048C300139FE0C0E01249B0D0E0F090139FE004E2
:1048D300F0EE2411124ECE64017016901598E0602C
:1048E3000D9013AAE0700A8E828F83E07003126327
:1048F3003D8E828F83E064017013EE240B1251ED21
:1049030064027009EE240F124ECE4440F0AC18AD91
:1049130019EEFAEFFB12220E8A0A8B0B74FE65085E
:10492300700374FFF47003126306EA4B60768E82A1
:104933008F83E0C0E07401121205D0E0F07404121A
:104943001205EEF0A3EFF0EE241E1262C7740212FA
:104953001205125C0D7401120F8A880C890D780CF4
:10496300120F29EE24201249CD120F2D1249C8121D
:104973000D7CEE240E1249CD120F2D9013B3120DA0
:104983007C7408121205E0F9AC08AD091222087410
:1049930008120F06E9FE74106E700BAA0AAB0B1215
:1049A300173A80027E10EEF97406024306EE2414D1
:1049B300F582E43FF58322EE1249BF222413F582E8
:1049C300E43FF58322EE1242E322F582E43FF583CE
:1049D300E0F50C780C228E828F83A3A3A3A3A3A359
:1049E300A3A3A31249EA22E0FAA3E0FB1222AAE955
:1049F30022C082C08374D7120FBA908092740312BC
:104A03000F9A7426120E4D8A828B83A3A3A3A3123B
:104A130062CD740E1212051261721262CD740C1201
:104A23001205124AED240D124ADDC0E0741A121267
:104A330005D0E0F01260691262CB742012120512E5
:104A43004AED2415124ADDC0E07408121205D0E0C5
:104A5300F0EA241CF582E43B1262CB7412121205B5
:104A6300124AED2411124ADDC0E07409121205D076
:104A7300E0F0EA2412124ADDC0E07407121205D0F6
:104A8300E0F0EA241EF582E43B1262CB7424121296
:104A930005124AED2420124ADDC0E07426121205E5
:104AA300D0E0124AE574FFF0740112120574FFF0AE
:104AB300740212120574FFF090811E120D787404B3
:104AC300120F9A7407120F92121E007404120F062B
:104AD30079007429120F06025365F582E43BF583CE
:104AE300E022F085188285198322E8F0A3E9F0EA31
:104AF3002274F41209C174EC120FBA8A0A8B0B8C5C
:104B0300088D09E9FF7E107A217B0012173485187E
:104B130082851983EAF0A3EB12617CE849700302F2
:104B23004C017C217D007900851882851983E0FA88
:104B330012168C9013C0125FDC85188285198312BC
:104B43005CEB2409F582E438F583126128742012A2
:104B530012051262CD7411121205E812525C126131
:104B63002E38F583740212525F1268FA74021252DD
:104B730049124C0812525F1268D7EFF074221212D6
:104B83000512520AF9A3E0C91265D139F583E81277
:104B93004F1FA3E0C9241FF582E439124C0F74237D
:104BA300121205125FDC74061212051261287408D2
:104BB300121205E8F07426121205126102C082C0B7
:104BC30083740C121205AC82AD83D083D08274053A
:104BD300120E4D7425121205E0C0E0741312120573
:104BE300D0E0F07900AA18AB191221A8E96401708A
:104BF300047E0080098518828519831242DEEEF94E
:104C030074140235A9E508F0A3E50922F583E50A42
:104C1300F0A3E50BF02274F01209C174FF120FBA6E
:104C2300EAFEEBFF8C088D098A82F583A37408F0F2
:104C3300EA2416124ECE60088A828B83A37410F086
:104C4300EA2417124ECE60098A828B83A3E02408DC
:104C5300F0EA124ECC60088A828B83A3E004F08AC8
:104C6300828B83A3A3A3A3A3A3E060198A828B836C
:104C7300A3A3A3A3A3A3A3E0C3332402F88A828B31
:104C830083A3E028F0EA2411124ED66004740E8048
:104C930001E4F09015A6E0640170168A828B83E02C
:104CA3006401600D90132CE06007124EB67401800E
:104CB30004124EB6E4124F1F8A828B83A3E0F8EAF4
:104CC30012316E28298C828D83F0EA2411124ECE84
:104CD30060051254F729F0850882850983E0C3949F
:104CE300754009750C00750D00024EADE0FA7B00AE
:104CF3001217348A0C8B0DEA4B7003024EAD8E8271
:104D03008F83E0FA9013B0124F18740278081210D0
:104D13009CEA4508FAAB09EE2412124F1274067886
:104D23000812109CA808EA48FCEBFD124ECB600465
:104D3300780180027800EE2416FAE43FFBE4C8F918
:104D4300ED49FDEE2411124ECEF508880974097859
:104D53000812109CED4509FD8A828B83124F18744B
:104D63000B780812109CED4509FDEE2417124F1223
:104D7300740C780812109CED4509FD8E828F83A375
:104D8300A3A3A3A3A3124F18740A780812109CEDCF
:104D93004509FDEE2423124F12740D780812109C5E
:104DA300ED4509F9EC850C82850D83F0E9A3F0EE5E
:104DB3002402124EF5124F34F0EE2404124EF5A3E2
:104DC300A3124F34A3A3F0EE2413124F05F0EE24E5
:104DD30014124F05A3F0750B088A828B83E06015CC
:104DE3001261DE125CE7E50C2408FAE4350DFB12D0
:104DF3001836750B10EE2417124ECE6019125D6A29
:104E0300125CE7A80BE50C28FAE4350DFB12183603
:104E13007408250BF50B8E828F83A3A3A3A3A3A3EF
:104E2300E0604EEE2407F50EE43FF50F850E82F5A4
:104E330083E0C0E0124EE4D0E0124F24E0C0E0086B
:104E4300124EE6D0E0124F24A3126158120F2585AB
:104E53000E82850F83E01251BEA80BE50C28124E7B
:104E6300C0120F06850E82850F83E0C333250BF531
:104E73000B124ECB6008C0E0124EE4D0E0F01254A7
:104E8300B4126158120F2512316DFC7D00740312A8
:104E93001205124EEDE0F8E50C28F8E4350DF9E8BB
:104EA3002AFAE439124EC4120F06AA0CAB0D740190
:104EB300026141EA2423F582E43FF58322FAE435D3
:104EC3000DFB121680740322EE2415F582E43FF5E0
:104ED30083E022F582E43FF583E085188285198318
:104EE30022A80BE50C281251D122E0FA8E828F837F
:104EF300A322F8E43FF98882F583E0850C82850DCF
:104F03008322F582E43FF583124F3EA3A3A322F548
:104F130082E43FF583E0F5087509002212691DF963
:104F230022F0050B8E828F83A3A3A3A3A3A3A3A322
:104F330022A3A3126314A3124F3E22E0850C8285A1
:104F43000D83A3A3A32274030235A91262D18E8217
:104F53008F83A3A32274F01209C174FD120FBA1236
:104F630061227402121205E9F08C0C8D0D750B0190
:104F73007C267D007900AA0CAB0D12168C740212EC
:104F83001205E0C394085003025147124EFDF0ACE2
:104F93000CAD0D8518828519831251F3FA85188299
:104FA3008519831258191254F0E96003750B0085B3
:104FB3001882851983126102125214E0F9EA850CF2
:104FC30082850D83A3A3A3A3A3A3A3A3A3F0A3E910
:104FD300125249A3A3125214A3A3E0F9E50C1261E0
:104FE30081EA12525C125CD7C0E0E50C241112690D
:104FF30055D0E012525F2407F582E438F583E0C010
:10500300E0126951D0E01261157408125240A3E016
:105013006026851882851983E02408F8A3E034000C
:10502300F9E50C2413F582E4350D125C0B850C8233
:10503300850D83A3E02408F0850C82850D83A3A34B
:10504300A3A3A3A3A3A3E0602A850C82850D83A356
:1050530085820E85830F125201F8A3E03400F9E52F
:105063000C1258DA350D125C0B850E82850F83E026
:105073002408F01251C5E4F01251D9E4F0A31261EF
:1050830015A3A3A3A3E06011125225850C82850DFD
:1050930083A3A3A3A3A3125251E50C1251E6E0701C
:1050A30003025133125225FA1251C5EA125251F832
:1050B300851882851983E028FBA3E034008B82F5F1
:1050C30083E0F8E50C241A126955E8125251E8C33B
:1050D3009AE50C50561251E1F8902D54E493C3987D
:1050E30050047E0C8006E50C1251E1FE850C82858E
:1050F3000D83125200F508A3E03400F509750A0088
:105103007808120F25EE1251BE7A037B09124EC5A1
:10511300120F061251D97403F0A37409F0EEC333CE
:10512300F8850E82850F83E02880041251E6E4F0AF
:10513300850C82850D83A3E0F8850C82850D83E0C1
:10514300C398500479008070125200FAA3E034002F
:10515300FBE50C126337126958126128850C8285AE
:105163000D83E0C398C0E0E50C2417126955D0E025
:10517300125240E06040E50C2417FEE4350DFF8E2B
:1051830082F583E024F2F0E50C241DF8E4350DF9F3
:105193008882F583E0240EFAA3E03400FB88828939
:1051A300831261289013ABE0F9122100E9F88E8293
:1051B3008F83E0C398F0A90B02613F25E0FCE43341
:1051C300FD22E50C1251CB2224191251D122F58272
:1051D300E4350DF58322E50C241B1251D122125123
:1051E300CBE02212610F1251D422F582E43FF58302
:1051F3001251F7221262D6F5838882E022A312525B
:10520300052212520A2822E0F8851882851983E0C4
:1052130022A3A3E0FA851882851983126108A3A348
:10522300A322850C82850D83A385820E85830F12AD
:105233005205FAA3E034008A82F583E02212611951
:10524300A3A3A3A3A322125264F583888222F08529
:105253000E82850F83E004F022F0A3E9125264C8A2
:1052630022126921F8A3E02274F41209C18A088B7F
:1052730009EA125314A3A3F0EA1313543F1253077A
:10528300A3F0EAC4131312531412531E7409780AB9
:105293001211901252FEA3A3A3A3A3A3F0EB1253E4
:1052A3000012531D740A780A121190E50A5401C0C2
:1052B300E0EC12610F3DF583D0E0125322740B78BA
:1052C3000A1211901252FE12531B740C780A121117
:1052D300901252FEA312531B740D780A121190E51B
:1052E3000A5401C0E0EC2424F582E43DF583D0E0C8
:1052F300F0740E7808121190023598E50A54018C67
:10530300828D832212530DA3A322540F8C828D838B
:105313002254038C828D8322A3A3A3A3A3A3A3F06C
:105323008A0A8B0B22C082C08379008A828B83A373
:10533300A3A3A3A3A3E09013AA600EE0701F8A8225
:105343008B83A3A3E070168012E06011125FCF90ED
:1053530013B3E06A7003A3E06B6002790180031268
:105363005FDCD083D082020ED174F21209C18A0AA3
:105373008B0B890CECFEEDFF8A828B83E0FA1254CF
:10538300F0850A82850B83A3A31254E4E0F9EA8E25
:10539300828F83A3A3A3A3A3A3A3A3A31255091239
:1053A30054E4A3A3E0F91254B4EA125509A3A3E009
:1053B300C0E0EE2411F582E43FF583D0E0125510EE
:1053C300A3A3A3E0C0E0EE2412F582E43FF583D06B
:1053D300E01261ED7408124532A3A3A3E06017E560
:1053E3000A2408F8E4350BF91249BAE8F0A3E912E4
:1053F30061EDE02408F08E828F83A3A3A3A3A3A36C
:10540300A3A3E060188E828F83A31254D3EE2415D6
:10541300125C07850882850983E02408F08E828F59
:1054230083A3A3A3A3A3E060248E828F83A3858297
:1054330008858309E0F8E50A28F582E4350B125460
:10544300C8A3A3F0850882850983E004F0EEFAEF90
:10545300FB122220E9F50D70498E828F83A3A3A34B
:10546300A3A3A31254C2A37014E0F8E50A28FAE434
:10547300350BFB1254AA126128E50C801A1254D37F
:10548300E8240EF8500109EE241D125C071254F7AC
:10549300F9E50CC39924F2C398C0E0EE125D61D024
:1054A300E0F0A90D024309EE241DF582E43FF583E4
:1054B30022EE1254B922240BF582E43FF58322E055
:1054C3008E828F8322F583E08E828F83A3A3A32210
:1054D300858208858309E0F8E50A28F8E4350BF9A5
:1054E30022E0FA850A82850B83A3A3A322126349D0
:1054F30012221A229013ABE0F9122100E9F8850871
:1055030082850983E022F0A3E912551022F0850A6F
:1055130082850B83A3A3A3A322C082C0837A337B98
:105523001479E2121CB07A337B14025365C082C033
:10553300839013B3025362C082C0839013B60253A5
:1055430062C082C083794A121CB002536574F6129A
:1055530009C190143BE0FE04F0EEF91221D2EA4BAC
:1055630070F0EE60EDF90256D574F21209C1EAFE4D
:10557300EBFF8C088D09890A122310740E12120591
:10558300E0F9740F121205E0F8EA4B7012E8701B91
:10559300A90AAC08AD09EEFAEFFB12232E8065E8E9
:1055A3006017E970068A828B83E4F0740168705493
:1055B300E990143E7024E4801EE97048EA24021244
:1055C3004ADDA80A28F8E4340013E813F070358A9A
:1055D300828B83A3A37401F0802AE004F0901595D5
:1055E300E0F890143EE0C398401AE4F09013B6E05C
:1055F3006E7003A3E06F700CEEFAEFFB7901121EDD
:105603002412560A0243097A017B0090140DE0F933
:105613001218062274F41209C18A088B098C0A8DA8
:105623000B90812A7808120FE670077A011247A3BC
:10563300801E901582780812119FEA4B4C4D600D25
:105643007808120F21123347120F06800312560AED
:105653000235ACC082C083901586024054C082C01C
:105663008390158802405474F61209C17E007508B0
:105673009F7509137808120F297C6E7D007A217BB0
:10568300001217AC7402120F06E9640A70027E015D
:10569300121D82E9640A7004EED2E1FE9004421204
:1056A300616C600F12581A120C0EE9640A7004EE52
:1056B300D2E3FE121F8CE9640A7004EED2E4FE12F8
:1056C3001C32E9640A7004EED2E5FEEEF98003129F
:1056D3000F067F02020CAD74F61209C1121644754F
:1056E300089F7509137808120F2975086E7509004C
:1056F3007808120F29125717120F06121D889004EB
:105703004412616C600612581A120C0E121F921288
:105713001C4480BE7C007D007A217B001217B87484
:10572300042274F61209C174FF120FBA7E007508C1
:105733009F7509137808120F297C6E7D007A217BEF
:10574300001217AC7402120F06E960030257F178D6
:1057530008120F2975086E8E097808120F297C002C
:105763007D007A217B001217BE7404120F06E970C4
:105773007D9013B3E064FE7003A3E0F460707E01D8
:105783009013C2E064086005E06404705C851882CD
:10579300851983EE1258317ACA7B137943121CB6EA
:1057A3007AC77B137947121CB67AB87B13794A12EE
:1057B300580C7AC07B137950121CB67AB37B1379D9
:1057C30053121CB67AC87B137954121CB67AB57B74
:1057D3001379E1121CB69013ADE0A2E35004D2F0AA
:1057E3008002C2F012581E80051216447E00121D5C
:1057F3007690044612616C600612581A120C0E124F
:105803001F9EEEF974010256D2121CB67AB67B13B0
:10581300794B121CB622A312610922A2F0E433854C
:1058230018828519831258907952121CB622125885
:10583300907942121CB62274F61209C1E9FEA2E065
:10584300501C75089F7509137808120F2975086E87
:105853007509007808120F29125717120F06EEA2C6
:10586300E35003121D7CEEA2E2500E900448126135
:105873006C600612581A120C0E0256D51221847A45
:10588300107B147945121CB62212589022F0AA18E4
:10589300AB192274F71209C174ED120FBAE9FE9025
:1058A300140CF0AC18AD191258C27412121205EE92
:1058B3001258CFAA18AB1912587F74130246C3901B
:1058C30015C4E0F97A107B1412218A22F09015C4D2
:1058D300E0F97C107D14222415F582E4221268ED90
:1058E3003509F58322EFFB90140DE0F91216AA2275
:1058F300EE24161258FA22F582E43FF5837401F080
:10590300221268EC3FF58312590E221262D6F988EF
:1059130082F5832274F41209C18A088B097A007B09
:105923000412560E1259B99013C27409F0125F5142
:10593300123A18125FDC125F5D640170677A0F7BA5
:105943000012169E8A0A8B0BAF0BEA4F60568A82AF
:105953008B837402F0E5081263373509126355FC33
:1059630088828983A3A3E0FBEC8A828F83A3A3129B
:10597300612988828983A3A3A3E08A828F83125932
:10598300AAFAA3E0FB794A121CB68508828509832B
:10599300A3A3A3A3A3A3E0700690123B7405F0AAEC
:1059A3000A1258E80235ACA3F0E5082415F582E4A1
:1059B3003509F583E0229013481262D1901588E8E7
:1059C300F0A3E9F090134A1262D1901586E8F0A390
:1059D300E9F02274F41209C174FD120FBA8A088B1C
:1059E300097401121205740212620E7003025AB195
:1059F3001259047404F0A3E4125ACEE0640170084F
:105A030088828983A37420F0850882850983A3A3F0
:105A1300A3A3A3E06401700988828983A3E0D2E68B
:105A2300F0850882850983A3A3A3A3A3A3E064014C
:105A3300700A88828983A3E0D2E78006EA1249BB11
:105A43007401125AC9E064017020850882850983B4
:105A5300A3A312616C6004EA1258F48508828509D5
:105A630083A3A31262CDEA125C05850882850983AC
:105A7300A3A3A3A3A3A3A3E064017009EA240F12C1
:105A830058F6A3E4F08508828509831249E6600984
:105A9300EE240F124ECE4404F0125ADA85088285A2
:105AA3000983125AB6125AC012631AF98002791086
:105AB300024F49E0F8A3E0F98E828F8322A3A3E883
:105AC300F0A3E9F0EE22125ACEA322F085088285D4
:105AD3000983A3A3A3A322EE125D4F2274F5120937
:105AE300C174F3120FBA890AEAFEEBFF7508007559
:105AF30009007C0D7D007900AA18AB1912168C12CF
:105B030054AA125CF4741F58600C7AD37B00121AE7
:105B1300BE7900025BF0E8A2E55008740C1212058E
:105B23007401F0E8A2E75008740B1212057401F037
:105B3300E8A2E6740A50081212057401F0800812F4
